:100000000C94B8010C94E0010C94E0010C94E00114
:100010000C94E0010C94E0010C94DC050C94E001DC
:100020000C94E0010C94E0010C94E0010C94E001CC
:100030000C94E0010C94E0010C94E0010C94E001BC
:100040000C947D1A0C94E0010C94E0010C94E001F6
:100050000C94E0010C94E0010C94E0010C94E0019C
:100060000C9450190C94E001710CAA0C320DE60DA1
:100070001A0E260E400E490E520EC10E340F0040CD
:100080007A10F35A00A0724E18090010A5D4E800A7
:1000900000E87648170000E40B54020000CA9A3BBF
:1000A000000000E1F5050000809698000000404245
:1000B0000F000000A08601000000102700000000D3
:1000C000E803000000006400000000000A000000D7
:1000D00000000100000000002C76D888DC674F0883
:1000E00023DFC1DFAE59E1B1B796E5E3E453C63A89
:1000F000E651997696E8E6C28426EB898C9B62ED00
:10010000407C6FFCEFBC9C9F40F2BAA56FA5F490B9
:10011000055A2AF75C936B6CF9676DC11BFCE0E430
:100120000D47FEF520E6B500D0ED902E0300943586
:1001300077050080841E080000204E0A000000C8D9
:100140000C333333330F986E12831141EF8D21142A
:10015000893BE65516CFFEE6DB18D1844B381BF7FA
:100160007C1D901DA4BBE424203284725E22810099
:10017000C9F124ECA1E53D27DCA17EA120A1C2A00C
:1001800064A006A0A99F4B9FED9E8F9E319ED39D9C
:10019000759D179DBA9C5C9CFE9BA09B429BE49A1C
:1001A000869A289ACA996D990F99B1985398F5979C
:1001B00097973997DB967E962096C295649506951B
:1001C000A8944A94EC938F933193D392759217929B
:1001D000B9915B91FD90A0904290E48F868F288F1B
:1001E000CA8E6C8E0E8EB18D538DF58C978C398C9A
:1001F000DB8B7D8B1F8BC18A648A068AA8894A891A
:10020000EC888E883088D28775871787B9865B8699
:10021000FD859F854185E38486842884CA836C8319
:100220000E83B0825282F48197813981DB807D8098
:100230001F80C17F637F057FA87E4A7EEC7D8E7D17
:10024000FBA1A6A150A1FAA0A4A04FA0F99FA39F33
:100250004D9FF79EA29E4C9EF69DA09D4A9DF59CAB
:100260009F9C499CF39B9D9B489BF29A9C9A469A23
:10027000F0999B994599EF9899984398EE9798979C
:100280004297EC9696964196EB9595953F95E99415
:1002900094943E94E89392933D93E79291923B928B
:1002A000E59190913A91E4908E903890E38F8D8F04
:1002B000378FE18E8B8E368EE08D8A8D348DDE8C7D
:1002C000898C338CDD8B878B318BDC8A868A308AF4
:1002D000DA8984892F89D98883882D88D78782876E
:1002E0002C87D68680862A86D5857F852985D384E6
:1002F0007E842884D2837C832683D1827B8225825C
:10030000CF8179812481CE800000000900030200A2
:1003100000040508000000000000000000000001CB
:100320000204081020408001020408102001020489
:100330000810204080400404040404040404020261
:10034000020202020303030303030202030000008C
:100350000023002600290000000000250028002BB3
:100360000000000000240027002A000095119218C8
:1003700011241FBECFEFD8E0DEBFCDBF13E0A0E059
:10038000B1E0EEEEF5E402C005900D92A232B107A5
:10039000D9F724E0A2E2B3E001C01D92A03AB2076F
:1003A000E1F711E0C8EBD1E004C02197FE010E9403
:1003B0001E1FC63BD107C9F70E94371C0C94F522BB
:1003C0000C940000CF92DF92EF92FF920F931F9355
:1003D000E82FF92F05C0015011092109310961F1F8
:1003E000908196239417B9F305C001501109210992
:1003F000310911F1908196239413F7CFC12CD12CA0
:10040000E12CF12C0AC08FEFC81AD80AE80AF80AC2
:100410000C151D052E053F0579F080818623841774
:1004200091F36C2D7D2D8E2D9F2D1F910F91FF909F
:10043000EF90DF90CF90089560E070E080E090E072
:100440001F910F91FF90EF90DF90CF900895F89457
:10045000A895E0E6F0E088E1808381E680837894E7
:1004600008954F925F926F927F92AF92BF92CF9218
:10047000DF92EF92FF920F931F93CF93DF93CDB74D
:10048000DEB766970FB6F894DEBF0FBECDBFB42EB1
:10049000A22E9E012F5F3F4F790126E1F7011192B5
:1004A0002A95E9F78E01095E1F4F67012AE0422E67
:1004B000512C612C712CA30192010E94DD1EF801C8
:1004C000729362938F01B901CA01EE15FF0599F786
:1004D00063E881E593E00E94B411B11057C000E0D9
:1004E00010E0F601819191916F01892B09F048C0CC
:1004F0000F5F1F4F0B301105A1F7AA2009F440C070
:1005000063E081E593E00E94B71163E881E593E041
:100510000E94B41181E593E00E94C71163E081E578
:1005200093E00E94B41168E270E080E090E00E94E5
:10053000F81A81E593E00E94C71162EC81E593E02F
:100540000E94B41160E570E080E090E00E94F81A2B
:1005500081E593E00E94C71162E081E593E00E948B
:10056000B41168E270E080E090E00E94F81A81E542
:1005700093E00E94C71163E881E593E00E94B41103
:100580003801660C771CC12CD12C2EC00BE010E07A
:100590000B191109F5CF61E081E593E00E94B711D5
:1005A00062EC81E593E00E94B41181E593E00E9442
:1005B000C71168EC70E080E090E00E94F81A63E8F0
:1005C00081E593E00E94B41181E593E00E94C71198
:1005D00064EF71E080E090E00E94F81AA8950F5F48
:1005E0001F4FF2E0CF0ED11C0B30110559F1F6016F
:1005F000E60DF71DEE0DFF1D4080518041145104A2
:1006000051F2B12C8B2D90E08415950508F761E02F
:1006100081E593E00E94B71181E593E00E94C71144
:1006200068EC70E080E090E00E94F81A81E593E0C9
:100630000E94C71166E470E080E090E00E94F81A22
:10064000B394E0CF66960FB6F894DEBF0FBECDBF71
:10065000DF91CF911F910F91FF90EF90DF90CF909E
:10066000BF90AF907F906F905F904F9008954F92A2
:100670005F926F927F92BF92CF92DF92EF92FF9242
:100680000F931F93CF93DF9300D000D000D0CDB74E
:10069000DEB76B017C01B42E20E030E0A9010E949E
:1006A0005F1E20E030E040E05FE387FD05C0C7014A
:1006B000B6010E94481C04C0C701B6010E94471C35
:1006C0000E94671D0E949F1D9B01AC01C701B601DE
:1006D0000E94471C2B013C0120E030E0A9010E9450
:1006E0005F1E18165CF42FE832EC45E75DE3C301AA
:1006F000B2010E94B41C87FF74C00BC02FE832EC1B
:1007000045E75DEBC301B2010E945F1E18160CF0B5
:1007100068C020E030E0A901C701B6010E945F1E59
:1007200020E030E040E05FE387FD05C0C701B6018F
:100730000E94481C04C0C701B6010E94471C0E94C9
:10074000671D20E040E00E94310263E081E593E014
:100750000E94B71163E881E593E00E94B41181E53E
:1007600093E00E94C71163E081E593E00E94B41119
:1007700068E270E080E090E00E94F81A81E593E082
:100780000E94C71162EC81E593E00E94B41160E51C
:1007900070E080E090E00E94F81A81E593E00E940A
:1007A000C71162E081E593E00E94B41168E270E055
:1007B00080E090E00E94F81A81E593E00E94C71162
:1007C00063E881E593E00E94B41164EF71E080E09A
:1007D00090E00E94F81A20E04B2D60E070E0CB0121
:1007E00085C0C701B6010E946E1D2B013C010E940D
:1007F0009D1D9B01AC01C701B6010E94471C8E01E3
:100800000F5F1F4F23E045E00E94402080E38A8372
:10081000C8010E9460206C01990FEE08FF0882E079
:10082000B81207C0C701B6012AE030E040E050E04E
:1008300009C081E0B8120AC0C701B60124E630E061
:1008400040E050E00E94DD1E69017A0120E040E0B6
:10085000C301B2010E94310263E081E593E00E948E
:10086000B71163E881E593E00E94B41181E593E05C
:100870000E94C71163E081E593E00E94B41168E231
:1008800070E080E090E00E94F81A81E593E00E9419
:10089000C71162EC81E593E00E94B41160E570E05D
:1008A00080E090E00E94F81A81E593E00E94C71171
:1008B00062E081E593E00E94B41168E270E080E0BC
:1008C00090E00E94F81A81E593E00E94C71163E866
:1008D00081E593E00E94B41164EF71E080E090E064
:1008E0000E94F81A20E04B2DC701B6010E94310288
:1008F00026960FB6F894DEBF0FBECDBFDF91CF9125
:100900001F910F91FF90EF90DF90CF90BF907F905D
:100910006F905F904F9008958330E9F028F4813014
:1009200049F0823071F00895853019F1D8F08C309B
:1009300001F1089561E081E593E00E94B71164E060
:1009400006C061E081E593E00E94B71163E881E5AC
:1009500093E00C94B41161E081E593E00E94B7113B
:1009600063E0F5CF61E081E593E00E94B71162ECAE
:10097000EECF63E081E593E00E94B71163E881E583
:1009800093E00E94B41181E593E00E94C71163E0F7
:1009900081E593E00E94B41164E170E080E090E0B2
:1009A0000E94F81A81E593E00E94C71162EC81E58C
:1009B00093E00E94B41164E170E080E090E00E9456
:1009C000F81A81E593E00E94C71162E081E593E0A7
:1009D0000E94B41164E170E080E090E00E94F81A97
:1009E00081E593E00C94C71181E593E00E94C71163
:1009F00063E081E593E00E94B71162E081E593E056
:100A00000E94B41164E170E080E090E00E94F81A66
:100A100081E593E00E94C71162EC81E593E00E94BA
:100A2000B4116CE370E080E090E00E94F81A81E578
:100A300093E00E94C71163E081E593E00E94B41146
:100A400068EC70E080E090E00E94F81A81E593E0A5
:100A50000E94C71163E881E593E00E94B41160E54C
:100A600070E080E090E00E94F81A81E593E00C9439
:100A7000C711F894A89588E1809360000FB6F894A8
:100A8000A89580916000886180936000109260005A
:100A90000FBE789481E593E00E94C71161E081E583
:100AA00093E00E94B71165E081E593E00E94B411E4
:100AB00081E593E00E94C71164E670E080E090E079
:100AC0000E94F81A81E593E00E94C71160E273E08A
:100AD00080E090E00E94F81AE1CF1F93CF93DF935C
:100AE000EC01162F61E081E593E00E94B711612FC0
:100AF00081E593E00E94B41181E593E00E94C71163
:100B0000BE0180E090E00E94F81A81E593E0DF9159
:100B1000CF911F910C94C7116F927F928F929F92E9
:100B2000AF92BF92CF92DF92EF92FF920F931F93FB
:100B3000CF93DF931F92CDB7DEB76C018A014901D5
:100B400081E593E069830E94C711698181E593E0A3
:100B50000E94B411612C712CE12CF12CA12CB12C30
:100B600060167106C9F061E081E593E00E94B7115B
:100B700081E593E00E94C711C701B6010E94F81AEF
:100B800081E593E00E94C711C501B4010E94F81AE3
:100B90008FEF681A780AE4CF0F90DF91CF911F9101
:100BA0000F91FF90EF90DF90CF90BF90AF909F900C
:100BB0008F907F906F9008951F920F920FB60F92B3
:100BC0001124F894A89588E1809360000FB6F894FA
:100BD000A895809160008861809360001092600009
:100BE0000FBE789463E081E593E00E94171281E5DF
:100BF00093E00E94C71128EC30E044E050E062EC42
:100C000088EC90E00E948C0564EF71E080E090E059
:100C10000E94F81AF0CFF894A89588E180936000BC
:100C20000FB6F894A8958091600088618093600069
:100C3000109260000FBE789463E081E593E00E941B
:100C4000171281E593E00E94C71128EC30E042E0E2
:100C500050E063E888EC90E00E948C0564EF71E05E
:100C600080E090E00E94F81AF0CF60E273E080E04C
:100C700090E00E94F81A24E630E045E050E063E09E
:100C800082E390E00E948C05A89524E630E045E0E0
:100C900050E063E882E390E00E948C0560E273E03C
:100CA00080E090E00C94F81A0F931F93CF93882361
:100CB00029F090E5899FB001112402C060E070E046
:100CC00086E293E00E94DE13C2E04091A3035091BC
:100CD000A4036091A5037091A60386E293E00E94AD
:100CE000201400919B0310919C0320919D0330914F
:100CF0009E0340919F035091A0036091A1037091C6
:100D0000A20386E293E00E94391440919703509128
:100D100098036091990370919A0386E293E00E9490
:100D20002014409193035091940360919503709126
:100D3000960386E293E00E94201440918F03509125
:100D40009003609191037091920386E293E00E9478
:100D5000201440918B0350918C0360918D0370910E
:100D60008E0386E293E00E943714409187035091EE
:100D700088036091890370918A0386E293E00E9460
:100D800037144091AB035091AC036091AD03709167
:100D9000AE0386E293E00E9420144091A703509195
:100DA000A8036091A9037091AA0386E293E00E94D0
:100DB0002014C13011F0C1E088CFCF911F910F9165
:100DC000089568EE73E080E090E00E94F81A0E94B7
:100DD000270281E593E00E941A1261E081E593E029
:100DE0000E9417126FE781E593E00E94BA1166E056
:100DF00080E593E00E943C1260E586E293E00E9469
:100E0000C11360E074E082E293E00E94AF13A89502
:100E100080E00E94540681E00E94540682E00E9415
:100E200054060E9439052F923F924F925F926F9223
:100E30007F928F929F92AF92BF92CF92DF92EF926A
:100E4000FF920F931F93CF93DF93CDB7DEB72A970F
:100E50000FB6F894DEBF0FBECDBF60917F037091D7
:100E60008003809181039091820320E030E44CE183
:100E700056E40E94641E0E94671D4B015C0188E7D6
:100E8000282E81E0382E00E412E044E650E0C12C28
:100E9000D12C76018CEB9FE7A0E0B0E060916E036F
:100EA000662311F0F10101C0F80145905490612CC6
:100EB000712C481859086A087B0877FE08C070949E
:100EC000609450944094411C511C611C711C841509
:100ED0009505A605B7057CF0BA01052E000C880B18
:100EE000990B49875A870E949F1D6B017C01D30192
:100EF000C2015A8549854150510922E0220E311C18
:100F00000E5F1F4F4115510549F660910401709124
:100F100005018091830390918403A0918503B09192
:100F2000860389839A83AB83BC838090A3039090CC
:100F3000A403A090A503B090A60380910E01909108
:100F40000F01A0911001B09111018D839E83AF8399
:100F5000B88780E090E00E949D1D2B013C0120E0BD
:100F600030E048EC52E4C701B6010E94B91C9B0175
:100F7000AC01C301B2010E94641E6B017C01C5017A
:100F8000B4010E949D1D2D813E814F8158850E9494
:100F9000B91C9B01AC0169817A818B819C810E9483
:100FA000B91C9B01AC01C701B6010E94B91C6B01C1
:100FB0007C0120E030E0A9010E945F1E20E030E0CB
:100FC00040E05FE387FD05C0C701B6010E94481CF1
:100FD00004C0C701B6010E94471C0E94671D2A96E3
:100FE0000FB6F894DEBF0FBECDBFDF91CF911F913A
:100FF0000F91FF90EF90DF90CF90BF90AF909F90B8
:101000008F907F906F905F904F903F902F900895BA
:10101000CF92DF92EF92FF920F931F93CF93DF93C4
:101020006091000170910101809102019091030192
:1010300020E030E0A9010E94B41C882309F4B8C064
:1010400060917F037091800380918103909182036E
:101050002091000130910101409102015091030162
:101060000E94B41C18168CF460917F037091800369
:10107000809181039091820320E030ED44E855E4B3
:101080000E945F1E18160CF093C08AE293E00E9443
:101090009812A895F12CD0E0C0E08AE0E82EA8953F
:1010A000C0FD16C060917F03709180038091810321
:1010B0009091820320910001309101014091020141
:1010C000509103010E94B41C181614F063E001C093
:1010D00062EC88E290E00E946D0568E270E080E0DA
:1010E00090E00E94F81A8C2F6E2D0E94D11E911153
:1010F00027C080E593E00E9442126C018AE293E0EF
:101100000E9490128C018AE293E00E949412081BC4
:10111000190BC016D10608F4D1E080E593E00E94D7
:1011200042126C018AE293E00E9490128C018AE2E2
:1011300093E00E949412800F911F8C159D0598F1E9
:10114000DD2361F1FF2049F11092000110920101AD
:10115000109202011092030120E530E045E050E0DA
:1011600064E080E590E00E948C05A89520E530E0E1
:1011700045E050E063E880E590E00E948C0560E285
:1011800073E080E090E0DF91CF911F910F91FF908D
:10119000EF90DF90CF900C94F81AD1E0CF5FC0357C
:1011A00009F07DCF05C0D111CFCFFF24F394F6CF46
:1011B000DF91CF911F910F91FF90EF90DF90CF9033
:1011C0000895CF93DF93CDB7DEB7E1970FB6F894CC
:1011D000DEBF0FBECDBF0E94C71A6E8F7F8F88A360
:1011E00099A31E8A1F8A188E198E1A8A1B8A1C8A36
:1011F0001D8A19861A861B861C861D860E94C71AA0
:101200006093CF037093D0038093D1039093D20364
:101210000D850F5F0D8781E593E00E94C71180E582
:1012200093E00E944212BC018AE293E00E94AD1258
:1012300060E48AE293E00E9479120E948C040634F2
:1012400040F460E28AE293E00E947912882309F474
:1012500001C760E28AE293E00E947912882309F4D0
:10126000F7C60E94C71A6AA37BA38CA39DA381E53E
:1012700093E00E94C71161E081E593E00E94B711FD
:1012800065E081E593E00E94B41181E593E00E945E
:10129000C71112E31D8760E084E593E00E94C01649
:1012A0008823E9F180905C0390905D03A0905E0339
:1012B000B0905F03C0906003D0906103E090620340
:1012C000F090630340906403509065036090660360
:1012D00070906703209168033091690340916A031D
:1012E00050916B0329833A834B835C834091540371
:1012F0005091550360915603709157034EA35FA31D
:1013000068A779A762E070E080E090E00E94F81A98
:1013100061E084E593E00E94C016811102C00E9442
:101320000B061092A3031092A4031092A50310922F
:10133000A60310929B0310929C0310929D0310929F
:101340009E0310929F031092A0031092A10310928B
:10135000A20310929703109298031092990310928F
:101360009A03109293031092940310929503109293
:10137000960310927F0310928003109281031092C3
:1013800082031092830310928403109285031092BB
:10139000860310928B0310928C0310928D0310928F
:1013A0008E03109287031092880310928903109283
:1013B0008A0320915C0330915D0340915E0350915C
:1013C0005F03C501B4010E94481C20E030E040E00A
:1013D0005FE30E94641E6A8F7B8F8C8F9D8F2091AC
:1013E0006003309161034091620350916303C70130
:1013F000B6010E94481C6E877F87888B998B20914D
:101400006403309165034091660350916703C30103
:10141000B2010E94481C2B013C018091680390910D
:101420006903A0916A03B0916B0389809A80AB80B5
:10143000BC80880E991EAA1EBB1EC501B401A2E085
:10144000CA2ED12CE12CF12CA70196010E94FF1E7F
:1014500029833A834B835C836091580370915903CD
:1014600080915A0390915B03A70196010E94FF1E91
:1014700029873A874B875C87809054039090550367
:10148000A0905603B09057038AA69BA6ACA6BDA613
:101490008091CB039091CC03A091CD03B091CE036A
:1014A00040917303509174036091750370917603BA
:1014B000841B950BA60BB70B89809A80AB80BC80F0
:1014C000880D991DAA1DBB1D8093A3039093A403AF
:1014D000A093A503B093A603F091C303E091C403C6
:1014E000C090C503D090C603E090C703F090C80336
:1014F0000091C9031091CA03BB0C8808982C5401B1
:1015000029813A814B815C81682D782D882D982D19
:10151000AF2EBE2E0E94192020939B0330939C0374
:1015200040939D0350939E0360939F037093A00389
:101530008093A1039093A203C090BF03D090C003F7
:10154000E090C103F090C20320E030E0A9016E8575
:101550007F85888999890E945F1E20E030E040E005
:101560005FE387FD07C06E857F85888999890E9422
:10157000481C06C06E857F85888999890E94471C12
:101580000E94671DC60ED71EE81EF91EC092970363
:10159000D0929803E0929903F0929A03C090BB0313
:1015A000D090BC03E090BD03F090BE0320E030E09B
:1015B000A901C301B2010E945F1E20E030E040E0BB
:1015C0005FE387FD05C0C301B2010E94481C04C04F
:1015D000C301B2010E94471C0E94671DC60ED71EA0
:1015E000E81EF91EC0929303D0929403E0929503F3
:1015F000F092960320910601309107014091080175
:10160000509109016A8D7B8D8C8D9D8D0E94B91C36
:1016100060937F0370938003809381039093820390
:101620006091B3037091B4038091B5039091B603B8
:10163000C0907B03D0907C03E0907D03F0907E030C
:101640002E853F85488959890E94481CA70196012B
:101650000E94471C60938B0370938C0380938D03CF
:1016600090938E036091AF037091B0038091B103AA
:101670009091B203C0907703D0907803E090790303
:10168000F0907A03A30192010E94481CA7019601E1
:101690000E94471C6093870370938803809389039B
:1016A00090938A0360918B0370918C0380918D03DA
:1016B00090918E0320918703309188034091890394
:1016C00050918A030E94471C6093830370938403A4
:1016D0008093850390938603C090B703D090B8039E
:1016E000E090B903F090BA036E897F89888D998D57
:1016F00028EE33E040E050E00E94FF1EC20ED31EF1
:10170000E41EF51EC0928F03D0929003E0929103E5
:10171000F09292038091AB039091AC03A091AD0342
:10172000B091AE0389849A84AB84BC8488159905F2
:10173000AA05BB0540F48092AB039092AC03A09243
:10174000AD03B092AE0360918303709184038091E6
:1017500085039091860320916F033091700340912F
:101760007103509172030E94471C2FE832EC45EF41
:101770005CE30E945F1E181624F481E080936E03E0
:101780001BC06091830370918403809185039091C5
:10179000860320916F033091700340917103509143
:1017A00072030E94471C2FE832EC45EF5CEB0E946D
:1017B000B41C87FD10926E03809183039091840383
:1017C000A0918503B091860380936F03909370037B
:1017D000A0937103B093720369857A858B859C858C
:1017E0000E949F1D6B017C0120910A0130910B0129
:1017F00040910C0150910D010E94B91C2FE832EC70
:1018000045E15FE30E945F1E1816F4F462E081E593
:1018100093E00E9417120E94C71A0E891F89288D13
:10182000398D8E8C9F8CA8A0B9A0081919092A0996
:101830003B0948015901860E971EA81EB91E8E8AC3
:101840009F8AA88EB98E05C061E081E593E00E9471
:1018500017120E94C71A6E8F7F8F88A399A380E00A
:101860000E9454060E94C71A69877A878B879C87D3
:10187000A89560E28AE293E00E9479128823F9F049
:101880008AA09BA0ACA0BDA006E9800E911CA11C63
:10189000B11C0E94C71A86169706A806B906C8F793
:1018A00081E593E00E94C71181E593E00E94C71192
:1018B00068E572E080E090E00E94F81A02C00E94A1
:1018C000080860E88AE293E00E94791290E0FC0147
:1018D0003197EB30F10508F0A5C3EC5CFF4F0C9499
:1018E0001E1FC090A303D090A403E090A503F09026
:1018F000A60360910E0170910F01809110019091EB
:10190000110120E030E040E751E40E94B91C0E9440
:101910006E1D6C157D058E059F0508F081C36091D5
:10192000A3037091A4038091A5039091A603209135
:101930000E0130910F0140911001509111012EA71D
:101940003FA748AB59AB0E949D1D2EA53FA548A9B6
:1019500059A99CC340909B0350909C0360909D03A9
:1019600070909E0380909F039090A0033090A103FD
:101970002090A20360910E0170910F0180911001DF
:101980009091110120E030E040E751E40E94B91C41
:101990000E94301D59016A017B018C019201A30153
:1019A000B401832D922D0E942B2009F008F438C336
:1019B00040909B0350909C0360909D0370909E0309
:1019C00080909F039090A0033090A1032090A203E9
:1019D00060910E0170910F018091100190911101A1
:1019E00020E030E0A9010E945F1E87FD0FC06091DA
:1019F0000E0170910F01809110019091110120E072
:101A000030E040E05FE30E94481C0EC060910E0190
:101A100070910F01809110019091110120E030E050
:101A200040E05FE30E94471C0E94671D9B01AC01E0
:101A3000550F220B322FA9015B016C01E22EF22E11
:101A4000022F122F9201A301B401832D922D0E9427
:101A5000571FF22FE42F21E040E06F2F732F8E2FBE
:101A6000952F7BC020910A0130910B0140910C0110
:101A700050910D01C701B6010E94B91C2FE832EC4C
:101A800045E15FE30E94B41C87FF32C0609183038D
:101A900070918403809185039091860320E030E06B
:101AA00040EA50E40E945F1E18160CF0B9C2C090C4
:101AB000A303D090A403E090A503F090A603609147
:101AC0000E0170910F01809110019091110120E0A1
:101AD00030E040E751E40E94B91C0E946E1D6C1575
:101AE0007D058E059F0508F09BC20E94130733C039
:101AF0002AA53BA54CA55DA56EA17FA188A599A5AA
:101B00000E94481C6B017C0120E030E0A9010E948A
:101B10005F1E87FD25C02A8D3B8D4C8D5D8DC701D5
:101B2000B6010E94641E6B017C0120E030E0A90137
:101B30000E945F1E20E030E040E05FE387FD05C0CB
:101B4000C701B6010E94481C04C0C701B6010E942B
:101B5000471C0E94671D21E040E00E94310262C2E2
:101B600024E130E04AE050E063E084E190E00E944C
:101B70008C05A89564EF71E080E090E00E94F81A6F
:101B80002A8D3B8D4C8D5D8DC701B6010E94641E70
:101B90006B017C0120E030E0A9010E945F1E20E083
:101BA00030E040E05FE387FD05C0C701B6010E9459
:101BB000481C04C0C701B6010E94471C0E94671D53
:101BC0000E949F1D90580E946E1DC5CF6091970383
:101BD000709198038091990390919A0321E040E0DD
:101BE0000E94310260E273E080E090E00E94F81A07
:101BF00024E630E045E050E063E882E390E00E94B4
:101C00008C05A89524E630E045E050E063E082E3EF
:101C100090E00E948C0560E273E080E090E00E941A
:101C2000F81A6091930370919403809195039091B9
:101C3000960391CF60917F0370918003809181031F
:101C40009091820342E00E943703ECC160918303CC
:101C500070918403809185039091860320E030E0A9
:101C6000A9010E945F1E18160CF0DAC1609183036F
:101C700070918403809185039091860341E0E3CFC6
:101C800060918B0370918C0380918D0390918E03F2
:101C9000F5CF6091870370918803809189039091BB
:101CA0008A03ECCF1092CB031092CC031092CD0399
:101CB0001092CE031092A3031092A4031092A503D6
:101CC0001092A6031092B3031092B4031092B503BE
:101CD0001092B6031092830310928403109285032E
:101CE0001092860310926F0310927003109271038A
:101CF0001092720310928B0310928C0310928D033A
:101D000010928E031092AF031092B0031092B103A1
:101D10001092B203109287031092880310928903E5
:101D200010928A038E849F84A888B98880927B034E
:101D300090927C03A0927D03B0927E034092770341
:101D4000509278036092790370927A0389809A8026
:101D5000AB80BC808092730390927403A092750351
:101D6000B092760380E00E9454060E94F40481E061
:101D70000E9454060E94C71A69877A878B879C87BE
:101D800051C120910A0130910B0140910C015091F9
:101D90000D01C701B6010E94B91C2FE832EC45E1E4
:101DA0005FE30E945F1E18164CF420910A013091E7
:101DB0000B0140910C0150910D0166C160918303AC
:101DC00070918403809185039091860320E030E038
:101DD00040EA50E40E945F1E18160CF021C1C0902A
:101DE000A303D090A403E090A503F090A603609114
:101DF0000E0170910F01809110019091110120E06E
:101E000030E040E751E40E94B91C0E946E1D6C1541
:101E10007D058E059F0508F003C1C0908303D09017
:101E20008403E0908503F09086036091A303709192
:101E3000A4038091A5039091A60320910E013091F7
:101E40000F0140911001509111012EA73FA748ABFF
:101E500059AB0E949D1D2EA53FA548A959A90E94D6
:101E6000B91C9B01AC0110C128EC30E04AE050E005
:101E700063E084E690E00E948C05A89528EC30E0B1
:101E80004AE050E062EC84E690E00E948C0568E550
:101E900072E080E090E00E94F81A60918F037091E8
:101EA000900380919103909192030E949D1D20E0E8
:101EB00030E041E655E40E94B91C2DEC3CEC4CECC2
:101EC0005DE30E945F1E87FD36C080918F03909175
:101ED0009003A0919103B091920386319D4FA1058B
:101EE000B105A0F460918F037091900380919103EC
:101EF000909192030E949D1D20E030E041E655E460
:101F00000E94B91C41E00E94370317C060918F0303
:101F100070919003809191039091920320E13EE0B3
:101F200040E050E00E94DD1ECA01B90121E040E01E
:101F30000E94310202C00E94350660E273E080E038
:101F400090E00E94F81A24E630E045E050E063E8B3
:101F500082E390E00E948C05A89524E630E045E0FD
:101F600050E063E082E390E00E948C0560E273E061
:101F700080E090E00E94F81A809197039091980376
:101F8000A0919903B0919A034091930350919403C7
:101F900060919503709196035C016D011A012B010C
:101FA0009C01A60160E070E080E090E051016201D8
:101FB000E12CF12C00E010E00E942220AAE00E9417
:101FC000342009F00CF47FC140909B0350909C0397
:101FD00060909D0370909E0380909F039090A0035B
:101FE0003090A1032090A20360910E0170910F0127
:101FF00080911001909111019B01AC010E94481C3D
:102000000E94301D59016A017B018C019201A301DC
:10201000B401832D922D0E942B2009F0D0F553C1DD
:102020000E943506A895C090CF03D090D003E090D1
:10203000D103F090D2030E94C71A14E6C10ED11C3E
:10204000E11CF11CC616D706E806F90660F7D6C8EB
:102050001D8621C989849A84AB84BC8489288A28F6
:102060008B2809F433C10E94C71A09851A852B856C
:102070003C85045D1E4F2F4F3F4F0617170728075B
:10208000390708F444C122C1C701B6010E94B91C36
:10209000F5CD8091970390919803A0919903B09109
:1020A0009A0340919303509194036091950370912A
:1020B0009603841B950BA60BB70B8C019D0140E08A
:1020C00050E0BA0189831A832B833C834D835E835E
:1020D0006F83788790909B0380909C0370909D0302
:1020E00060909E0350909F034090A0033090A10306
:1020F0002090A20360910E0170910F018091100158
:102100009091110120E030E0A9010E945F1E87FD3F
:102110000FC060910E0170910F018091100190919C
:10212000110120E030E040E05FE30E94481C0EC057
:1021300060910E0170910F01809110019091110139
:1021400020E030E040E05FE30E94471C0E94671DF2
:102150009B01AC01550F220B322FA9015B016C01D1
:10216000E22EF22E022F122F292D382D472D562D1B
:10217000652D742D832D922D0E94571F59016A01E0
:102180007B018C0129813A814B815C8160E070E0A8
:1021900080E090E00E94261FF22FE42F21E040E033
:1021A0006F2F732F8E2F952F0E94310260E273E004
:1021B00080E090E00E94F81A24E630E045E050E02C
:1021C00063E882E390E00E948C05A89524E630E065
:1021D00045E050E063E082E390E00E948C0560E21D
:1021E00073E080E090E00E94F81A6091AB03709178
:1021F000AC038091AD039091AE0320910A01309120
:102200000B0140910C0150910D012EA73FA748AB47
:1022100059AB0E949D1D2EA53FA548A959A90E9412
:10222000B91C2FE832EC45E15FE30E945F1E1816EF
:1022300004F56091AB037091AC038091AD03909174
:10224000AE0320910A0130910B0140910C01509195
:102250000D012EA73FA748AB59AB0E949D1D2EA58F
:102260003FA548A959A90E94B91C41E00E94370323
:1022700002C00E94350660E273E080E090E00E94B8
:10228000F81A24E630E045E050E063E882E390E0AD
:102290000E948C05A89524E630E045E050E063E01C
:1022A00082E390E00E948C0560E273E080E090E0C1
:1022B0000E94F81A6091A7037091A8038091A90366
:1022C0009091AA0348CC0E94350670CF8A889B88DB
:1022D000AC88BD8889288A288B2809F4A3CE0E945F
:1022E000C71A0A891B892C893D890455124F2F4F23
:1022F0003F4F061717072807390708F093CE82E0EB
:102300000E9454061A8A1B8A1C8A1D8A8BCE81E081
:102310000E9454060E94C71A6A8B7B8B8C8B9D8B04
:1023200019861A861B861C867DCE84E593E00E9462
:10233000BE1481E593E00E94AD1180E593E00E9418
:102340003B128AE293E00E94531286E293E00E94DD
:10235000BA1382E293E00C94A913FC0185E0808318
:1023600081E0828311820895FC0160830895FC015D
:10237000618308958EEF90E0861B91099093890008
:102380008093880090938B0080938A000895FC01CD
:1023900090818EEF890F843090F480918100887F46
:1023A0008093810080918000816080938000809183
:1023B00080008D7F809380008091810022C0809179
:1023C0008100887F8093810080918000923C71F42D
:1023D0008160809380008091800082608093800083
:1023E000809181008260809381000EC08260809322
:1023F0008000809180008E7F80938000809181009A
:102400009770982B909381008181882341F082817D
:1024100081FD219A828180FF04C0229A02C0219806
:1024200022988181882311F0815081830895FC01D5
:1024300062830895219822988FEF9FEF90938700F1
:1024400080938600E0E8F0E0F0938900E093880054
:10245000F0938B00E0938A008081806A8083808182
:1024600081608083E1E8F0E0808188608083808102
:102470008460808308950895FC01862F608360E066
:102480000C94981B20E63AEE40E050E061E0FC013D
:1024900080810E94041C6115710511F0CB01089523
:1024A00081E090E00895FC0188E795E092838183C4
:1024B00080E590E0948383838CED90E09683858320
:1024C00088EB91E09087878388E090E0928781870E
:1024D00089E190E09487838781E090E09687858703
:1024E00088EC90E0908B878788EB9BE0928B818BC8
:1024F0000895FC01603281F020F4603179F484A108
:102500000895603429F0603849F493A113A202C001
:1025100094A114A2892F089583A1089580E00895BD
:10252000FC01818192810895FC0187819085089545
:10253000FC01148A138A168A158A108E178A128E45
:10254000118E148E138E168E158E10A2178E12A257
:1025500011A213A214A215A20895CF93DF93FC0138
:10256000878590896817790708F4F0C08189928976
:102570008617970708F4EAC0818192812581368108
:10258000AC01421B530B6417750750F420812111D5
:102590000FC02789308D2F5F3F4F308F278B2EC084
:1025A000280F391F2617370750F420812111F1CF4A
:1025B000218D328D2F5F3F4F328F218F1FC023819E
:1025C0003481A901480F591F64177507B8F4AC018D
:1025D000421B530B4617570788F4238D348D2F5F0A
:1025E0003F4F348F238F108E178A128E118E168EC6
:1025F000158E10A2178E15A212A211A22781308566
:10260000AC01421B530B6417750748F4808181119C
:102610000EC0858D968D0196968F858F12C0820F84
:10262000931F8617970768F480818111F2CF878DF9
:1026300090A1019690A3878F81A192A1019692A368
:1026400081A32789308D858596858217930750F45D
:10265000438D548D452B31F0838994890196948B59
:10266000838B0EC0418D528D8417950760F4838D46
:10267000948D892B41F0858996890196968B858B5F
:1026800084A3148E138E83899489892B21F08589E4
:102690009689892B31F4232B81F0818D928D892BA2
:1026A00061F0148A138A168A158A85E084A3108E35
:1026B000178A128E118E148E138E238D348D818580
:1026C00092858217930768F4838983A38589968905
:1026D000009711F08C5F83A3148A138A168A158AD7
:1026E00035C083859485258D368D8217930728F410
:1026F00025A1211102C089E009C0278D30A18217D0
:10270000930760F485A1811109C08AE083A3148A2C
:10271000138A168A158A81E085A318C081A192A127
:10272000853B910528F012A211A28BE083A30EC075
:1027300083899489059720F485899689059730F0D7
:10274000EF01CF010E9498128CE08CA3DF91CF9112
:102750000895FC0111821082138212820895FC01F7
:10276000738362830895DC01ED91FC910190F08107
:10277000E02D0994FC011082128211828FEF838375
:102780000895CF93DF93EC01688383ED93E00E947B
:102790006318688183ED93E00E94721883ED93E0E3
:1027A0000E948F18811106C081E09B81992319F046
:1027B00080E001C081E0DF91CF910895FC01728338
:1027C00061830895CF92DF92EF92FF920F931F9350
:1027D000CF93DF938C01F62EC72EE42EFC0160818F
:1027E00083ED93E00E947218F8016181728183ED9C
:1027F00093E00E94B313DF2CCF2DDC2D8C2F8D198D
:102800008E1560F4699183ED93E00E941218F8012F
:1028100081819281019692838183F0CF83ED93E051
:102820000E948F1891E0811101C090E0892FDF9103
:10283000CF911F910F91FF90EF90DF90CF9008956F
:10284000CF93DF9300D000D0CDB7DEB749835A8352
:102850006B837C8344E0BE016F5F7F4F0E94E21375
:102860000F900F900F900F90DF91CF9108950C94DF
:102870002014AF92BF92DF92EF92FF920F931F93BB
:10288000CF93DF93CDB7DEB728970FB6F894DEBFAE
:102890000FBECDBF5C01E02FD22EE32EF42EB52F5C
:1028A000A62FF72F0983202F312F4D2D5E2D6F2D51
:1028B0007B2F8A2F9F2F08E00E94FD1F2A832E2F37
:1028C000312F4D2D5E2D6F2D7B2F8A2F9F2F00E1F5
:1028D0000E94FD1F2B832E2F312F4D2D5E2D6F2D2E
:1028E0007B2F8A2F9F2F08E10E94FD1F2C832E2F04
:1028F000312F4D2D5E2D6F2D7B2F8A2F9F2F00E2C4
:102900000E94FD1F2D832E2F312F4D2D5E2D6F2DFB
:102910007B2F8A2F9F2F08E20E94FD1F2E832E2FD0
:10292000312F4D2D5E2D6F2D7B2F8A2F9F2F00E392
:102930000E94FD1F2F832E2F312F4D2D5E2D6F2DC9
:102940007B2F8A2F9F2F08E30E94FD1F288748E0D6
:10295000BE016F5F7F4FC5010E94E21328960FB63C
:10296000F894DEBF0FBECDBFDF91CF911F910F91C5
:10297000FF90EF90DF90BF90AF900895FC01118E13
:10298000108E0895EF92FF920F931F93CF93DF93D2
:102990008B017901460F571FFA013397C081D0E0B0
:1029A000DC2FCC2731968081C80FD11DFB014181DE
:1029B00050E06E5F7F4FC9010E947E20F801618167
:1029C00070E0C7010E946E1721E08C179D0709F087
:1029D00020E0822FDF91CF911F910F91FF90EF9018
:1029E00008952F923F924F925F926F927F928F92B3
:1029F0009F92AF92BF92CF92DF92EF92FF920F938E
:102A00001F93CF93DF93CDB7DEB7C150D1400FB640
:102A1000F894DEBF0FBECDBF5C013B010E94C71A18
:102A20001B012C0124E6220E311C411C511CCF5FDE
:102A3000DE4F1882C150D140F12CE12CC12CDD2495
:102A4000D39400E010E00E94C71A62157305840554
:102A5000950508F052C0E11052C088248394912C4F
:102A60008C0E9D1E800E911ED50158968D919C91C5
:102A70005997DC01ED91FC910480F581E02D0995D9
:102A8000892B09F30F5F1F4FD50158968D919C91AB
:102A90005997DC01ED91FC910680F781E02D0995B5
:102AA000F40181934F010230110581F49981923034
:102AB00091F42A8130E06901F5E0CF0ED11CCF5F9F
:102AC000DE4F2883C150D140F32E05C0011521E00F
:102AD000120708F0B8CF0C151D0531F6833059F4F4
:102AE000E1E0F0E0EC0FFD1FE00FF11F1082680144
:102AF000EE24E394A8CF6801B7CFEE2051F0930104
:102B0000A601BE016F5F7F4FC5010E94C2148111F3
:102B100003C080E090E006C0CF5FDE4F8881C150E7
:102B2000D1409F2DCF5FDE4F0FB6F894DEBF0FBEB2
:102B3000CDBFDF91CF911F910F91FF90EF90DF906C
:102B4000CF90BF90AF909F908F907F906F905F904D
:102B50004F903F902F9008958F929F92AF92BF9287
:102B6000CF92DF92EF92FF920F931F93CF93DF9359
:102B7000CDB7DEB7DA950FB6F894DEBF0FBECDBF86
:102B80006C015B018A01BA01C5010E946E17982E83
:102B9000892E013081E018073CF482E089830A83A2
:102BA00092E0E92EF12C07C083E089831A830B831E
:102BB00083E0E82EF12CA801B50181E090E08C0FB4
:102BC0009D1F8E0D9F1D0E947E200E0D1F1DE1E09A
:102BD000F0E0EC0FFD1FE00FF11F8082FE01E00F1F
:102BE000F11F92827801A3E0EA0EF11CFE01E00FD2
:102BF000F11F83E08383E1E0F0E0EC0FFD1FEE0DB9
:102C0000FF1D1082F601808D918DDC01ED91FC910C
:102C10000280F381E02DA701BE016F5F7F4F099510
:102C2000C701D3950FB6F894DEBF0FBECDBFDF91BD
:102C3000CF911F910F91FF90EF90DF90CF90BF90B9
:102C4000AF909F908F900895EF92FF920F931F93F4
:102C5000CF93DF9300D000D0CDB7DEB7FB0120814A
:102C6000243009F081C07C018B010F5F1F4F88E089
:102C700090E0A0E0B0E089839A83AB83BC839E019F
:102C80002F5F3F4F40E050E068EC72E4C8010E94C3
:102C90005A17F701608371838283938389819A81B4
:102CA000AB81BC810A96A11DB11D89839A83AB8338
:102CB000BC83BE016F5F7F4FC8010E941317F701ED
:102CC00064837583868397839E012F5F3F4F40E027
:102CD00050E060E271E4C8010E944217F70160878A
:102CE00071878287938789819A81AB81BC8108969D
:102CF000A11DB11D89839A83AB83BC839E012F5F85
:102D00003F4F40E050E46CE176E4C8010E945A175E
:102D1000F70164877587868797879E012F5F3F4FEE
:102D200040E050E46CE176E4C8010E945A17F701D4
:102D3000608B718B828B938B89819A81AB81BC81F3
:102D40000496A11DB11D89839A83AB83BC83BE0108
:102D50006F5F7F4FC8010E941317F701648B758B5B
:102D6000868B978B81E001C080E00F900F900F90D1
:102D70000F90DF91CF911F910F91FF90EF900895E9
:102D80000F931F93CF93DF93CDB7DEB7DA950FB6CE
:102D9000F894DEBF0FBECDBF8C01611105C084E089
:102DA000898341E050E007C082E289836A8384E03E
:102DB0008B8343E050E0BE016F5F7F4FC8010E94EC
:102DC000AC15BE016F5F7F4FC8010E94F114C89718
:102DD0003CF0BE016F5F7F4FC8010E94241601C006
:102DE00080E0D3950FB6F894DEBF0FBECDBFDF9164
:102DF000CF911F910F910895DB014D915D916D91E0
:102E00007C911397FC01E40FF51F8181208190E0F4
:102E10004E5F5F4F6F4F7F4F4D935D936D937C93EC
:102E20001397922B0895CF92DF92EF92FF920F9318
:102E30001F93FB010081118122813381DC01A00FEE
:102E4000B11F13966C9113974C91C62ED12CE12C87
:102E5000F12CF42A11964C911197E42A12964C9178
:102E6000C701B601742B0C5F1F4F2F4F3F4F0083DC
:102E70001183228333831F910F91FF90EF90DF9096
:102E8000CF900895CF92DF92EF92FF926A017B017B
:102E9000B9010E94FC16BC01990F880B990B0E9486
:102EA0009F1DA70196010E94B91CFF90EF90DF9033
:102EB000CF900895CF92DF92EF92FF926A017B014B
:102EC000B9010E9413170E949F1DA70196010E943D
:102ED000B91CFF90EF90DF90CF900895DC01680F50
:102EE000791F80E090E0A617B70779F02D91E92FC0
:102EF000FF27E227EE0FFF1FEE5EFE4F208131819C
:102F0000982F882782279327EECF08958091070472
:102F100090E020910804821B910908959091080483
:102F200080910704981750F4E92FF0E0E75FFB4F1A
:102F3000208130E09F5F9093080402C02FEF3FEFA5
:102F4000C9010895E091080480910704E81730F45E
:102F5000F0E0E75FFB4F808190E008958FEF9FEFF7
:102F600008950895AC01E091DF03F091E0033097FC
:102F7000E1F090910804809107049817B0F090E078
:102F8000292F30E02617370754F4DA01A20FB31FB8
:102F90008C91D901A75FBB4F8C939F5FF1CF1092AB
:102FA000080460930704CB0109940895E091E103BC
:102FB000F091E203309729F01092E5031092E403B8
:102FC00009940895CF92DF92EF92FF920F931F938F
:102FD000CF93DF937C01262F972F8A018091E30303
:102FE000882391F0C62FD72F6E01C40ED51ECC15A5
:102FF000DD0571F06991D701ED91FC910190F081AF
:10300000E02DC7010995F3CF642F822F0E940E197E
:10301000C801DF91CF911F910F91FF90EF90DF904A
:10302000CF900895CF93DF931F92CDB7DEB769831A
:103030002091E3032223D1F02091E403203240F0D9
:1030400021E030E0FC013383228380E090E015C072
:103050008091E503E82FF0E0EA51FC4F99819083DD
:103060008F5F8093E5038093E40305C061E0CE01A8
:1030700001960E940E1981E090E00F90DF91CF91B0
:103080000895FC011382128288EE93E0A0E0B0E084
:1030900084839583A683B78386E193E091838083BD
:1030A000089510920804109207041092E5031092FC
:1030B000E4030E94961886ED97E10E943B1982EB8B
:1030C00097E10C943619CF93DF931F92CDB7DEB7FB
:1030D00069830E9451186981862F0F90DF91CF91EB
:1030E0000C94B41881E08093E3036093060410927B
:1030F000E5031092E40308950F93062F21E0409119
:10310000E40366EE73E0809106040E94B818109202
:10311000E5031092E4031092E3030F91089561E038
:103120000C947C1883ED93E00C9441181092960453
:1031300081E0809394041092930461E082E10E9404
:10314000D41B61E083E10E94D41BE9EBF0E08081B5
:103150008E7F808380818D7F808388E48093B80018
:1031600085E48093BC000895880F8093BA00089589
:103170000F93413208F04AC0909196049111FCCF10
:1031800032E030939604009394043FEF3093290487
:1031900010926E0440936D04FB016FE674E0DB0156
:1031A0003A2F361B341718F431913D93F9CF109212
:1031B000950430919504880F832B8093950480911A
:1031C0009304813061F4109293048091950480936C
:1031D000BB008091BC0083FDF8CF85EC01C085EE7B
:1031E0008093BC00222321F0809196048230D1F399
:1031F000809129048F3F79F080912904803241F039
:1032000080912904803331F094E005C091E003C03F
:1032100092E001C093E0892F0F91089540914B04F3
:10322000262F30E0240F311D21323105DCF42091AE
:1032300096042430C9F4FC0180E090E0861758F42D
:1032400030914B042191DC01A35BBB4FA30FB11D57
:103250002C930196F3CF80914B04680F60934B043D
:1032600080E0089581E0089582E0089590939004AD
:1032700080938F040895909392048093910408950D
:1032800085ED8093BC008091BC0084FDFCCF109242
:103290009604089585EC8093BC00109296040895DE
:1032A0001F920F920FB60F9211242F933F934F93BB
:1032B0005F936F937F938F939F93AF93BF93EF939E
:1032C000FF938091B900887F803609F49EC078F51D
:1032D000883209F45DC090F4803109F456C038F4A6
:1032E000882309F4F5C0883009F44FC0F5C088314F
:1032F00009F44EC0803209F45FC0EEC0803409F496
:103300006AC058F4803309F457C0883309F0E4C028
:10331000809329040E944A19DFC0803509F44FC008
:10332000883509F45DC0883409F0D6C0D3C0883927
:1033300009F4C4C0A8F4883709F467C038F48836A3
:1033400009F463C0803709F460C0C6C0883809F446
:10335000B5C0803909F45FC0803809F0BDC05BC0DA
:10336000803B09F483C038F4803A09F466C0883A97
:1033700009F47CC0B1C0803C09F4A4C0883C09F4C5
:10338000A1C0883B09F487C0A7C08091950410C0F4
:1033900090916E0480916D04981770F5E0916E0421
:1033A00081E08E0F80936E04F0E0E159FB4F808145
:1033B0008093BB0085EC83C0809329048BC0E0918F
:1033C0006E0481E08E0F80936E048091BB00F0E06C
:1033D000E159FB4F808390916E0480916D046BC026
:1033E000E0916E0481E08E0F80936E048091BB00AB
:1033F000F0E0E159FB4F80838091940481116AC011
:1034000081E08093930484EA5EC083E08093960415
:1034100010922A04CFCF80912A04803208F04EC047
:10342000E0912A0481E08E0F80932A048091BB00F2
:10343000F0E0E55DFB4F8083BDCF0E944A1980918B
:103440002A04803230F4E0912A04F0E0E55DFB4F7D
:10345000108260912A0470E0E0918F04F091900452
:103460008BE294E0099510922A0436C084E08093A0
:10347000960410924C0410924B04E0919104F09148
:103480009204099580914B04811105C081E08093DD
:103490004B0410924D04E0914C0481E08E0F809318
:1034A0004C04F0E0E35BFB4F80818093BB00909184
:1034B0004C0480914B04981708F47CCF85E88093E6
:1034C000BC000AC085EC8093BC001092960404C036
:1034D000109229040E944019FF91EF91BF91AF9182
:1034E0009F918F917F916F915F914F913F912F911C
:1034F0000F900FBE0F901F9018951F920F920FB64E
:103500000F9211242F933F938F939F93AF93BF9369
:103510008091980490919904A0919A04B0919B0491
:103520003091970423E0230F2D3720F40196A11D3D
:10353000B11D05C026E8230F0296A11DB11D2093E1
:1035400097048093980490939904A0939A04B0935D
:103550009B0480919C0490919D04A0919E04B09145
:103560009F040196A11DB11D80939C0490939D041E
:10357000A0939E04B0939F04BF91AF919F918F91B0
:103580003F912F910F900FBE0F901F9018952FB75E
:10359000F894609198047091990480919A049091A4
:1035A0009B042FBF08953FB7F89480919C0490919D
:1035B0009D04A0919E04B0919F0426B5A89B05C0D0
:1035C0002F3F19F00196A11DB11D3FBFBA2FA92FA2
:1035D000982F8827820F911DA11DB11DBC01CD011F
:1035E00042E0660F771F881F991F4A95D1F708950B
:1035F0008F929F92AF92BF92CF92DF92EF92FF9203
:103600006B017C010E94D31A4B015C01C114D104EF
:10361000E104F10401F10E94461C0E94D31ADC016E
:10362000CB0188199909AA09BB09883E9340A105D5
:10363000B10560F321E0C21AD108E108F10888EE73
:10364000880E83E0981EA11CB11CC114D104E104B2
:10365000F10419F7DBCFFF90EF90DF90CF90BF9090
:10366000AF909F908F900895789484B5826084BDC8
:1036700084B5816084BD85B5826085BD85B5816076
:1036800085BDEEE6F0E0808181608083E1E8F0E0D6
:103690001082808182608083808181608083E0E805
:1036A000F0E0808181608083E1EBF0E080818460E4
:1036B0008083E0EBF0E0808181608083EAE7F0E0E6
:1036C000808184608083808182608083808181604A
:1036D00080838081806880831092C1000895843047
:1036E00081F028F4823099F08330A1F00895883079
:1036F000A9F08930B9F08530D1F4809180008F7DB8
:1037000003C0809180008F7780938000089584B5F6
:103710008F7702C084B58F7D84BD08958091B000FD
:103720008F7703C08091B0008F7D8093B0000895A3
:10373000CF93DF9390E0FC01E15EFC4F2491FC010C
:10374000EA5CFC4F8491882361F190E0880F991F17
:10375000FC01EF59FC4FC591D491FC01E95AFC4F93
:10376000A591B491611109C09FB7F8948881209503
:1037700082238883EC912E230BC0623061F49FB7C3
:10378000F8943881822F809583238883EC912E2BA7
:103790002C939FBF06C08FB7F894E8812E2B288307
:1037A0008FBFDF91CF9108951F93CF93DF93282F81
:1037B00030E0F901E85FFC4F8491F901E15EFC4FD4
:1037C000D491F901EA5CFC4FC491CC23C9F0162FC7
:1037D00081110E946F1BEC2FF0E0EE0FFF1FE95AE2
:1037E000FC4FA591B4918FB7F894111105C09C912D
:1037F000ED2FE095E92302C0EC91ED2BEC938FBF08
:10380000DF91CF911F9108950F931F9390E0FC01DA
:10381000E15EFC4F7491FC01EA5CFC4FE49166238D
:1038200011F0672F01C060E0F0E0EE0FFF1FE35BD7
:10383000FC4F8591949189019A013F70462F672F23
:103840000E94E201611571058105910549F0DC01D5
:10385000CB010196A11DB11DBC01CD019F7003C01C
:1038600060E070E0CB011F910F91089508950E94D0
:10387000341B0E94361C0E94E106C0E0D0E00E948A
:10388000E1082097E1F30E940000F9CF0895505815
:10389000BB27AA270E945F1C0C94251E0E94171E9E
:1038A00038F00E941E1E20F039F49F3F19F426F4D0
:1038B0000C94041E0EF4E095E7FB0C94FE1DE92F1A
:1038C0000E94361E58F3BA176207730784079507DC
:1038D00020F079F4A6F50C94581E0EF4E0950B2E0A
:1038E000BA2FA02D0B01B90190010C01CA01A00152
:1038F0001124FF27591B99F0593F50F4503E68F1AD
:103900001A16F040A22F232F342F4427585FF3CFED
:10391000469537952795A795F0405395C9F77EF4BE
:103920001F16BA0B620B730B840BBAF09150A1F007
:10393000FF0FBB1F661F771F881FC2F70EC0BA0F8D
:10394000621F731F841F48F4879577956795B79515
:10395000F7959E3F08F0B0CF9395880F08F0992710
:10396000EE0F9795879508950E94DA1D08F481E07F
:1039700008950E94CD1C0C94251E0E941E1E58F016
:103980000E94171E40F029F45F3F29F00C94FE1DA1
:1039900051110C94591E0C94041E0E94361E68F39B
:1039A0009923B1F3552391F3951B550BBB27AA27F8
:1039B00062177307840738F09F5F5F4F220F331F32
:1039C000441FAA1FA9F335D00E2E3AF0E0E832D0FA
:1039D00091505040E695001CCAF72BD0FE2F29D0FD
:1039E000660F771F881FBB1F261737074807AB07CF
:1039F000B0E809F0BB0B802DBF01FF2793585F4F44
:103A00003AF09E3F510578F00C94FE1D0C94591E1F
:103A10005F3FE4F3983ED4F3869577956795B79525
:103A2000F7959F5FC9F7880F911D9695879597F930
:103A30000895E1E0660F771F881FBB1F62177307A9
:103A40008407BA0720F0621B730B840BBA0BEE1FBE
:103A500088F7E0950895BEE304D008F490E808954F
:103A6000BFE322273327A9010E943E1E60F19F5722
:103A700048F1B91740F1BFE3B91B9927B8503AF4A0
:103A8000660F771F881F991FB395D2F316C0B850E1
:103A90004AF0232F342F452F562F672F782F882752
:103AA000B850BAF7B85F49F08695779567955795FE
:103AB000479537952795BA95B9F716F40E94071ED2
:103AC00088940895889460E070E0CB0108950E9486
:103AD0006E1D6894B1110C94591E08950E943E1EEB
:103AE00088F09F5798F0B92F9927B751B0F0E1F0BF
:103AF000660F771F881F991F1AF0BA95C9F714C06F
:103B0000B13091F00E94581EB1E008950C94581EF7
:103B1000672F782F8827B85F39F0B93FCCF38695A7
:103B200077956795B395D9F73EF490958095709504
:103B300061957F4F8F4F9F4F0895E89409C097FB81
:103B40003EF490958095709561957F4F8F4F9F4F74
:103B50009923A9F0F92F96E9BB279395F6958795B8
:103B600077956795B795F111F8CFFAF4BB0F11F47B
:103B700060FF1BC06F5F7F4F8F4F9F4F16C0882322
:103B800011F096E911C0772321F09EE8872F762F58
:103B900005C0662371F096E8862F70E060E02AF099
:103BA0009A95660F771F881FDAF7880F9695879585
:103BB00097F90895990F0008550FAA0BE0E8FEEF5A
:103BC00016161706E807F907C0F012161306E407E1
:103BD000F50798F0621B730B840B950B39F40A26DA
:103BE00061F0232B242B252B21F408950A2609F4B8
:103BF000A140A6958FEF811D811D089597F99F67BC
:103C000080E870E060E008959FEF80EC0895909563
:103C100080957095609550954095309521953F4FD2
:103C20004F4F5F4F6F4F7F4F8F4F9F4F089500242F
:103C30000A941616170618060906089500240A9411
:103C400012161306140605060895092E0394000C97
:103C500011F4882352F0BB0F40F4BF2B11F460FF26
:103C600004C06F5F7F4F8F4F9F4F089557FD90584F
:103C7000440F551F59F05F3F71F04795880F97FB30
:103C8000991F61F09F3F79F08795089512161306EA
:103C90001406551FF2CF4695F1DF08C01616170619
:103CA0001806991FF1CF869571056105089408954E
:103CB000E894BB2766277727CB0197F908950E94E0
:103CC000DA1D08F48FEF08950E94771E0C94251ECC
:103CD0000E94171E38F00E941E1E20F0952311F03E
:103CE0000C94FE1D0C94041E11240C94591E0E9469
:103CF000361E70F3959FC1F3950F50E0551F629FDC
:103D0000F001729FBB27F00DB11D639FAA27F00D34
:103D1000B11DAA1F649F6627B00DA11D661F829F5B
:103D20002227B00DA11D621F739FB00DA11D621F40
:103D3000839FA00D611D221F749F3327A00D611D5D
:103D4000231F849F600D211D822F762F6A2F11243F
:103D50009F5750409AF0F1F088234AF0EE0FFF1F72
:103D6000BB1F661F771F881F91505040A9F79E3FC9
:103D7000510580F00C94FE1D0C94591E5F3FE4F336
:103D8000983ED4F3869577956795B795F795E7951F
:103D90009F5FC1F7FE2B880F911D9695879597F928
:103DA0000895991B79E004C0991F961708F0961B97
:103DB000881F7A95C9F780950895A1E21A2EAA1B4B
:103DC000BB1BFD010DC0AA1FBB1FEE1FFF1FA217CB
:103DD000B307E407F50720F0A21BB30BE40BF50BC8
:103DE000661F771F881F991F1A9469F76095709551
:103DF000809590959B01AC01BD01CF010895052EE2
:103E000097FB1EF400940E94161F57FD07D00E94D6
:103E1000DD1E07FC03D04EF40C94161F5095409500
:103E2000309521953F4F4F4F5F4F08959095809566
:103E3000709561957F4F8F4F9F4F0895EE0FFF1F35
:103E40000590F491E02D0994689401C0E894F92F4D
:103E5000F12B12F00C94581FA0E0B0E0E2E3FFE178
:103E60000C94CA1F092E059422F40E94B41F11233A
:103E700092F4F0E80F26FFEFE094F094009510958F
:103E8000B094C094D094A194BF0ACF0ADF0AEF0A7D
:103E9000FF0A0F0B1F0B0E94631F07FC0E94B41F39
:103EA000CDB7DEB7ECE00C94E61F689401C0E8944F
:103EB0008F929F92CF93DF930E94631FDF91CF91E8
:103EC0009F908F90089588249924F401E401B0E430
:103ED0009F93AA279A158B049C04ED05FE05CF0538
:103EE000D007A10798F4AD2FDC2FCF2FFE2FE92D9F
:103EF000982C892E982F872F762F652F542F432F9C
:103F0000322F2227B85031F7BF9127C01B2EBF9107
:103F1000BB27220F331F441F551F661F771F881FA3
:103F2000991F881C991CEE1FFF1FCC1FDD1FAA1FA5
:103F3000BB1F8A149B04EC05FD05CE05DF05A00719
:103F4000B10748F08A189B08EC09FD09CE09DF0982
:103F5000A00BB10B21601A94E1F62EF49401AF018D
:103F6000BE01CD01000C08956095709580959095E7
:103F700030954095509521953F4F4F4F5F4F6F4F74
:103F80007F4F8F4F9F4F08952F923F924F925F9296
:103F90006F927F928F929F92AF92BF92CF92DF9259
:103FA000EF92FF920F931F93CF93DF93CDB7DEB7BE
:103FB000CA1BDB0B0FB6F894DEBF0FBECDBF099452
:103FC0002A88398848885F846E847D848C849B84A9
:103FD000AA84B984C884DF80EE80FD800C811B81B7
:103FE000AA81B981CE0FD11D0FB6F894DEBF0FBEE6
:103FF000CDBFED01089597FB10F8169400080F93BC
:10400000083098F00850232F342F452F562F672F54
:10401000782F892F902DF4CF0594979587957795D4
:10402000679557954795379527950A95AAF70F9164
:1040300008952A0D3B1D4C1D5D1D6E1D7F1D801FAB
:10404000911F08952A193B094C095D096E097F09E2
:10405000800B910B08952A153B054C055D056E05F7
:104060007F058007910708950024A7FD00942A1773
:1040700030054005500560057005800590050895E0
:10408000EF920F931F93CF93DF93E80147FD02C098
:1040900034E001C034E1E42F440FFF0BF7FF03C00D
:1040A000F195E195F109E32E022F2E2FAE010E942A
:1040B0008F20CE01DF91CF911F910F91EF90089546
:1040C000FC0188279927E89421912032E9F32930CF
:1040D00010F02E30C8F32B3241F02D3239F46894B1
:1040E00004C00E948720820F911D219120532A3005
:1040F000C0F31EF4909581959F4F0895FB01DC015C
:1041000002C001900D9241505040D8F708957AE0D6
:10411000979F902D879F802D910D112408954F9288
:104120005F926F927F929F92AF92BF92CF92DF92F7
:10413000EF92FF920F931F93CF93DF93CDB7DEB72C
:1041400029970FB6F894DEBF0FBECDBF6A01122FBC
:10415000B02E2BE3201720F0FF24F394F00E02C0C2
:10416000BCE3FB2E0F2D27E0AE014F5F5F4F0E9497
:104170001D22AC018981982F9970913031F0E1FCBA
:1041800006C0E0FE06C090E205C09DE203C09BE2CF
:1041900001C090E0EE2DE07183FF3CC0911102C0A0
:1041A00083E001C084E0811718F4212F281B01C08F
:1041B00020E0E1110BC0F601822F30E2882319F0D4
:1041C00031938150FBCFC20ED11C20E0992329F0FE
:1041D000D6019C93F60131966F01C6010396E2FE6B
:1041E0000AC03EE4D6013C9341E411964C931197EA
:1041F00012963C9306C03EE6F601308341E64183C9
:104200003283FC01322F40E2332309F442C0419350
:104210003150FACF82FF44C0911102C083E001C047
:1042200084E0811718F4212F281B01C020E0E11140
:104230000BC0F601822F30E2882319F031938150B0
:10424000FBCFC20ED11C20E0992329F0D6019C930C
:10425000F60131966F01C6010396E2FE0BC039E408
:10426000D6013C933EE411963C93119736E41296A6
:104270003C9307C039E6F60130833EE6318336E6EB
:104280003283FC01322F40E2332319F04193315045
:10429000FBCFFC01E20FF11D10828EEF9FEFB7C044
:1042A000F1E0911101C0F0E06F2F70E014161506D7
:1042B00024F49A012F5F3F4F02C021E030E0260F27
:1042C000371FBB2029F06B2D70E06F5F7F4F02C05E
:1042D00060E070E0260F371F612F70E02617370768
:1042E0001CF4121B212F01C020E03E2D387159F41F
:1042F000D601322F60E2332319F06D933150FBCF9A
:10430000C20ED11C20E0FF2331F0D6019C93B601F0
:104310006F5F7F4F6B01E1110BC0F601922F30E30D
:10432000992319F031939150FBCFC20ED11C20E09C
:104330009F2D940F3A81782F7071A72E84FF03C0B0
:10434000313309F49150191624F4993018F098E09B
:1043500001C091E0E42F852F57FF02C0E0E080E02C
:104360006E2F782FE0E0F0E0AEE29A2E3A01691A63
:1043700071082A01461A570A0B2D10E01195019574
:1043800011096F3F8FEF780729F4D6019C92C6017F
:1043900001966C014617570784F0661677066CF491
:1043A0007F01E40CF51CA1E0B0E0AC0FBD1FEA0EEC
:1043B000FB1ED7011196BC9002C090E3B92E61504C
:1043C00071093196C60101967C016017710724F0CE
:1043D000D601BC926C01D5CF6417750741F4363312
:1043E00020F4353321F4A11002C081E3B82EF60188
:1043F000B082F701822F90E2882319F091938150C7
:10440000FBCFF701E20FF11D108280E090E02996CA
:104410000FB6F894DEBF0FBECDBFDF91CF911F91D5
:104420000F91FF90EF90DF90CF90BF90AF909F9053
:104430007F906F905F904F900895283008F027E0AC
:104440003327DA01990F311D87FD916000966105D0
:10445000710539F432602E5F3D9330E32A95E1F720
:1044600008959F3F30F080387105610509F03C5F89
:104470003C5F3D93913008F08068911DDF93CF93AE
:104480001F930F93FF92EF92192F987F9695E92F24
:1044900096959695E90FFF27E852FF4F9927332706
:1044A000EE24FF24A701E70105900894079428F45F
:1044B000360FE71EF81E491F511D660F771F881F14
:1044C000991F0694A1F70590079428F4E70EF81EAB
:1044D000491F561FC11D770F881F991F661F06941D
:1044E000A1F70590079428F4F80E491F561FC71F1F
:1044F000D11D880F991F661F771F0694A1F705909D
:10450000079420F4490F561FC71FD81F990F661F25
:10451000771F881F0694A9F784911095177041F0B2
:10452000D695C79557954795F794E7941A95C1F78F
:10453000EEE7F0E0689415901591359165919591AD
:1045400005907FE27395E118F10A430B560BC90BF6
:10455000D009C0F7E10CF11E431F561FC91FD01D23
:104560007EF4703311F48A95E6CFE894015030F070
:10457000080F0AF40027021708F4202F2395022FB2
:104580007A3328F079E37D932A95E9F710C07D937B
:104590002A9589F6069497956795379517951794F8
:1045A000E118F10A430B560BC90BD00998F023957B
:1045B0007E9173957A3308F070E37C932013B8F7FB
:1045C0007E9170617D9330F0839571E37D9370E30C
:1045D0002A95E1F71124EF90FF900F911F91CF9151
:0E45E000DF91992787FD90950895F894FFCFFD
:1045EE000000803F01000000803F0000803F00007F
:1045FE00803F00002110422063308440A550C660E9
:10460E00E770088129914AA16BB18CC1ADD1CEE181
:10461E00EFF13112100273325222B5529442F772F8
:10462E00D662399318837BB35AA3BDD39CC3FFF3D1
:10463E00DEE36224433420040114E664C774A44408
:10464E0085546AA54BB528850995EEE5CFF5ACC521
:10465E008DD55336722611163006D776F6669556D8
:10466E00B4465BB77AA719973887DFF7FEE79DD771
:10467E00BCC7C448E5588668A77840086118022868
:10468E002338CCC9EDD98EE9AFF9488969990AA9C1
:10469E002BB9F55AD44AB77A966A711A500A333A38
:1046AE00122AFDDBDCCBBFFB9EEB799B588B3BBB11
:1046BE001AABA66C877CE44CC55C222C033C600CC8
:1046CE00411CAEED8FFDECCDCDDD2AAD0BBD688D61
:1046DE00499D977EB66ED55EF44E133E322E511E18
:1046EE00700E9FFFBEEFDDDFFCCF1BBF3AAF599FB1
:1046FE00788F8891A981CAB1EBA10CD12DC14EF151
:10470E006FE18010A100C230E320045025404670B6
:10471E006760B9839893FBA3DAB33DC31CD37FE3E1
:10472E005EF3B1029012F322D23235421452776206
:10473E005672EAB5CBA5A89589856EF54FE52CD5B1
:10474E000DC5E234C324A014810466744764245456
:10475E000544DBA7FAB79987B8975FE77EF71DC7C1
:10476E003CD7D326F2369106B016576676761546A6
:10477E0034564CD96DC90EF92FE9C899E9898AB911
:10478E00ABA94458654806782768C018E1088238F6
:10479E00A3287DCB5CDB3FEB1EFBF98BD89BBBAB21
:1047AE009ABB754A545A376A167AF10AD01AB32A46
:1047BE00923A2EFD0FED6CDD4DCDAABD8BADE89D71
:1047CE00C98D267C076C645C454CA23C832CE01C96
:1047DE00C10C1FEF3EFF5DCF7CDF9BAFBABFD98F01
:1047EE00F89F176E367E554E745E932EB23ED10EE6
:1047FE00F01E000000001218E21786178E17A2177F
:02480E00B117E0
:00000001FF
