:100000000C94B8010C94E0010C94E0010C94E00114
:100010000C94E0010C94E0010C941D060C94E0019A
:100020000C94E0010C94E0010C94E0010C94E001CC
:100030000C94E0010C94E0010C94E0010C94E001BC
:100040000C94F7180C94E0010C94E0010C94E0017E
:100050000C94E0010C94E0010C94E0010C94E0019C
:100060000C94CA170C94E001800CB90C410DF50DED
:10007000290E350E4F0E580E610ED00E430F004064
:100080007A10F35A00A0724E18090010A5D4E800A7
:1000900000E87648170000E40B54020000CA9A3BBF
:1000A000000000E1F5050000809698000000404245
:1000B0000F000000A08601000000102700000000D3
:1000C000E803000000006400000000000A000000D7
:1000D00000000100000000002C76D888DC674F0883
:1000E00023DFC1DFAE59E1B1B796E5E3E453C63A89
:1000F000E651997696E8E6C28426EB898C9B62ED00
:10010000407C6FFCEFBC9C9F40F2BAA56FA5F490B9
:10011000055A2AF75C936B6CF9676DC11BFCE0E430
:100120000D47FEF520E6B500D0ED902E0300943586
:1001300077050080841E080000204E0A000000C8D9
:100140000C333333330F986E12831141EF8D21142A
:10015000893BE65516CFFEE6DB18D1844B381BF7FA
:100160007C1D901DA4BBE424203284725E22810099
:10017000C9F124ECA1E53D27DCA17EA120A1C2A00C
:1001800064A006A0A99F4B9FED9E8F9E319ED39D9C
:10019000759D179DBA9C5C9CFE9BA09B429BE49A1C
:1001A000869A289ACA996D990F99B1985398F5979C
:1001B00097973997DB967E962096C295649506951B
:1001C000A8944A94EC938F933193D392759217929B
:1001D000B9915B91FD90A0904290E48F868F288F1B
:1001E000CA8E6C8E0E8EB18D538DF58C978C398C9A
:1001F000DB8B7D8B1F8BC18A648A068AA8894A891A
:10020000EC888E883088D28775871787B9865B8699
:10021000FD859F854185E38486842884CA836C8319
:100220000E83B0825282F48197813981DB807D8098
:100230001F80C17F637F057FA87E4A7EEC7D8E7D17
:10024000FBA1A6A150A1FAA0A4A04FA0F99FA39F33
:100250004D9FF79EA29E4C9EF69DA09D4A9DF59CAB
:100260009F9C499CF39B9D9B489BF29A9C9A469A23
:10027000F0999B994599EF9899984398EE9798979C
:100280004297EC9696964196EB9595953F95E99415
:1002900094943E94E89392933D93E79291923B928B
:1002A000E59190913A91E4908E903890E38F8D8F04
:1002B000378FE18E8B8E368EE08D8A8D348DDE8C7D
:1002C000898C338CDD8B878B318BDC8A868A308AF4
:1002D000DA8984892F89D98883882D88D78782876E
:1002E0002C87D68680862A86D5857F852985D384E6
:1002F0007E842884D2837C832683D1827B8225825C
:10030000CF8179812481CE800000000900030200A2
:1003100000040508000000000000000000000001CB
:100320000204081020408001020408102001020489
:100330000810204080400404040404040404020261
:10034000020202020303030303030202030000008C
:100350000023002600290000000000250028002BB3
:100360000000000000240027002A0000A411C41689
:1003700011241FBECFEFD8E0DEBFCDBF11E0A0E05B
:10038000B1E0E0EDF2E402C005900D92A232B107B7
:10039000D9F722E0A2E2B1E001C01D92A03AB20773
:1003A000E1F711E0C8EBD1E004C02197FE010E9403
:1003B000981DC63BD107C9F70E94B11A0C9466215B
:1003C0000C940000CF92DF92EF92FF920F931F9355
:1003D000E82FF92F05C0015011092109310961F1F8
:1003E000908196239417B9F305C001501109210992
:1003F000310911F1908196239413F7CFC12CD12CA0
:10040000E12CF12C0AC08FEFC81AD80AE80AF80AC2
:100410000C151D052E053F0579F080818623841774
:1004200091F36C2D7D2D8E2D9F2D1F910F91FF909F
:10043000EF90DF90CF90089560E070E080E090E072
:100440001F910F91FF90EF90DF90CF900895F89457
:10045000A895E0E6F0E088E1808381E680837894E7
:1004600008954F925F926F927F92AF92BF92CF9218
:10047000DF92EF92FF920F931F93CF93DF93CDB74D
:10048000DEB766970FB6F894DEBF0FBECDBFB42EB1
:10049000A22E9E012F5F3F4F790126E1F7011192B5
:1004A0002A95E9F78E01095E1F4F67012AE0422E67
:1004B000512C612C712CA30192010E94571DF8014F
:1004C000729362938F01B901CA01EE15FF0599F786
:1004D00063E881E591E00E94C311B11057C000E0CC
:1004E00010E0F601819191916F01892B09F048C0CC
:1004F0000F5F1F4F0B301105A1F7AA2009F440C070
:1005000063E081E591E00E94C61163E881E591E036
:100510000E94C31181E591E00E94D61163E081E55C
:1005200091E00E94C31168E270E080E090E00E94D8
:10053000721981E591E00E94D61162EC81E591E0AB
:100540000E94C31160E570E080E090E00E947219A3
:1005500081E591E00E94D61162E081E591E00E9480
:10056000C31168E270E080E090E00E94721981E5BA
:1005700091E00E94D61163E881E591E00E94C311E9
:100580003801660C771CC12CD12C2EC00BE010E07A
:100590000B191109F5CF61E081E591E00E94C611C8
:1005A00062EC81E591E00E94C31181E591E00E9437
:1005B000D61168EC70E080E090E00E94721963E868
:1005C00081E591E00E94C31181E591E00E94D6117E
:1005D00064EF71E080E090E00E947219A8950F5FCF
:1005E0001F4FF2E0CF0ED11C0B30110559F1F6016F
:1005F000E60DF71DEE0DFF1D4080518041145104A2
:1006000051F2B12C8B2D90E08415950508F761E02F
:1006100081E591E00E94C61181E591E00E94D6112A
:1006200068EC70E080E090E00E94721981E591E052
:100630000E94D61166E470E080E090E00E9472199A
:10064000B394E0CF66960FB6F894DEBF0FBECDBF71
:10065000DF91CF911F910F91FF90EF90DF90CF909E
:10066000BF90AF907F906F905F904F9008954F92A2
:100670005F926F927F92BF92CF92DF92EF92FF9242
:100680000F931F93CF93DF9300D000D000D0CDB74E
:10069000DEB76B017C01B42E20E030E0A9010E949E
:1006A000D91C20E030E040E05FE387FD05C0C701D2
:1006B000B6010E94C21A04C0C701B6010E94C11A45
:1006C0000E94E11B0E94191C9B01AC01C701B601ED
:1006D0000E94C11A2B013C0120E030E0A9010E94D8
:1006E000D91C18165CF42FE832EC45E75DE3C30132
:1006F000B2010E942E1B87FF74C00BC02FE832ECA2
:1007000045E75DEBC301B2010E94D91C18160CF03D
:1007100068C020E030E0A901C701B6010E94D91CE1
:1007200020E030E040E05FE387FD05C0C701B6018F
:100730000E94C21A04C0C701B6010E94C11A0E94D9
:10074000E11B20E040E00E94310263E081E591E09E
:100750000E94C61163E881E591E00E94C31181E522
:1007600091E00E94D61163E081E591E00E94C311FF
:1007700068E270E080E090E00E94721981E591E00B
:100780000E94D61162EC81E591E00E94C31160E500
:1007900070E080E090E00E94721981E591E00E9493
:1007A000D61162E081E591E00E94C31168E270E039
:1007B00080E090E00E94721981E591E00E94D611DC
:1007C00063E881E591E00E94C31164EF71E080E08D
:1007D00090E00E94721920E04B2D60E070E0CB01A8
:1007E00085C0C701B6010E94E81B2B013C010E9495
:1007F000171C9B01AC01C701B6010E94C11A8E01F2
:100800000F5F1F4F23E045E00E94BA1E80E38A83FA
:10081000C8010E94DA1E6C01990FEE08FF0882E001
:10082000B81207C0C701B6012AE030E040E050E04E
:1008300009C081E0B8120AC0C701B60124E630E061
:1008400040E050E00E94571D69017A0120E040E03D
:10085000C301B2010E94310263E081E591E00E9490
:10086000C61163E881E591E00E94C31181E591E042
:100870000E94D61163E081E591E00E94C31168E215
:1008800070E080E090E00E94721981E591E00E94A2
:10089000D61162EC81E591E00E94C31160E570E041
:1008A00080E090E00E94721981E591E00E94D611EB
:1008B00062E081E591E00E94C31168E270E080E0AF
:1008C00090E00E94721981E591E00E94D61163E8E0
:1008D00081E591E00E94C31164EF71E080E090E057
:1008E0000E94721920E04B2DC701B6010E9431020F
:1008F00026960FB6F894DEBF0FBECDBFDF91CF9125
:100900001F910F91FF90EF90DF90CF90BF907F905D
:100910006F905F904F9008958330E9F028F4813014
:1009200049F0823071F00895853019F1D8F08C309B
:1009300001F1089561E081E591E00E94C61164E053
:1009400006C061E081E591E00E94C61163E881E59F
:1009500091E00C94C31161E081E591E00E94C61121
:1009600063E0F5CF61E081E591E00E94C61162ECA1
:10097000EECF63E081E591E00E94C61163E881E576
:1009800091E00E94C31181E591E00E94D61163E0DD
:1009900081E591E00E94C31164E170E080E090E0A5
:1009A0000E94721981E591E00E94D61162EC81E506
:1009B00091E00E94C31164E170E080E090E00E9449
:1009C000721981E591E00E94D61162E081E591E023
:1009D0000E94C31164E170E080E090E00E9472190F
:1009E00081E591E00C94D61181E591E00E94D61149
:1009F00063E081E591E00E94C61162E081E591E04B
:100A00000E94C31164E170E080E090E00E947219DE
:100A100081E591E00E94D61162EC81E591E00E94AF
:100A2000C3116CE370E080E090E00E94721981E5F0
:100A300091E00E94D61163E081E591E00E94C3112C
:100A400068EC70E080E090E00E94721981E591E02E
:100A50000E94D61163E881E591E00E94C31160E530
:100A600070E080E090E00E94721981E591E00C94C2
:100A7000D611F894A89588E1809360000FB6F89499
:100A8000A89580916000886180936000109260005A
:100A90000FBE789481E591E00E94D61161E081E576
:100AA00091E00E94C61165E081E591E00E94C311CA
:100AB00081E591E00E94D61164E670E080E090E06C
:100AC0000E94721981E591E00E94D61160E273E004
:100AD00080E090E00E947219E1CF68EE73E080E060
:100AE00090E00E9472190E94270281E591E00E9425
:100AF000291261E081E591E00E9426126FE781E50D
:100B000091E00E94C91166E080E591E00E944B12DD
:100B100060E586E291E00E94091460E074E082E200
:100B200091E00E94E113A89560E070E086E291E018
:100B30000E94261460E070E082E291E00E94E513DA
:100B4000CFEF86E291E00E944A15682F82E291E0A1
:100B50000E94F913C150A9F70E9439051F93CF9342
:100B6000DF93EC01162F61E081E591E00E94C61150
:100B7000612F81E591E00E94C31181E591E00E941F
:100B8000D611BE0180E090E00E94721981E591E0EB
:100B9000DF91CF911F910C94D6116F927F928F921B
:100BA0009F92AF92BF92CF92DF92EF92FF920F93FC
:100BB0001F93CF93DF931F92CDB7DEB76C018A01ED
:100BC000490181E591E069830E94D611698181E53F
:100BD00091E00E94C311612C712CE12CF12CA12C0D
:100BE000B12C60167106C9F061E081E591E00E94C8
:100BF000C61181E591E00E94D611C701B6010E949D
:100C0000721981E591E00E94D611C501B4010E94DC
:100C100072198FEF681A780AE4CF0F90DF91CF91A5
:100C20001F910F91FF90EF90DF90CF90BF90AF900A
:100C30009F908F907F906F9008951F920F920FB6A4
:100C40000F921124F894A89588E1809360000FB664
:100C5000F894A8958091600088618093600010925C
:100C600060000FBE789463E081E591E00E94261257
:100C700081E591E00E94D61128EC30E044E050E09C
:100C800062EC88EC90E00E94CD0564EF71E080E0BA
:100C900090E00E947219F0CFF894A89588E18093B3
:100CA00060000FB6F894A8958091600088618093E9
:100CB0006000109260000FBE789463E081E591E0DF
:100CC0000E94261281E591E00E94D61128EC30E0C6
:100CD00042E050E063E888EC90E00E94CD0564EFCC
:100CE00071E080E090E00E947219F0CF60E273E062
:100CF00080E090E00E94721924E630E045E050E088
:100D000063E082E390E00E94CD05A89524E630E000
:100D100045E050E063E882E390E00E94CD0560E2A8
:100D200073E080E090E00C9472190F931F93CF93BF
:100D3000882329F090E5899FB001112402C060E06A
:100D400070E086E291E00E942614C2E04091A30187
:100D50005091A4016091A5017091A60186E291E0F5
:100D60000E94681400919B0110919C0120919D01AB
:100D700030919E0140919F015091A0016091A1018D
:100D80007091A20186E291E00E9481144091970146
:100D9000509198016091990170919A0186E291E0D9
:100DA0000E946814409193015091940160919501C3
:100DB0007091960186E291E00E94681440918F0143
:100DC00050919001609191017091920186E291E0C1
:100DD0000E94681440918B0150918C0160918D01AB
:100DE00070918E0186E291E00E947F14409187010C
:100DF000509188016091890170918A0186E291E0A9
:100E00000E947F144091AB015091AC016091AD0103
:100E10007091AE0186E291E00E9468144091A701B2
:100E20005091A8016091A9017091AA0186E291E018
:100E30000E946814C13011F0C1E088CFCF911F919A
:100E40000F9108952F923F924F925F926F927F92EF
:100E50008F929F92AF92BF92CF92DF92EF92FF92CA
:100E60000F931F93CF93DF93CDB7DEB72A970FB6BB
:100E7000F894DEBF0FBECDBF60917F0170918001FD
:100E8000809181019091820120E030E44CE156E4B0
:100E90000E94DE1C0E94E11B4B015C0188E7282EAA
:100EA00081E0382E00E412E044E650E0C12CD12C61
:100EB00076018CEB9FE7A0E0B0E060916E016623C5
:100EC00011F0F10101C0F80145905490612C712C92
:100ED000481859086A087B0877FE08C07094609427
:100EE00050944094411C511C611C711C8415950543
:100EF000A605B7057CF0BA01052E000C880B990BEE
:100F000049875A870E94191C6B017C01D301C201D9
:100F10005A8549854150510922E0220E311C0E5F4D
:100F20001F4F4115510549F660910401709105016B
:100F30008091830190918401A0918501B0918601F7
:100F400089839A83AB83BC838090A3019090A40192
:100F5000A090A501B090A60180910E0190910F0183
:100F6000A0911001B09111018D839E83AF83B8874A
:100F700080E090E00E94171C2B013C0120E030E053
:100F800048EC52E4C701B6010E94331B9B01AC013F
:100F9000C301B2010E94DE1C6B017C01C501B401DA
:100FA0000E94171C2D813E814F8158850E94331B62
:100FB0009B01AC0169817A818B819C810E94331BEA
:100FC0009B01AC01C701B6010E94331B6B017C0180
:100FD00020E030E0A9010E94D91C20E030E040E090
:100FE0005FE387FD05C0C701B6010E94C21A04C0B5
:100FF000C701B6010E94C11A0E94E11B2A960FB6D2
:10100000F894DEBF0FBECDBFDF91CF911F910F913E
:10101000FF90EF90DF90CF90BF90AF909F908F9018
:101020007F906F905F904F903F902F900895CF9258
:10103000DF92EF92FF920F931F93CF93DF93609114
:10104000000170910101809102019091030120E063
:1010500030E0A9010E942E1B882309F4B8C06091DA
:101060007F01709180018091810190918201209196
:1010700000013091010140910201509103010E9451
:101080002E1B18168CF460917F0170918001809165
:1010900081019091820120E030ED44E855E40E9406
:1010A000D91C18160CF093C08AE291E00E94A71296
:1010B000A895F12CD0E0C0E08AE0E82EA895C0FD0C
:1010C00016C060917F0170918001809181019091A3
:1010D0008201209100013091010140910201509163
:1010E00003010E942E1B181614F063E001C062EC8D
:1010F00088E290E00E94AE0568E270E080E090E057
:101100000E9472198C2F6E2D0E944B1D911127C0C9
:1011100080E591E00E9451126C018AE291E00E9408
:101120009F128C018AE291E00E94A312081B190B06
:10113000C016D10608F4D1E080E591E00E9451127A
:101140006C018AE291E00E949F128C018AE291E098
:101150000E94A312800F911F8C159D0598F1DD232D
:1011600061F1FF2049F110920001109201011092EB
:1011700002011092030120E530E045E050E064E018
:1011800080E590E00E94CD05A89520E530E045E09F
:1011900050E063E880E590E00E94CD0560E273E0F6
:1011A00080E090E0DF91CF911F910F91FF90EF9041
:1011B000DF90CF900C947219D1E0CF5FC03509F069
:1011C0007DCF05C0D111CFCFFF24F394F6CFDF91AF
:1011D000CF911F910F91FF90EF90DF90CF900895E6
:1011E000CF93DF93CDB7DEB7E1970FB6F894DEBFAC
:1011F0000FBECDBF0E9441196E8F7F8F88A399A328
:101200001E8A1F8A188E198E1A8A1B8A1C8A1D8AAA
:1012100019861A861B861C861D860E9441196093BA
:10122000CF017093D0018093D1019093D2010D85AD
:101230000F5F0D8781E591E00E94D61180E591E076
:101240000E945112BC018AE291E00E94BC1260E44B
:101250008AE291E00E9488120E948C04063440F4D5
:1012600060E28AE291E00E948812882309F401C7B3
:1012700060E28AE291E00E948812882309F4F7C6AE
:101280000E9441196AA37BA38CA39DA381E591E0F1
:101290000E94D61161E081E591E00E94C61165E0EF
:1012A00081E591E00E94C31181E591E00E94D61191
:1012B00012E31D8760E084E591E00E9450158823C9
:1012C000E9F180905C0190905D01A0905E01B0908A
:1012D0005F01C0906001D0906101E0906201F090E8
:1012E00063014090640150906501609066017090C8
:1012F0006701209168013091690140916A01509124
:101300006B0129833A834B835C8340915401509154
:10131000550160915601709157014EA35FA368A7D4
:1013200079A762E070E080E090E00E94721961E0CD
:1013300084E591E00E945015811102C00E944C0684
:101340001092A3011092A4011092A5011092A6017F
:1013500010929B0110929C0110929D0110929E018F
:1013600010929F011092A0011092A1011092A2016F
:1013700010929701109298011092990110929A017F
:10138000109293011092940110929501109296017F
:1013900010927F01109280011092810110928201BF
:1013A000109283011092840110928501109286019F
:1013B00010928B0110928C0110928D0110928E016F
:1013C00010928701109288011092890110928A016F
:1013D00020915C0130915D0140915E0150915F016F
:1013E000C501B4010E94C21A20E030E040E05FE392
:1013F0000E94DE1C6A8F7B8F8C8F9D8F20916001F5
:10140000309161014091620150916301C701B601C1
:101410000E94C21A6E877F87888B998B2091640106
:10142000309165014091660150916701C301B2019D
:101430000E94C21A2B013C018091680190916901C0
:10144000A0916A01B0916B0189809A80AB80BC80C9
:10145000880E991EAA1EBB1EC501B401A2E0CA2EA9
:10146000D12CE12CF12CA70196010E94791D298332
:101470003A834B835C83609158017091590180914C
:101480005A0190915B01A70196010E94791D29875D
:101490003A874B875C878090540190905501A090CB
:1014A0005601B09057018AA69BA6ACA6BDA6809116
:1014B000CB019091CC01A091CD01B091CE01409192
:1014C0007301509174016091750170917601841BD4
:1014D000950BA60BB70B89809A80AB80BC80880DDA
:1014E000991DAA1DBB1D8093A3019093A401A093F5
:1014F000A501B093A601F091C301E091C401C09091
:10150000C501D090C601E090C701F090C8010091DC
:10151000C9011091CA01BB0C8808982C540129817B
:101520003A814B815C81682D782D882D982DAF2EC6
:10153000BE2E0E94931E20939B0130939C014093EA
:101540009D0150939E0160939F017093A001809331
:10155000A1019093A201C090BF01D090C001E09082
:10156000C101F090C20120E030E0A9016E857F85C5
:10157000888999890E94D91C20E030E040E05FE32F
:1015800087FD07C06E857F85888999890E94C21A68
:1015900006C06E857F85888999890E94C11A0E943C
:1015A000E11BC60ED71EE81EF91EC0929701D0920D
:1015B0009801E0929901F0929A01C090BB01D090FD
:1015C000BC01E090BD01F090BE0120E030E0A90137
:1015D000C301B2010E94D91C20E030E040E05FE38B
:1015E00087FD05C0C301B2010E94C21A04C0C30135
:1015F000B2010E94C11A0E94E11BC60ED71EE81E4E
:10160000F91EC0929301D0929401E0929501F0925C
:1016100096012091060130910701409108015091F7
:1016200009016A8D7B8D8C8D9D8D0E94331B60938B
:101630007F0170938001809381019093820160917A
:10164000B3017091B4018091B5019091B601C09041
:101650007B01D0907C01E0907D01F0907E012E8591
:101660003F85488959890E94C21AA70196010E94A4
:10167000C11A60938B0170938C0180938D019093BC
:101680008E016091AF017091B0018091B101909194
:10169000B201C0907701D0907801E0907901F0908C
:1016A0007A01A30192010E94C21AA70196010E9429
:1016B000C11A609387017093880180938901909388
:1016C0008A0160918B0170918C0180918D019091C4
:1016D0008E012091870130918801409189015091BC
:1016E0008A010E94C11A60938301709384018093E0
:1016F000850190938601C090B701D090B801E09029
:10170000B901F090BA016E897F89888D998D28EE94
:1017100033E040E050E00E94791DC20ED31EE41E6B
:10172000F51EC0928F01D0929001E0929101F0924B
:1017300092018091AB019091AC01A091AD01B0916B
:10174000AE0189849A84AB84BC8488159905AA0566
:10175000BB0540F48092AB019092AC01A092AD0128
:10176000B092AE01609183017091840180918501F6
:101770009091860120916F0130917001409171012B
:10178000509172010E94C11A2FE832EC45EF5CE3E0
:101790000E94D91C181624F481E080936E011BC0AE
:1017A00060918301709184018091850190918601FF
:1017B00020916F013091700140917101509172013F
:1017C0000E94C11A2FE832EC45EF5CEB0E942E1B01
:1017D00087FD10926E018091830190918401A09108
:1017E0008501B091860180936F0190937001A09361
:1017F0007101B093720169857A858B859C850E9401
:10180000191C6B017C0120910A0130910B01409160
:101810000C0150910D010E94331B2FE832EC45E181
:101820005FE30E94D91C1816F4F463E081E591E0AF
:101830000E9426120E9441190E891F89288D398D18
:101840008E8C9F8CA8A0B9A0081919092A093B09F8
:1018500048015901860E971EA81EB91E8E8A9F8ABE
:10186000A88EB98E05C061E081E591E00E94261244
:101870000E9441196E8F7F8F88A399A380E00E94F8
:1018800095060E94411969877A878B879C87A8955E
:1018900060E28AE291E00E9488128823F9F08AA02F
:1018A0009BA0ACA0BDA006E9800E911CA11CB11CA0
:1018B0000E94411986169706A806B906C8F781E561
:1018C00091E00E94D61181E591E00E94D61168E571
:1018D00072E080E090E00E94721902C00E94170836
:1018E00060E88AE291E00E94881290E0FC01319762
:1018F000EB30F10508F0A5C3EC5CFF4F0C94981D8C
:10190000C090A301D090A401E090A501F090A601A1
:1019100060910E0170910F01809110019091110161
:1019200020E030E040E751E40E94331B0E94E81BB6
:101930006C157D058E059F0508F081C36091A3019C
:101940007091A4018091A5019091A60120910E01B2
:1019500030910F0140911001509111012EA73FA726
:1019600048AB59AB0E94171C2EA53FA548A959A901
:101970009CC340909B0150909C0160909D01709091
:101980009E0180909F019090A0013090A101209035
:10199000A20160910E0170910F0180911001909150
:1019A000110120E030E040E751E40E94331B0E9427
:1019B000AA1B59016A017B018C019201A301B401A8
:1019C000832D922D0E94A51E09F008F438C3409083
:1019D0009B0150909C0160909D0170909E018090B1
:1019E0009F019090A0013090A1012090A2016091F0
:1019F0000E0170910F01809110019091110120E072
:101A000030E0A9010E94D91C87FD0FC060910E0132
:101A100070910F01809110019091110120E030E050
:101A200040E05FE30E94C21A0EC060910E01709107
:101A30000F01809110019091110120E030E040E011
:101A40005FE30E94C11A0E94E11B9B01AC01550F8C
:101A5000220B322FA9015B016C01E22EF22E022F24
:101A6000122F9201A301B401832D922D0E94D11D4A
:101A7000F22FE42F21E040E06F2F732F8E2F952F50
:101A80007BC020910A0130910B0140910C015091D3
:101A90000D01C701B6010E94331B2FE832EC45E16E
:101AA0005FE30E942E1B87FF32C06091830170911B
:101AB0008401809185019091860120E030E040EA28
:101AC00050E40E94D91C18160CF0B9C2C090A301B2
:101AD000D090A401E090A501F090A60160910E01C4
:101AE00070910F01809110019091110120E030E080
:101AF00040E751E40E94331B0E94E81B6C157D05F2
:101B00008E059F0508F09BC20E94220733C02AA5BC
:101B10003BA54CA55DA56EA17FA188A599A50E94B6
:101B2000C21A6B017C0120E030E0A9010E94D91C9F
:101B300087FD25C02A8D3B8D4C8D5D8DC701B6017B
:101B40000E94DE1C6B017C0120E030E0A9010E94B4
:101B5000D91C20E030E040E05FE387FD05C0C7010D
:101B6000B6010E94C21A04C0C701B6010E94C11A80
:101B70000E94E11B21E040E00E94310262C224E1A8
:101B800030E04AE050E063E084E190E00E94CD055F
:101B9000A89564EF71E080E090E00E9472192A8DB0
:101BA0003B8D4C8D5D8DC701B6010E94DE1C6B0123
:101BB0007C0120E030E0A9010E94D91C20E030E047
:101BC00040E05FE387FD05C0C701B6010E94C21A6D
:101BD00004C0C701B6010E94C11A0E94E11B0E9405
:101BE000191C90580E94E81BC5CF60919701709115
:101BF00098018091990190919A0121E040E00E9422
:101C0000310260E273E080E090E00E94721924E605
:101C100030E045E050E063E882E390E00E94CD05CB
:101C2000A89524E630E045E050E063E082E390E0F0
:101C30000E94CD0560E273E080E090E00E9472199E
:101C4000609193017091940180919501909196011A
:101C500091CF60917F01709180018091810190917D
:101C6000820142E00E943703ECC1609183017091D0
:101C70008401809185019091860120E030E0A901E6
:101C80000E94D91C18160CF0DAC160918301709182
:101C90008401809185019091860141E0E3CF6091BC
:101CA0008B0170918C0180918D0190918E01F5CF07
:101CB00060918701709188018091890190918A01DA
:101CC000ECCF1092CB011092CC011092CD0110926A
:101CD000CE011092A3011092A4011092A5011092BE
:101CE000A6011092B3011092B4011092B5011092A6
:101CF000B601109283011092840110928501109216
:101D0000860110926F011092700110927101109271
:101D1000720110928B0110928C0110928D01109221
:101D20008E011092AF011092B0011092B101109289
:101D3000B2011092870110928801109289011092CD
:101D40008A018E849F84A888B98880927B019092B2
:101D50007C01A0927D01B0927E0140927701509269
:101D600078016092790170927A0189809A80AB80C3
:101D7000BC808092730190927401A0927501B09220
:101D8000760180E00E9495060E94F40481E00E94A2
:101D900095060E94411969877A878B879C8751C174
:101DA00020910A0130910B0140910C0150910D01DD
:101DB000C701B6010E94331B2FE832EC45E15FE317
:101DC0000E94D91C18164CF420910A0130910B0185
:101DD00040910C0150910D0166C160918301709199
:101DE0008401809185019091860120E030E040EAF5
:101DF00050E40E94D91C18160CF021C1C090A30118
:101E0000D090A401E090A501F090A60160910E0190
:101E100070910F01809110019091110120E030E04C
:101E200040E751E40E94331B0E94E81B6C157D05BE
:101E30008E059F0508F003C1C0908301D0908401F6
:101E4000E0908501F09086016091A3017091A4015A
:101E50008091A5019091A60120910E0130910F0172
:101E600040911001509111012EA73FA748AB59ABEB
:101E70000E94171C2EA53FA548A959A90E94331BF3
:101E80009B01AC0110C128EC30E04AE050E063E077
:101E900084E690E00E94CD05A89528EC30E04AE069
:101EA00050E062EC84E690E00E94CD0568E572E0C7
:101EB00080E090E00E94721960918F017091900112
:101EC00080919101909192010E94171C20E030E0D6
:101ED00041E655E40E94331B2DEC3CEC4CEC5DE3F9
:101EE0000E94D91C87FD36C080918F01909190018E
:101EF000A0919101B091920186319D4FA105B1054C
:101F0000A0F460918F017091900180919101909166
:101F100092010E94171C20E030E041E655E40E9447
:101F2000331B41E00E94370317C060918F0170910D
:101F30009001809191019091920120E13EE040E07A
:101F400050E00E94571DCA01B90121E040E00E9403
:101F5000310202C00E94760660E273E080E090E009
:101F60000E94721924E630E045E050E063E882E325
:101F700090E00E94CD05A89524E630E045E050E0D1
:101F800063E082E390E00E94CD0560E273E080E0D0
:101F900090E00E9472198091970190919801A09110
:101FA0009901B0919A0140919301509194016091EF
:101FB0009501709196015C016D011A012B019C0144
:101FC000A60160E070E080E090E051016201E12C48
:101FD000F12C00E010E00E949C1EAAE00E94AE1EC0
:101FE00009F00CF47FC140909B0150909C016090DF
:101FF0009D0170909E0180909F019090A001309073
:10200000A1012090A20160910E0170910F018091B9
:102010001001909111019B01AC010E94C21A0E9413
:10202000AA1B59016A017B018C019201A301B40131
:10203000832D922D0E94A51E09F0D0F553C10E9458
:102040007606A895C090CF01D090D001E090D10144
:10205000F090D2010E94411914E6C10ED11CE11C7E
:10206000F11CC616D706E806F90660F7D6C81D8625
:1020700021C989849A84AB84BC8489288A288B28C6
:1020800009F433C10E94411909851A852B853C85C5
:10209000045D1E4F2F4F3F4F0617170728073907BC
:1020A00008F444C122C1C701B6010E94331BF5CD1B
:1020B0008091970190919801A0919901B0919A0116
:1020C0004091930150919401609195017091960116
:1020D000841B950BA60BB70B8C019D0140E050E0D3
:1020E000BA0189831A832B833C834D835E836F837C
:1020F000788790909B0180909C0170909D016090EA
:102100009E0150909F014090A0013090A10120902D
:10211000A20160910E0170910F01809110019091C8
:10212000110120E030E0A9010E94D91C87FD0FC0F9
:1021300060910E0170910F01809110019091110139
:1021400020E030E040E05FE30E94C21A0EC06091E0
:102150000E0170910F01809110019091110120E00A
:1021600030E040E05FE30E94C11A0E94E11B9B0146
:10217000AC01550F220B322FA9015B016C01E22E3D
:10218000F22E022F122F292D382D472D562D652D79
:10219000742D832D922D0E94D11D59016A017B015E
:1021A0008C0129813A814B815C8160E070E080E0A4
:1021B00090E00E94A01DF22FE42F21E040E06F2F5D
:1021C000732F8E2F952F0E94310260E273E080E022
:1021D00090E00E94721924E630E045E050E063E8A8
:1021E00082E390E00E94CD05A89524E630E045E02A
:1021F00050E063E082E390E00E94CD0560E273E08E
:1022000080E090E00E9472196091AB017091AC0186
:102210008091AD019091AE0120910A0130910B01A6
:1022200040910C0150910D012EA73FA748AB59AB2F
:102230000E94171C2EA53FA548A959A90E94331B2F
:102240002FE832EC45E15FE30E94D91C181604F533
:102250006091AB017091AC018091AD019091AE01A4
:1022600020910A0130910B0140910C0150910D0118
:102270002EA73FA748AB59AB0E94171C2EA53FA520
:1022800048A959A90E94331B41E00E94370302C0AC
:102290000E94760660E273E080E090E00E9472198E
:1022A00024E630E045E050E063E882E390E00E94FD
:1022B000CD05A89524E630E045E050E063E082E3F8
:1022C00090E00E94CD0560E273E080E090E00E9423
:1022D00072196091A7017091A8018091A901909154
:1022E000AA0148CC0E94760670CF8A889B88AC8869
:1022F000BD8889288A288B2809F4A3CE0E94411919
:102300000A891B892C893D890455124F2F4F3F4F55
:10231000061717072807390708F093CE82E00E94B6
:1023200095061A8A1B8A1C8A1D8A8BCE81E00E9420
:1023300095060E9441196A8B7B8B8C8B9D8B19862D
:102340001A861B861C867DCE84E591E00E944C1582
:1023500081E591E00E94BC1180E591E00E944A1263
:102360008AE291E00E94621286E291E00E940214E9
:1023700082E291E00C94B813FC0185E0808381E057
:10238000828311820895FC0160830895FC016183BA
:1023900008958EEF90E0861B9109909389008093B9
:1023A000880090938B0080938A000895FC019081AF
:1023B0008EEF890F843090F480918100887F809324
:1023C00081008091800081608093800080918000F6
:1023D0008D7F809380008091810022C08091810058
:1023E000887F8093810080918000923C71F48160AD
:1023F0008093800080918000826080938000809133
:1024000081008260809381000EC082608093800092
:10241000809180008E7F80938000809181009770F2
:10242000982B909381008181882341F0828181FDE6
:10243000219A828180FF04C0229A02C021982298AA
:102440008181882311F0815081830895FC0162838A
:102450000895219822988FEF9FEF909387008093A3
:102460008600E0E8F0E0F0938900E0938800F093C4
:102470008B00E0938A008081806A80838081816004
:102480008083E1E8F0E080818860808380818460DF
:10249000808308950895FC01862F608360E00C948A
:1024A000121A20E63AEE40E050E061E0FC01808143
:1024B0000E947E1A6115710511F0CB01089581E02B
:1024C00090E00895FC0188E795E09283818380E5A0
:1024D00090E0948383838CED90E09683858388EBF2
:1024E00091E09087878388E090E09287818789E1F7
:1024F00090E09487838781E090E09687858788ECD9
:1025000090E0908B878788EB9BE0928B818B08957E
:10251000FC01603281F020F4603179F484A10895E7
:10252000603429F0603849F493A113A202C094A149
:1025300014A2892F089583A1089580E00895FC01D5
:10254000818192810895FC01878190850895FC0125
:10255000148A138A168A158A108E178A128E118E83
:10256000148E138E168E158E10A2178E12A211A223
:1025700013A214A215A20895CF93DF93FC018785BF
:1025800090896817790708F4F0C0818992898617C5
:10259000970708F4EAC08181928125813681AC01D8
:1025A000421B530B6417750750F4208121110FC093
:1025B0002789308D2F5F3F4F308F278B2EC0280FFC
:1025C000391F2617370750F420812111F1CF218DB3
:1025D000328D2F5F3F4F328F218F1FC02381348177
:1025E000A901480F591F64177507B8F4AC01421BC5
:1025F000530B4617570788F4238D348D2F5F3F4FB9
:10260000348F238F108E178A128E118E168E158E90
:1026100010A2178E15A212A211A227813085AC013B
:10262000421B530B6417750748F4808181110EC05B
:10263000858D968D0196968F858F12C0820F931F80
:102640008617970768F480818111F2CF878D90A15A
:10265000019690A3878F81A192A1019692A381A355
:102660002789308D858596858217930750F4438D91
:10267000548D452B31F0838994890196948B838BFB
:102680000EC0418D528D8417950760F4838D948D13
:10269000892B41F0858996890196968B858B84A339
:1026A000148E138E83899489892B21F085899689CC
:1026B000892B31F4232B81F0818D928D892B61F050
:1026C000148A138A168A158A85E084A3108E178AC5
:1026D000128E118E148E138E238D348D81859285EA
:1026E0008217930768F4838983A385899689009765
:1026F00011F08C5F83A3148A138A168A158A35C059
:1027000083859485258D368D8217930728F425A11E
:10271000211102C089E009C0278D30A182179307DB
:1027200060F485A1811109C08AE083A3148A138A09
:10273000168A158A81E085A318C081A192A18135EE
:10274000910528F012A211A28BE083A30EC0838909
:102750009489059720F485899689059730F0EF01D3
:10276000CF010E94A7128CE08CA3DF91CF91089536
:10277000FC0111821082138212820895F999FECF12
:1027800072BD61BDF89A80B508950F931F93CF93E2
:10279000DF931F92CDB7DEB78B0149830E94BE1332
:1027A0004981841741F0F999FECF1FBA12BD01BDCE
:1027B00040BDFA9AF99A0F90DF91CF911F910F9136
:1027C0000895FC01738362830895FC017183608323
:1027D0000895CF93DF93EC01462F688179810E94A1
:1027E000C51388819981019699838883DF91CF9160
:1027F00008950C94E913DC01ED91FC910190F081B6
:10280000E02D0994FC011082128211828FEF8383E4
:102810000895CF93DF93EC01688383ED91E00E94EC
:102820002E16688183ED91E00E943D1683ED91E0C4
:102830000E94C116811106C081E09B81992319F085
:1028400080E001C081E0DF91CF910895FC017283A7
:1028500061830895CF92DF92EF92FF920F931F93BF
:10286000CF93DF938C01F62EC72EE42EFC016081FE
:1028700083ED91E00E943D16F8016181728183ED44
:1028800091E00E94FB13DF2CCF2DDC2D8C2F8D19B6
:102890008E1560F4699183ED91E00E94DD15F801D9
:1028A00081819281019692838183F0CF83ED91E0C3
:1028B0000E94C11691E0811101C090E0892FDF9143
:1028C000CF911F910F91FF90EF90DF90CF900895DF
:1028D000CF93DF9300D000D0CDB7DEB749835A83C2
:1028E0006B837C8344E0BE016F5F7F4F0E942A149C
:1028F0000F900F900F900F90DF91CF9108950C944F
:102900006814AF92BF92DF92EF92FF920F931F93E2
:10291000CF93DF93CDB7DEB728970FB6F894DEBF1D
:102920000FBECDBF5C01E02FD22EE32EF42EB52FCB
:10293000A62FF72F0983202F312F4D2D5E2D6F2DC0
:102940007B2F8A2F9F2F08E00E94771E2A832E2F2D
:10295000312F4D2D5E2D6F2D7B2F8A2F9F2F00E164
:102960000E94771E2B832E2F312F4D2D5E2D6F2D24
:102970007B2F8A2F9F2F08E10E94771E2C832E2FFA
:10298000312F4D2D5E2D6F2D7B2F8A2F9F2F00E233
:102990000E94771E2D832E2F312F4D2D5E2D6F2DF2
:1029A0007B2F8A2F9F2F08E20E94771E2E832E2FC7
:1029B000312F4D2D5E2D6F2D7B2F8A2F9F2F00E302
:1029C0000E94771E2F832E2F312F4D2D5E2D6F2DC0
:1029D0007B2F8A2F9F2F08E30E94771E288748E0CD
:1029E000BE016F5F7F4FC5010E942A1428960FB663
:1029F000F894DEBF0FBECDBFDF91CF911F910F9135
:102A0000FF90EF90DF90BF90AF900895CF92DF924C
:102A1000EF92FF92CF93DF93EC01688183ED91E019
:102A20000E943D1669817A8183ED91E00E94FB133B
:102A300089819A8101969A83898383ED91E00E942E
:102A4000C116688170E041E050E083ED91E00E94A2
:102A5000BE160E9441196B017C0124E6C20ED11CF6
:102A6000E11CF11C83ED91E00E945115019739F0B2
:102A70000E944119C616D706E806F90698F783EDB5
:102A800091E00E945915DF91CF91FF90EF90DF9078
:102A9000CF9008950C940615FC01118E108E0895A8
:102AA00008958091070290E020910802821B91090D
:102AB00008959091080280910702981750F4E92F29
:102AC000F0E0E75FFD4F208130E09F5F90930802C8
:102AD00002C02FEF3FEFC9010895E09108028091F5
:102AE0000702E81730F4F0E0E75FFD4F808190E0E7
:102AF00008958FEF9FEF08950895AC01E091DF01F5
:102B0000F091E0013097E1F0909108028091070286
:102B10009817B0F090E0292F30E02617370754F4CB
:102B2000DA01A20FB31F8C91D901A75FBD4F8C931F
:102B30009F5FF1CF1092080260930702CB010994C6
:102B40000895E091E101F091E201309729F01092AF
:102B5000E5011092E40109940895CF92DF92EF927B
:102B6000FF920F931F93CF93DF937C01262F972F14
:102B70008A018091E301882391F0C62FD72F6E013F
:102B8000C40ED51ECC15DD0571F06991D701ED910C
:102B9000FC910190F081E02DC7010995F3CF642FDE
:102BA000822F0E948817C801DF91CF911F910F914A
:102BB000FF90EF90DF90CF900895CF93DF931F9217
:102BC000CDB7DEB769832091E3012223D1F02091B4
:102BD000E401203240F021E030E0FC013383228325
:102BE00080E090E015C08091E501E82FF0E0EA5127
:102BF000FE4F998190838F5F8093E5018093E4017C
:102C000005C061E0CE0101960E94881781E090E046
:102C10000F90DF91CF910895FC011382128288EE0C
:102C200093E0A0E0B0E084839583A683B78386E138
:102C300091E0918380830895109208021092070218
:102C40001092E5011092E4010E94C81681EA95E114
:102C50000E94B5178DE795E10C94B017CF93DF93E1
:102C60001F92CDB7DEB769830E941C166981862F3B
:102C70000F90DF91CF910C94E61681E08093E301F1
:102C8000609306021092E5011092E40108950F93FB
:102C9000062F21E04091E40166EE71E0809106028A
:102CA0000E9432171092E5011092E4011092E301A4
:102CB0000F9108954F925F926F927F92AF92BF9261
:102CC000CF92EF92FF920F931F93CF93DF935C010C
:102CD000F62ED42F28013901EE2021F10E943D1655
:102CE000CE2DC43008F0C3E0C150C0F0D501ED9145
:102CF000FC91B8E0CB9FC0011124A301920104C054
:102D000056954795379527958A95D2F7CA01B90107
:102D10000190F081E02DC5010995E6CF60E0C50185
:102D20000E9447164D2FD13208F040E22C2D69E069
:102D300072E08F2D0E94EA1610920802809307021B
:102D4000DF91CF911F910F91FF90EF90CF90BF90A7
:102D5000AF907F906F905F904F900895CF92EF92D9
:102D60000F931F93C22EE12C00E010E098010E9407
:102D70005A161F910F91EF90CF90089521E00C9477
:102D8000AE1661E00C94471683ED91E00C940C169E
:102D90001092960281E0809394021092930261E077
:102DA00082E10E944E1A61E083E10E944E1AE9EB33
:102DB000F0E080818E7F808380818D7F808388E4B6
:102DC0008093B80085E48093BC000895880F8093B9
:102DD000BA000895413208F043C0909196029111D3
:102DE000FCCF91E090939602209394022FEF2093D2
:102DF000290210926E02240F20936D029093950287
:102E000090919502880F892B80939502809193026F
:102E1000813061F410929302809195028093BB00FF
:102E20008091BC0083FDF8CF85EC01C085EE8093D6
:102E3000BC00809196028130E1F380916E0284178C
:102E400010F440916E022FE632E0FB01D9018A2F87
:102E5000821B841718F48D918193F9CF842F0895E4
:102E600080E008950F93413208F04AC09091960295
:102E70009111FCCF32E030939602009394023FEF21
:102E80003093290210926E0240936D02FB016FE6AF
:102E900072E0DB013A2F361B341718F431913D9361
:102EA000F9CF1092950230919502880F832B809371
:102EB000950280919302813061F410929302809187
:102EC00095028093BB008091BC0083FDF8CF85EC18
:102ED00001C085EE8093BC00222321F080919602F0
:102EE0008230D1F3809129028F3F79F080912902BD
:102EF000803241F080912902803331F094E005C0A6
:102F000091E003C092E001C093E0892F0F910895F2
:102F100040914B02262F30E0240F311D2132310524
:102F2000DCF4209196022430C9F4FC0180E090E0AA
:102F3000861758F430914B022191DC01A35BBD4F01
:102F4000A30FB11D2C930196F3CF80914B02680F14
:102F500060934B0280E0089581E0089582E0089537
:102F60009093900280938F020895909392028093A1
:102F70009102089585ED8093BC008091BC0084FD92
:102F8000FCCF10929602089585EC8093BC001092BD
:102F9000960208951F920F920FB60F9211242F934D
:102FA0003F934F935F936F937F938F939F93AF93D1
:102FB000BF93EF93FF938091B900887F803609F427
:102FC0009EC078F5883209F45DC090F4803109F430
:102FD00056C038F4882309F4F5C0883009F44FC08E
:102FE000F5C0883109F44EC0803209F45FC0EEC0EC
:102FF000803409F46AC058F4803309F457C0883328
:1030000009F0E4C0809329020E94C417DFC0803514
:1030100009F44FC0883509F45DC0883409F0D6C082
:10302000D3C0883909F4C4C0A8F4883709F467C04C
:1030300038F4883609F463C0803709F460C0C6C02C
:10304000883809F4B5C0803909F45FC0803809F0C8
:10305000BDC05BC0803B09F483C038F4803A09F4FA
:1030600066C0883A09F47CC0B1C0803C09F4A4C0B1
:10307000883C09F4A1C0883B09F487C0A7C08091AF
:10308000950210C090916E0280916D02981770F5B4
:10309000E0916E0281E08E0F80936E02F0E0E159C4
:1030A000FD4F80818093BB0085EC83C08093290213
:1030B0008BC0E0916E0281E08E0F80936E02809152
:1030C000BB00F0E0E159FD4F808390916E0280914A
:1030D0006D026BC0E0916E0281E08E0F80936E02F4
:1030E0008091BB00F0E0E159FD4F80838091940214
:1030F00081116AC081E08093930284EA5EC083E01C
:103100008093960210922A02CFCF80912A028032B9
:1031100008F04EC0E0912A0281E08E0F80932A02CF
:103120008091BB00F0E0E55DFD4F8083BDCF0E9444
:10313000C41780912A02803230F4E0912A02F0E034
:10314000E55DFD4F108260912A0270E0E0918F02F0
:10315000F09190028BE292E0099510922A0236C01B
:1031600084E08093960210924C0210924B02E09100
:103170009102F0919202099580914B02811105C054
:1031800081E080934B0210924D02E0914C0281E06D
:103190008E0F80934C02F0E0E35BFD4F80818093C3
:1031A000BB0090914C0280914B02981708F47CCFA1
:1031B00085E88093BC000AC085EC8093BC00109227
:1031C000960204C0109229020E94BA17FF91EF9153
:1031D000BF91AF919F918F917F916F915F914F912F
:1031E0003F912F910F900FBE0F901F9018951F9237
:1031F0000F920FB60F9211242F933F938F939F93AB
:10320000AF93BF938091980290919902A0919A02F6
:10321000B0919B023091970223E0230F2D3720F4C9
:103220000196A11DB11D05C026E8230F0296A11D20
:10323000B11D209397028093980290939902A093D6
:103240009A02B0939B0280919C0290919D02A09162
:103250009E02B0919F020196A11DB11D80939C0218
:1032600090939D02A0939E02B0939F02BF91AF9155
:103270009F918F913F912F910F900FBE0F901F90B4
:1032800018952FB7F89460919802709199028091E7
:103290009A0290919B022FBF08953FB7F8948091B6
:1032A0009C0290919D02A0919E02B0919F0226B532
:1032B000A89B05C02F3F19F00196A11DB11D3FBF6E
:1032C000BA2FA92F982F8827820F911DA11DB11DFC
:1032D000BC01CD0142E0660F771F881F991F4A95F8
:1032E000D1F708958F929F92AF92BF92CF92DF92C3
:1032F000EF92FF926B017C010E944D194B015C0122
:10330000C114D104E104F10401F10E94C01A0E9429
:103310004D19DC01CB0188199909AA09BB09883E1E
:103320009340A105B10560F321E0C21AD108E1087C
:10333000F10888EE880E83E0981EA11CB11CC11410
:10334000D104E104F10419F7DBCFFF90EF90DF9097
:10335000CF90BF90AF909F908F900895789484B550
:10336000826084BD84B5816084BD85B5826085BD81
:1033700085B5816085BDEEE6F0E080818160808367
:10338000E1E8F0E01082808182608083808181604A
:103390008083E0E8F0E0808181608083E1EBF0E011
:1033A000808184608083E0EBF0E0808181608083B5
:1033B000EAE7F0E08081846080838081826080839E
:1033C0008081816080838081806880831092C100C9
:1033D0000895843081F028F4823099F08330A1F090
:1033E00008958830A9F08930B9F08530D1F4809102
:1033F00080008F7D03C0809180008F778093800054
:10340000089584B58F7702C084B58F7D84BD0895FB
:103410008091B0008F7703C08091B0008F7D809342
:10342000B0000895CF93DF9390E0FC01E15EFC4F84
:103430002491FC01EA5CFC4F8491882361F190E0C7
:10344000880F991FFC01EF59FC4FC591D491FC01E5
:10345000E95AFC4FA591B491611109C09FB7F89446
:103460008881209582238883EC912E230BC06230C3
:1034700061F49FB7F8943881822F809583238883E5
:10348000EC912E2B2C939FBF06C08FB7F894E88148
:103490002E2B28838FBFDF91CF9108951F93CF9359
:1034A000DF93282F30E0F901E85FFC4F8491F901A8
:1034B000E15EFC4FD491F901EA5CFC4FC491CC234E
:1034C000C9F0162F81110E94E919EC2FF0E0EE0FE0
:1034D000FF1FE95AFC4FA591B4918FB7F8941111D1
:1034E00005C09C91ED2FE095E92302C0EC91ED2BF6
:1034F000EC938FBFDF91CF911F9108950F931F938E
:1035000090E0FC01E15EFC4F7491FC01EA5CFC4F31
:10351000E491662311F0672F01C060E0F0E0EE0F48
:10352000FF1FE35BFC4F8591949189019A013F70E5
:10353000462F672F0E94E2016115710581059105F3
:1035400049F0DC01CB010196A11DB11DBC01CD01EB
:103550009F7003C060E070E0CB011F910F91089550
:1035600008950E94AE190E94B01A0E946D05C0E035
:10357000D0E00E94F0082097E1F30E940000F9CF0C
:1035800008955058BB27AA270E94D91A0C949F1C53
:103590000E94911C38F00E94981C20F039F49F3F43
:1035A00019F426F40C947E1C0EF4E095E7FB0C94C1
:1035B000781CE92F0E94B01C58F3BA1762077307F2
:1035C0008407950720F079F4A6F50C94D21C0EF42C
:1035D000E0950B2EBA2FA02D0B01B90190010C0123
:1035E000CA01A0011124FF27591B99F0593F50F43B
:1035F000503E68F11A16F040A22F232F342F442793
:10360000585FF3CF469537952795A795F04053958A
:10361000C9F77EF41F16BA0B620B730B840BBAF05A
:103620009150A1F0FF0FBB1F661F771F881FC2F7C5
:103630000EC0BA0F621F731F841F48F487957795D9
:103640006795B795F7959E3F08F0B0CF9395880F93
:1036500008F09927EE0F9795879508950E94541CBE
:1036600008F481E008950E94471B0C949F1C0E945F
:10367000981C58F00E94911C40F029F45F3F29F0FB
:103680000C94781C51110C94D31C0C947E1C0E9439
:10369000B01C68F39923B1F3552391F3951B550B97
:1036A000BB27AA2762177307840738F09F5F5F4F15
:1036B000220F331F441FAA1FA9F335D00E2E3AF054
:1036C000E0E832D091505040E695001CCAF72BD06C
:1036D000FE2F29D0660F771F881FBB1F26173707BD
:1036E0004807AB07B0E809F0BB0B802DBF01FF27EF
:1036F00093585F4F3AF09E3F510578F00C94781C38
:103700000C94D31C5F3FE4F3983ED4F386957795F1
:103710006795B795F7959F5FC9F7880F911D9695A7
:10372000879597F90895E1E0660F771F881FBB1F03
:10373000621773078407BA0720F0621B730B840BB0
:10374000BA0BEE1F88F7E0950895BEE304D008F4A5
:1037500090E80895BFE322273327A9010E94B81CEF
:1037600060F19F5748F1B91740F1BFE3B91B9927A2
:10377000B8503AF4660F771F881F991FB395D2F39C
:1037800016C0B8504AF0232F342F452F562F672FDD
:10379000782F8827B850BAF7B85F49F086957795A3
:1037A00067955795479537952795BA95B9F716F4C4
:1037B0000E94811C88940895889460E070E0CB0199
:1037C00008950E94E81B6894B1110C94D31C0895CD
:1037D0000E94B81C88F09F5798F0B92F9927B751CD
:1037E000B0F0E1F0660F771F881F991F1AF0BA95A5
:1037F000C9F714C0B13091F00E94D21CB1E0089515
:103800000C94D21C672F782F8827B85F39F0B93F06
:10381000CCF3869577956795B395D9F73EF4909557
:103820008095709561957F4F8F4F9F4F0895E894D5
:1038300009C097FB3EF490958095709561957F4FF8
:103840008F4F9F4F9923A9F0F92F96E9BB279395A6
:10385000F695879577956795B795F111F8CFFAF4B6
:10386000BB0F11F460FF1BC06F5F7F4F8F4F9F4FE7
:1038700016C0882311F096E911C0772321F09EE845
:10388000872F762F05C0662371F096E8862F70E0AB
:1038900060E02AF09A95660F771F881FDAF7880F85
:1038A0009695879597F90895990F0008550FAA0BDB
:1038B000E0E8FEEF16161706E807F907C0F0121643
:1038C0001306E407F50798F0621B730B840B950B46
:1038D00039F40A2661F0232B242B252B21F408959B
:1038E0000A2609F4A140A6958FEF811D811D089538
:1038F00097F99F6780E870E060E008959FEF80ECA3
:103900000895909580957095609550954095309567
:1039100021953F4F4F4F5F4F6F4F7F4F8F4F9F4FBF
:10392000089500240A941616170618060906089525
:1039300000240A9412161306140605060895092E8B
:103940000394000C11F4882352F0BB0F40F4BF2BFA
:1039500011F460FF04C06F5F7F4F8F4F9F4F08953A
:1039600057FD9058440F551F59F05F3F71F0479530
:10397000880F97FB991F61F09F3F79F08795089515
:10398000121613061406551FF2CF4695F1DF08C034
:10399000161617061806991FF1CF86957105610551
:1039A00008940895E894BB2766277727CB0197F9F9
:1039B00008950E94541C08F48FEF08950E94F11C92
:1039C0000C949F1C0E94911C38F00E94981C20F0BF
:1039D000952311F00C94781C0C947E1C11240C94EB
:1039E000D31C0E94B01C70F3959FC1F3950F50E05B
:1039F000551F629FF001729FBB27F00DB11D639FA1
:103A0000AA27F00DB11DAA1F649F6627B00DA11D46
:103A1000661F829F2227B00DA11D621F739FB00DEC
:103A2000A11D621F839FA00D611D221F749F33275C
:103A3000A00D611D231F849F600D211D822F762FF5
:103A40006A2F11249F5750409AF0F1F088234AF0D2
:103A5000EE0FFF1FBB1F661F771F881F915050403E
:103A6000A9F79E3F510580F00C94781C0C94D31C50
:103A70005F3FE4F3983ED4F3869577956795B795C5
:103A8000F795E7959F5FC1F7FE2B880F911D9695DF
:103A9000879597F90895991B79E004C0991F9617A7
:103AA00008F0961B881F7A95C9F780950895A1E2C2
:103AB0001A2EAA1BBB1BFD010DC0AA1FBB1FEE1FA8
:103AC000FF1FA217B307E407F50720F0A21BB30BF3
:103AD000E40BF50B661F771F881F991F1A9469F76F
:103AE00060957095809590959B01AC01BD01CF01CB
:103AF0000895052E97FB1EF400940E94901D57FD1B
:103B000007D00E94571D07FC03D04EF40C94901D63
:103B100050954095309521953F4F4F4F5F4F0895F9
:103B200090958095709561957F4F8F4F9F4F089529
:103B3000EE0FFF1F0590F491E02D0994689401C0E9
:103B4000E894F92FF12B12F00C94D21DA0E0B0E014
:103B5000ECEAFDE10C94441E092E059422F40E9427
:103B60002E1E112392F4F0E80F26FFEFE094F0945C
:103B700000951095B094C094D094A194BF0ACF0A38
:103B8000DF0AEF0AFF0A0F0B1F0B0E94DD1D07FC67
:103B90000E942E1ECDB7DEB7ECE00C94601E689438
:103BA00001C0E8948F929F92CF93DF930E94DD1D16
:103BB000DF91CF919F908F90089588249924F401EC
:103BC000E401B0E49F93AA279A158B049C04ED05A9
:103BD000FE05CF05D007A10798F4AD2FDC2FCF2F1E
:103BE000FE2FE92D982C892E982F872F762F652F61
:103BF000542F432F322F2227B85031F7BF9127C0BF
:103C00001B2EBF91BB27220F331F441F551F661F5A
:103C1000771F881F991F881C991CEE1FFF1FCC1F40
:103C2000DD1FAA1FBB1F8A149B04EC05FD05CE05F2
:103C3000DF05A007B10748F08A189B08EC09FD09C9
:103C4000CE09DF09A00BB10B21601A94E1F62EF426
:103C50009401AF01BE01CD01000C089560957095EF
:103C60008095909530954095509521953F4F4F4FB9
:103C70005F4F6F4F7F4F8F4F9F4F08952F923F920F
:103C80004F925F926F927F928F929F92AF92BF926C
:103C9000CF92DF92EF92FF920F931F93CF93DF9318
:103CA000CDB7DEB7CA1BDB0B0FB6F894DEBF0FBE75
:103CB000CDBF09942A88398848885F846E847D84C2
:103CC0008C849B84AA84B984C884DF80EE80FD80C4
:103CD0000C811B81AA81B981CE0FD11D0FB6F8943A
:103CE000DEBF0FBECDBFED01089597FB10F816940F
:103CF00000080F93083098F00850232F342F452FD9
:103D0000562F672F782F892F902DF4CF05949795F4
:103D100087957795679557954795379527950A9590
:103D2000AAF70F9108952A0D3B1D4C1D5D1D6E1DB8
:103D30007F1D801F911F08952A193B094C095D09B9
:103D40006E097F09800B910B08952A153B054C05E0
:103D50005D056E057F058007910708950024A7FD86
:103D600000942A1730054005500560057005800550
:103D700090050895EF920F931F93CF93DF93E8017F
:103D800047FD02C034E001C034E1E42F440FFF0BD3
:103D9000F7FF03C0F195E195F109E32E022F2E2FD5
:103DA000AE010E94001FCE01DF91CF911F910F91B4
:103DB000EF900895FC0188279927E89421912032FB
:103DC000E9F3293010F02E30C8F32B3241F02D32B8
:103DD00039F4689404C00E94F81E820F911D21914D
:103DE00020532A30C0F31EF4909581959F4F08957B
:103DF0007AE0979F902D879F802D910D1124089533
:103E00004F925F926F927F929F92AF92BF92CF92AA
:103E1000DF92EF92FF920F931F93CF93DF93CDB773
:103E2000DEB729970FB6F894DEBF0FBECDBF6A018B
:103E3000122FB02E2BE3201720F0FF24F394F00E66
:103E400002C0BCE3FB2E0F2D27E0AE014F5F5F4F9A
:103E50000E948E20AC018981982F9970913031F0A9
:103E6000E1FC06C0E0FE06C090E205C09DE203C092
:103E70009BE201C090E0EE2DE07183FF3CC0911108
:103E800002C083E001C084E0811718F4212F281BB1
:103E900001C020E0E1110BC0F601822F30E288233F
:103EA00019F031938150FBCFC20ED11C20E0992331
:103EB00029F0D6019C93F60131966F01C601039655
:103EC000E2FE0AC03EE4D6013C9341E411964C93D5
:103ED000119712963C9306C03EE6F601308341E608
:103EE00041833283FC01322F40E2332309F442C084
:103EF00041933150FACF82FF44C0911102C083E058
:103F000001C084E0811718F4212F281B01C020E094
:103F1000E1110BC0F601822F30E2882319F03193B2
:103F20008150FBCFC20ED11C20E0992329F0D6018D
:103F30009C93F60131966F01C6010396E2FE0BC019
:103F400039E4D6013C933EE411963C93119736E454
:103F500012963C9307C039E6F60130833EE6318382
:103F600036E63283FC01322F40E2332319F04193CD
:103F70003150FBCFFC01E20FF11D10828EEF9FEF5D
:103F8000B7C0F1E0911101C0F0E06F2F70E014169E
:103F9000150624F49A012F5F3F4F02C021E030E064
:103FA000260F371FBB2029F06B2D70E06F5F7F4F0E
:103FB00002C060E070E0260F371F612F70E0261707
:103FC00037071CF4121B212F01C020E03E2D387151
:103FD00059F4D601322F60E2332319F06D9331503A
:103FE000FBCFC20ED11C20E0FF2331F0D6019C9301
:103FF000B6016F5F7F4F6B01E1110BC0F601922F8D
:1040000030E3992319F031939150FBCFC20ED11CAC
:1040100020E09F2D940F3A81782F7071A72E84FF96
:1040200003C0313309F49150191624F4993018F073
:1040300098E001C091E0E42F852F57FF02C0E0E037
:1040400080E06E2F782FE0E0F0E0AEE29A2E3A01A9
:10405000691A71082A01461A570A0B2D10E01195AA
:10406000019511096F3F8FEF780729F4D6019C92D3
:10407000C60101966C014617570784F0661677064D
:104080006CF47F01E40CF51CA1E0B0E0AC0FBD1FA7
:10409000EA0EFB1ED7011196BC9002C090E3B92E28
:1040A000615071093196C60101967C016017710754
:1040B00024F0D601BC926C01D5CF6417750741F48A
:1040C000363320F4353321F4A11002C081E3B82E39
:1040D000F601B082F701822F90E2882319F09193C4
:1040E0008150FBCFF701E20FF11D108280E090E0DC
:1040F00029960FB6F894DEBF0FBECDBFDF91CF91EA
:104100001F910F91FF90EF90DF90CF90BF90AF90F5
:104110009F907F906F905F904F900895283008F0A7
:1041200027E03327DA01990F311D87FD9160009652
:104130006105710539F432602E5F3D9330E32A95B5
:10414000E1F708959F3F30F080387105610509F06F
:104150003C5F3C5F3D93913008F08068911DDF9398
:10416000CF931F930F93FF92EF92192F987F9695FD
:10417000E92F96959695E90FFF27E852FF4F99276B
:104180003327EE24FF24A701E70105900894079444
:1041900028F4360FE71EF81E491F511D660F771FC2
:1041A000881F991F0694A1F70590079428F4E70E3D
:1041B000F81E491F561FC11D770F881F991F661FC4
:1041C0000694A1F70590079428F4F80E491F561F8E
:1041D000C71FD11D880F991F661F771F0694A1F76F
:1041E0000590079420F4490F561FC71FD81F990F39
:1041F000661F771F881F0694A9F784911095177082
:1042000041F0D695C79557954795F794E7941A9539
:10421000C1F7EEE7F0E0689415901591359165913E
:10422000959105907FE27395E118F10A430B560BC7
:10423000C90BD009C0F7E10CF11E431F561FC91F5F
:10424000D01D7EF4703311F48A95E6CFE8940150C6
:1042500030F0080F0AF40027021708F4202F2395E6
:10426000022F7A3328F079E37D932A95E9F710C07D
:104270007D932A9589F606949795679537951795B6
:104280001794E118F10A430B560BC90BD00998F0AB
:1042900023957E9173957A3308F070E37C93201315
:1042A000B8F77E9170617D9330F0839571E37D93D3
:1042B00070E32A95E1F71124EF90FF900F911F9181
:1042C000CF91DF91992787FD90950895F894FFCFBE
:1042D0000000803F01000000803F0000803F0000A0
:1042E000803F00000000DD15AD15511559156D1505
:0242F0007C153B
:00000001FF
