:100000000C94B9010C94E1010C94E1010C94E10110
:100010000C94E1010C94E1010C94DD050C94E101D8
:100020000C94E1010C94E1010C94E1010C94E101C8
:100030000C94E1010C94E1010C94E1010C94E101B8
:100040000C94C3200C94E1010C94A7230C94D923A5
:100050000C94E1010C94E1010C94E1010C94E10198
:100060000C94961F0C94E101A80FE10F69101D116B
:1000700051115D117711AA1100126F12A2120040E6
:100080007A10F35A00A0724E18090010A5D4E800A7
:1000900000E87648170000E40B54020000CA9A3BBF
:1000A000000000E1F5050000809698000000404245
:1000B0000F000000A08601000000102700000000D3
:1000C000E803000000006400000000000A000000D7
:1000D00000000100000000002C76D888DC674F0883
:1000E00023DFC1DFAE59E1B1B796E5E3E453C63A89
:1000F000E651997696E8E6C28426EB898C9B62ED00
:10010000407C6FFCEFBC9C9F40F2BAA56FA5F490B9
:10011000055A2AF75C936B6CF9676DC11BFCE0E430
:100120000D47FEF520E6B500D0ED902E0300943586
:1001300077050080841E080000204E0A000000C8D9
:100140000C333333330F986E12831141EF8D21142A
:10015000893BE65516CFFEE6DB18D1844B381BF7FA
:100160007C1D901DA4BBE424203284725E22810099
:10017000C9F124ECA1E53D27DCA17EA120A1C2A00C
:1001800064A006A0A99F4B9FED9E8F9E319ED39D9C
:10019000759D179DBA9C5C9CFE9BA09B429BE49A1C
:1001A000869A289ACA996D990F99B1985398F5979C
:1001B00097973997DB967E962096C295649506951B
:1001C000A8944A94EC938F933193D392759217929B
:1001D000B9915B91FD90A0904290E48F868F288F1B
:1001E000CA8E6C8E0E8EB18D538DF58C978C398C9A
:1001F000DB8B7D8B1F8BC18A648A068AA8894A891A
:10020000EC888E883088D28775871787B9865B8699
:10021000FD859F854185E38486842884CA836C8319
:100220000E83B0825282F48197813981DB807D8098
:100230001F80C17F637F057FA87E4A7EEC7D8E7D17
:10024000FBA1A6A150A1FAA0A4A04FA0F99FA39F33
:100250004D9FF79EA29E4C9EF69DA09D4A9DF59CAB
:100260009F9C499CF39B9D9B489BF29A9C9A469A23
:10027000F0999B994599EF9899984398EE9798979C
:100280004297EC9696964196EB9595953F95E99415
:1002900094943E94E89392933D93E79291923B928B
:1002A000E59190913A91E4908E903890E38F8D8F04
:1002B000378FE18E8B8E368EE08D8A8D348DDE8C7D
:1002C000898C338CDD8B878B318BDC8A868A308AF4
:1002D000DA8984892F89D98883882D88D78782876E
:1002E0002C87D68680862A86D5857F852985D384E6
:1002F0007E842884D2837C832683D1827B8225825C
:10030000CF8179812481CE800000000900030200A2
:1003100000040508000000000000000000000001CB
:100320000204081020408001020408102001020489
:100330000810204080400404040404040404020261
:10034000020202020303030303030202030000008C
:100350000023002600290000000000250028002BB3
:100360000000000000240027002A00009914901EBD
:10037000092411241FBECFEFD8E0DEBFCDBF13E0AC
:10038000A0E0B1E0E6E7F6E502C005900D92A233E9
:10039000B107D9F725E0A2E3B3E001C01D92A23571
:1003A000B207E1F711E0C9EBD1E004C02197FE01EB
:1003B0000E944927C63BD107C9F70E9462240C94CA
:1003C000392B0C940000CF92DF92EF92FF920F93A3
:1003D0001F93E82FF92F05C0015011092109310998
:1003E00061F1908196239417B9F305C0015011096A
:1003F0002109310911F1908196239413F7CFC12C73
:10040000D12CE12CF12C0AC08FEFC81AD80AE80AC7
:10041000F80A0C151D052E053F0579F0808186230D
:10042000841791F36C2D7D2D8E2D9F2D1F910F9193
:10043000FF90EF90DF90CF90089560E070E080E053
:1004400090E01F910F91FF90EF90DF90CF90089573
:10045000F894A895E0E6F0E088E1808381E6808367
:10046000789408954F925F926F927F92AF92BF926D
:10047000CF92DF92EF92FF920F931F93CF93DF9370
:10048000CDB7DEB766970FB6F894DEBF0FBECDBF0F
:10049000B42EA22E9E012F5F3F4F790126E1F70176
:1004A00011922A95E9F78E01095E1F4F67012AE034
:1004B000422E512C612C712CA30192010E9408271D
:1004C000F801729362938F01B901CA01EE15FF051D
:1004D00099F763E881E693E00E94B814B11057C021
:1004E00000E010E0F601819191916F01892B09F0F4
:1004F00048C00F5F1F4F0B301105A1F7AA2009F468
:1005000040C063E081E693E00E94BB1463E881E6AB
:1005100093E00E94B81481E693E00E94CB1463E05C
:1005200081E693E00E94B81468E270E080E090E019
:100530000E943E2181E693E00E94CB1462EC81E6AA
:1005400093E00E94B81460E570E080E090E00E94C3
:100550003E2181E693E00E94CB1462E081E693E0C5
:100560000E94B81468E270E080E090E00E943E21B2
:1005700081E693E00E94CB1463E881E693E00E9459
:10058000B8143801660C771CC12CD12C2EC00BE09E
:1005900010E00B191109F5CF61E081E693E00E94AC
:1005A000BB1462EC81E693E00E94B81481E693E00C
:1005B0000E94CB1468EC70E080E090E00E943E2145
:1005C00063E881E693E00E94B81481E693E00E941C
:1005D000CB1464EF71E080E090E00E943E21A8958A
:1005E0000F5F1F4FF2E0CF0ED11C0B30110559F1F8
:1005F000F601E60DF71DEE0DFF1D40805180411400
:10060000510451F2B12C8B2D90E08415950508F71B
:1006100061E081E693E00E94BB1481E693E00E94D2
:10062000CB1468EC70E080E090E00E943E2181E60F
:1006300093E00E94CB1466E470E080E090E00E94BA
:100640003E21B394E0CF66960FB6F894DEBF0FBE9E
:10065000CDBFDF91CF911F910F91FF90EF90DF9071
:10066000CF90BF90AF907F906F905F904F90089524
:100670004F925F926F927F92BF92CF92DF92EF92F2
:10068000FF920F931F93CF93DF9300D000D000D041
:10069000CDB7DEB76B017C01B42E20E030E0A901BC
:1006A0000E948A2620E030E040E05FE387FD05C03D
:1006B000C701B6010E94732404C0C701B6010E949D
:1006C00072240E9492250E94CA259B01AC01C70199
:1006D000B6010E9472242B013C0120E030E0A90108
:1006E0000E948A2618165CF42FE832EC45E75DE399
:1006F000C301B2010E94DF2487FF74C00BC02FE842
:1007000032EC45E75DEBC301B2010E948A26181660
:100710000CF068C020E030E0A901C701B6010E94DA
:100720008A2620E030E040E05FE387FD05C0C70196
:10073000B6010E94732404C0C701B6010E9472244E
:100740000E94922520E040E00E94320263E081E6B0
:1007500093E00E94BB1463E881E693E00E94B81422
:1007600081E693E00E94CB1463E081E693E00E946F
:10077000B81468E270E080E090E00E943E2181E6DB
:1007800093E00E94CB1462EC81E693E00E94B814DF
:1007900060E570E080E090E00E943E2181E693E019
:1007A0000E94CB1462E081E693E00E94B81468E2F4
:1007B00070E080E090E00E943E2181E693E00E949C
:1007C000CB1463E881E693E00E94B81464EF71E013
:1007D00080E090E00E943E2120E04B2D60E070E040
:1007E000CB0185C0C701B6010E9499252B013C01B0
:1007F0000E94C8259B01AC01C701B6010E9472246A
:100800008E010F5F1F4F23E045E00E94842880E3A4
:100810008A83C8010E94A4286C01990FEE08FF0882
:1008200082E0B81207C0C701B6012AE030E040E01C
:1008300050E009C081E0B8120AC0C701B60124E641
:1008400030E040E050E00E94082769017A0120E092
:1008500040E0C301B2010E94320263E081E693E00E
:100860000E94BB1463E881E693E00E94B81481E61D
:1008700093E00E94CB1463E081E693E00E94B814F9
:1008800068E270E080E090E00E943E2181E693E023
:100890000E94CB1462EC81E693E00E94B81460E5FC
:1008A00070E080E090E00E943E2181E693E00E94AB
:1008B000CB1462E081E693E00E94B81468E270E035
:1008C00080E090E00E943E2181E693E00E94CB14FC
:1008D00063E881E693E00E94B81464EF71E080E081
:1008E00090E00E943E2120E04B2DC701B6010E94FE
:1008F000320226960FB6F894DEBF0FBECDBFDF9151
:10090000CF911F910F91FF90EF90DF90CF90BF900C
:100910007F906F905F904F9008958330E9F028F4B6
:10092000813049F0823071F00895853019F1D8F0A6
:100930008C3001F1089561E081E693E00E94BB14E0
:1009400064E006C061E081E693E00E94BB1463E8C6
:1009500081E693E00C94B81461E081E693E00E9494
:10096000BB1463E0F5CF61E081E693E00E94BB1425
:1009700062ECEECF63E081E693E00E94BB1463E893
:1009800081E693E00E94B81481E693E00E94CB14C4
:1009900063E081E693E00E94B81464E170E080E0D7
:1009A00090E00E943E2181E693E00E94CB1462EC2D
:1009B00081E693E00E94B81464E170E080E090E08A
:1009C0000E943E2181E693E00E94CB1462E081E622
:1009D00093E00E94B81464E170E080E090E00E942F
:1009E0003E2181E693E00C94CB1481E693E00E94D3
:1009F000CB1463E081E693E00E94BB1462E081E6E1
:100A000093E00E94B81464E170E080E090E00E94FE
:100A10003E2181E693E00E94CB1462EC81E693E0F4
:100A20000E94B8146CE370E080E090E00E943E21E8
:100A300081E693E00E94CB1463E081E693E00E949C
:100A4000B81468EC70E080E090E00E943E2181E6FE
:100A500093E00E94CB1463E881E693E00E94B8140F
:100A600060E570E080E090E00E943E2181E693E046
:100A70000C94CB14F894A89588E1809360000FB68D
:100A8000F894A8958091600088618093600010922E
:100A900060000FBE789481E693E00E94CB1461E081
:100AA00081E693E00E94BB1465E081E693E00E943A
:100AB000B81481E693E00E94CB1464E670E080E015
:100AC00090E00E943E2181E693E00E94CB1460E218
:100AD00073E080E090E00E943E21E1CF1F93CF932E
:100AE000DF93EC01162F61E081E693E00E94BB14D6
:100AF000612F81E693E00E94B81481E693E00E94A2
:100B0000CB14BE0180E090E00E943E2181E693E09C
:100B1000DF91CF911F910C94CB146F927F928F92A3
:100B20009F92AF92BF92CF92DF92EF92FF920F937C
:100B30001F93CF93DF931F92CDB7DEB76C018A016D
:100B4000490181E693E069830E94CB14698181E6C3
:100B500093E00E94B814612C712CE12CF12CA12C93
:100B6000B12C60167106C9F061E081E693E00E9445
:100B7000BB1481E693E00E94CB14C701B6010E942A
:100B80003E2181E693E00E94CB14C501B4010E948E
:100B90003E218FEF681A780AE4CF0F90DF91CF9152
:100BA0001F910F91FF90EF90DF90CF90BF90AF908B
:100BB0009F908F907F906F9008951F920F920FB625
:100BC0000F921124F894A89588E1809360000FB6E5
:100BD000F894A895809160008861809360001092DD
:100BE00060000FBE789463E081E693E00E941B15DD
:100BF00081E693E00E94CB1428EC30E044E050E022
:100C000062EC88EC90E00E948D0564EF71E080E07A
:100C100090E00E943E21F0CFF894A89588E180935F
:100C200060000FB6F894A895809160008861809369
:100C30006000109260000FBE789463E081E693E05C
:100C40000E941B1581E693E00E94CB1428EC30E053
:100C500042E050E063E888EC90E00E948D0564EF8C
:100C600071E080E090E00E943E21F0CF60E273E00E
:100C700080E090E00E943E2124E630E045E050E034
:100C800063E082E390E00E948D05A89524E630E0C1
:100C900045E050E063E882E390E00E948D0560E269
:100CA00073E080E090E00C943E212F923F924F92AF
:100CB0005F926F927F928F929F92AF92BF92CF92EC
:100CC000DF92EF92FF920F931F93CF93DF93CDB7F5
:100CD000DEB728970FB6F894DEBF0FBECDBF282F22
:100CE00030E03A83298330E5839FB001112486E305
:100CF00093E00E94391886E393E00E94791960938B
:100D0000E0037093E1038093E2039093E30386E3AF
:100D100093E00E94B1192093D8033093D9034093F4
:100D2000DA035093DB036093DC037093DD0380935D
:100D3000DE039093DF0386E393E00E9479196093CA
:100D4000D4037093D5038093D6039093D70386E39F
:100D500093E00E9479196093D0037093D10380933C
:100D6000D2039093D30386E393E00E9479196093B2
:100D7000CC037093CD038093CE039093CF0386E38F
:100D800093E00E94201A6093C8037093C903809374
:100D9000CA039093CB0386E393E00E94201A6093EA
:100DA000C4037093C5038093C6039093C70386E37F
:100DB00093E00E9479196093C0037093C1038093FC
:100DC000C2039093C30386E393E00E947919609372
:100DD000BC037093BD038093BE039093BF038091C7
:100DE000E0039091E103A091E203B091E3038B83D0
:100DF0009C83AD83BE8386E393E00E9479192B0127
:100E00003C012090D8033090D9038090DA03909071
:100E1000DB030091DC031091DD039091DE039887E2
:100E2000A091DF03AF8386E393E00E94B1195901DB
:100E30006A017B01FC019101A401B80188859F81B1
:100E40008F010E946F2851F411E08B819C81AD814C
:100E5000BE8184159505A605B70509F010E0C09080
:100E6000D403D090D503E090D603F090D70386E367
:100E700093E00E947919C616D706E806F90609F02C
:100E800010E0C090D003D090D103E090D203F09056
:100E9000D30386E393E00E947919C616D706E806C5
:100EA000F90609F010E0C090CC03D090CD03E0909B
:100EB000CE03F090CF0386E393E00E947919C61623
:100EC000D706E806F90609F010E0C090C803D090F4
:100ED000C903E090CA03F090CB0386E393E00E943D
:100EE000201A9B01AC01C701B6010E94DF248111C9
:100EF00010E0C090C403D090C503E090C603F0900A
:100F0000C70386E393E00E94201A9B01AC01C7014E
:100F1000B6010E94DF24811110E0C090C003D09080
:100F2000C103E090C203F090C30386E393E00E9404
:100F30007919C616D706E806F90609F010E0C09040
:100F4000BC03D090BD03E090BE03F090BF0386E3E6
:100F500093E00E947919C616D706E806F90611F43F
:100F600011111AC085E0F82E09811A810F5F1F4FF9
:100F700028EC30E0A80163E08CE291E00E948D054E
:100F800068E572E080E090E00E943E21A895FA9426
:100F9000F110EECF80E001C081E028960FB6F89402
:100FA000DEBF0FBECDBFDF91CF911F910F91FF909C
:100FB000EF90DF90CF90BF90AF909F908F907F90F9
:100FC0006F905F904F903F902F9008950F931F93D5
:100FD000CF93882329F090E5899FB001112402C0A6
:100FE00060E070E086E393E00E943918C2E040912F
:100FF000B8035091B9036091BA037091BB0386E3C3
:1010000093E00E947B180091B0031091B1032091EE
:10101000B2033091B3034091B4035091B503609192
:10102000B6037091B70386E393E00E949418409151
:10103000AC035091AD036091AE037091AF0386E3B2
:1010400093E00E947B184091A8035091A9036091FE
:10105000AA037091AB0386E393E00E947B18409152
:10106000A4035091A5036091A6037091A70386E3A2
:1010700093E00E947B184091A0035091A1036091DE
:10108000A2037091A30386E393E00E94921840911B
:101090009C0350919D0360919E0370919F0386E392
:1010A00093E00E9492184091C0035091C103609157
:1010B000C2037091C30386E393E00E947B184091C2
:1010C000BC035091BD036091BE037091BF0386E3E2
:1010D00093E00E947B18C13011F0C1E088CFCF911E
:1010E0001F910F91089560E070E082E393E00E9409
:1010F0004C1782E393E00E94C417882369F060E0F4
:1011000070E082E393E00E944C1760E082E393E09A
:101110000E94B0170E943A0582E393E00E94C6172E
:10112000909382038093810382E393E00E94C61729
:101130009093800380937F0382E393E00E94C4171F
:1011400080937E0382E393E00E94DD1760930E019B
:1011500070930F01809310019093110182E393E04B
:101160000E94DD1760930A0170930B0180930C01BC
:1011700090930D0182E393E00E94C417682F70E002
:1011800080E090E00E94C8256093060170930701FB
:10119000809308019093090182E393E00E94C617AF
:1011A000909305018093040182E393E00E94C617A7
:1011B000BC0180E090E00E94C8256093000170931C
:1011C00001018093020190930301609100017091ED
:1011D0000101809102019091030120E030E04AE793
:1011E00054E40E94E4246093000170930101809311
:1011F0000201909303010895CF93DF93DC0130E067
:101200003617D1F03F5F232F2617A1F04D915C9147
:101210001197FC01E20FF11DE20FF11DC081D18198
:10122000C417D50728F41196DC93CE9351834083DD
:101230002F5FEACF1296E4CFDF91CF9108950F93FD
:101240001F93CF93DF9300D000D000D0CDB7DEB78F
:1012500060E070E082E393E00E944C1782E393E049
:101260000E94C417882309F488C08E010F5F1F4FA6
:1012700086E0F80111928A95E9F764E08CEA9DE036
:101280000E946E05A89580E693E00E9446159A8319
:10129000898320E931E044E050E064E088EC90E0AC
:1012A0000E948D05A89563E88CEA9DE00E946E057A
:1012B000A89580E693E00E9446159C838B8320E9E5
:1012C00031E044E050E063E888EC90E00E948D0556
:1012D000A89563E08CEA9DE00E946E05A89580E6E3
:1012E00093E00E9446159E838D8320E931E044E01F
:1012F00050E063E088EC90E00E948D05A89563E0E3
:10130000C8010E94FC08F8019E01295F3F4F8191AE
:1013100091918059914089329A4010F00E943A058B
:10132000E217F307A1F76B817C8189819A81845D43
:101330009E4F6817790790F32D813E81CB01845D24
:101340009E4F2817390750F382E393E00E94B217AB
:101350002B813C8169817A818D819E81A901461B07
:10136000570BFC01E21BF30B4E175F0708F0BC01A3
:1013700082E393E00E94B217A89526960FB6F894E0
:10138000DEBF0FBECDBFDF91CF911F910F910895AA
:1013900068EE73E080E090E00E943E210E94280207
:1013A00081E693E00E941E1561E081E693E00E94D1
:1013B0001B156FE781E693E00E94BE1466E080E6AD
:1013C00093E00E94401560E586E393E00E941C18BC
:1013D00060E074E082E393E00E944817A8950E94C1
:1013E0001F090E94730840917F0350918003609110
:1013F00081037091820320917E038AE393E00E942F
:101400007D15A89526E040E052EC61E070E085EBA8
:1014100094E00E94422365EB74E084E693E00E942E
:10142000551AA89563E081E693E00E941B156AE0D7
:1014300070E080E090E00E943E2180E00E9455062E
:1014400081110CC081E00E945506811107C082E025
:101450000E945506811102C00E943A0561E081E6B2
:1014600093E00E941B158091BC039091BD03A09155
:10147000BE03B091BF030196A11DB11D8093BC03B3
:101480009093BD03A093BE03B093BF03A8950895A6
:101490002F923F924F925F926F927F928F929F9284
:1014A000AF92BF92CF92DF92EF92FF920F931F9372
:1014B000CF93DF93CDB7DEB72A970FB6F894DEBF90
:1014C0000FBECDBF609194037091950380919603F8
:1014D0009091970320E030E44CE156E40E948F267F
:1014E0000E9492254B015C0188E7282E81E0382E6E
:1014F00000E412E044E650E0C12CD12C76018CEBE4
:101500009FE7A0E0B0E060918303662311F0F10152
:1015100001C0F80145905490612C712C481859086D
:101520006A087B0877FE08C07094609450944094D9
:10153000411C511C611C711C84159505A605B7053D
:101540007CF0BA01052E000C880B990B49875A874D
:101550000E94CA256B017C01D301C2015A854985CD
:101560004150510922E0220E311C0E5F1F4F4115E0
:10157000510549F66091040170910501809198032D
:1015800090919903A0919A03B0919B0389839A83C8
:10159000AB83BC838090B8039090B903A090BA034A
:1015A000B090BB0380910E0190910F01A0911001AA
:1015B000B09111018D839E83AF83B88780E090E066
:1015C0000E94C8252B013C0120E030E048EC52E4A9
:1015D000C701B6010E94E4249B01AC01C301B20122
:1015E0000E948F266B017C01C501B4010E94C825B1
:1015F0002D813E814F8158850E94E4249B01AC01DE
:1016000069817A818B819C810E94E4249B01AC01D9
:10161000C701B6010E94E4246B017C0120E030E0A8
:10162000A9010E948A2620E030E040E05FE387FDC8
:1016300005C0C701B6010E94732404C0C701B601EA
:101640000E9472240E9492252A960FB6F894DEBF5B
:101650000FBECDBFDF91CF911F910F91FF90EF9003
:10166000DF90CF90BF90AF909F908F907F906F90C2
:101670005F904F903F902F900895CF92DF92EF921E
:10168000FF920F931F93CF93DF93609100017091AE
:101690000101809102019091030120E030E0A90155
:1016A0000E94DF24882309F4B8C0609194037091EC
:1016B00095038091960390919703209100013091BA
:1016C000010140910201509103010E94DF2418168C
:1016D0008CF460919403709195038091960390919E
:1016E000970320E030ED44E855E40E948A2618165E
:1016F0000CF093C08AE393E00E940E16A895F12C9B
:10170000D0E0C0E08AE0E82EA895C0FD16C0609148
:101710009403709195038091960390919703209183
:1017200000013091010140910201509103010E949A
:10173000DF24181614F063E001C062EC88E290E048
:101740000E946E0568E270E080E090E00E943E2119
:101750008C2F6E2D0E94FC26911127C080E693E00D
:101760000E9446156C018AE393E00E9406168C01E4
:101770008AE393E00E940A16081B190BC016D106D3
:1017800008F4D1E080E693E00E9446156C018AE3FC
:1017900093E00E9406168C018AE393E00E940A16E9
:1017A000800F911F8C159D0598F1DD2361F1FF20BD
:1017B00049F1109200011092010110920201109261
:1017C000030120E530E045E050E064E080E590E092
:1017D0000E948D05A89520E530E045E050E063E8E3
:1017E00080E590E00E948D0560E273E080E090E08B
:1017F000DF91CF911F910F91FF90EF90DF90CF90ED
:101800000C943E21D1E0CF5FC03509F07DCF05C0FB
:10181000D111CFCFFF24F394F6CFDF91CF911F9159
:101820000F91FF90EF90DF90CF900895CF93DF93CB
:10183000CDB7DEB7E2970FB6F894DEBF0FBECDBFCF
:101840000E940D216F8F78A389A39AA31E8A1F8AF5
:10185000188E198E1A8E1A8A1B8A1C8A1D8A19865E
:101860001A861B861C861D860E940D216093E40348
:101870007093E5038093E6039093E7030D850F5F74
:101880000D8781E693E00E94CB1480E693E00E94EE
:101890004615BC018AE393E00E94231660E48AE3C4
:1018A00093E00E94EF150E948D04063440F460E23C
:1018B0008AE393E00E94EF15882309F43AC760E2B7
:1018C0008AE393E00E94EF15882309F430C70E9451
:1018D0000D216BA37CA38DA39EA381E693E00E94C0
:1018E000CB1461E081E693E00E94BB1465E081E6E1
:1018F00093E00E94B81481E693E00E94CB1412E3B7
:101900001D8760E084E693E00E94571C882309F459
:1019100049C080906C0390906D03A0906E03B090CE
:101920006F03C0907003D0907103E0907203F09049
:101930007303409074035090750360907603709029
:101940007703209178033091790340917A03509185
:101950007B0329833A834B835C83409168035091D6
:10196000690360916A0370916B0349875A876B879B
:101970007C87609164037091650380916603909108
:1019800067036FA378A789A79AA762E070E080E059
:1019900090E00E943E2161E084E693E00E94571CA3
:1019A000811102C00E940C061092B8031092B90374
:1019B0001092BA031092BB031092B0031092B103BD
:1019C0001092B2031092B3031092B4031092B503B5
:1019D0001092B6031092B7031092AC031092AD03AD
:1019E0001092AE031092AF031092A8031092A903B5
:1019F0001092AA031092AB031092940310929503D5
:101A000010929603109297031092980310929903E4
:101A100010929A0310929B031092A0031092A103BC
:101A20001092A2031092A30310929C0310929D03A4
:101A300010929E0310929F0320916C0330916D03CE
:101A400040916E0350916F03C501B4010E9473244D
:101A500020E030E040E05FE30E948F266B8F7C8FB8
:101A60008D8F9E8F2091700330917103409172038E
:101A700050917303C701B6010E9473246E877F875C
:101A8000888B998B20917403309175034091760374
:101A900050917703C301B2010E9473242B013C01D2
:101AA0008091780390917903A0917A03B0917B03A0
:101AB00089809A80AB80BC80880E991EAA1EBB1EAE
:101AC000C501B401A2E0CA2ED12CE12CF12CA70152
:101AD00096010E942A2729833A834B835C83809155
:101AE000680390916903A0916A03B0916B038984A4
:101AF0009A84AB84BC84880E991EAA1EBB1EC501A5
:101B0000B401A70196010E942A2729873A874B87AB
:101B10005C878090640390906503A0906603B0900A
:101B200067038BA69CA6ADA6BEA68091E00390910C
:101B3000E103A091E203B091E30340918803509147
:101B4000890360918A0370918B03841B950BA60B0C
:101B5000B70B89809A80AB80BC80880D991DAA1D27
:101B6000BB1D8093B8039093B903A093BA03B093BD
:101B7000BB03F091D803E091D903C090DA03D09071
:101B8000DB03E090DC03F090DD030091DE031091B5
:101B9000DF03BB0C8808982C540129813A814B81C2
:101BA0005C81682D782D882D982DAF2EBE2E0E9439
:101BB0005D282093B0033093B1034093B203509358
:101BC000B3036093B4037093B5038093B60390930B
:101BD000B703C090D403D090D503E090D603F09023
:101BE000D70320E030E0A9016E857F858889998937
:101BF0000E948A2620E030E040E05FE387FD07C0D6
:101C00006E857F85888999890E94732406C06E85B8
:101C10007F85888999890E9472240E949225C60E28
:101C2000D71EE81EF91EC092AC03D092AD03E0921D
:101C3000AE03F092AF03C090D003D090D103E090F8
:101C4000D203F090D30320E030E0A901C301B20138
:101C50000E948A2620E030E040E05FE387FD05C077
:101C6000C301B2010E94732404C0C301B2010E94E7
:101C700072240E949225C60ED71EE81EF91EC0923D
:101C8000A803D092A903E092AA03F092AB0320919B
:101C900006013091070140910801509109016B8DB7
:101CA0007C8D8D8D9E8D0E94E424609394037093AF
:101CB000950380939603909397036091C803709166
:101CC000C9038091CA039091CB03C0909003D09038
:101CD0009103E0909203F09093032E853F8548890D
:101CE00059890E947324A70196010E94722460936F
:101CF000A0037093A1038093A2039093A303609128
:101D0000C4037091C5038091C6039091C703C0902E
:101D10008C03D0908D03E0908E03F0908F03A3018D
:101D200092010E947324A70196010E94722460937D
:101D30009C0370939D0380939E0390939F036091F7
:101D4000A0037091A1038091A2039091A30320911D
:101D50009C0330919D0340919E0350919F030E94EC
:101D60007224609398037093990380939A039093DD
:101D70009B03C090CC03D090CD03E090CE03F090B5
:101D8000CF036F89788D898D9A8D28EE33E040E0FE
:101D900050E00E942A27C20ED31EE41EF51EC092F8
:101DA000A403D092A503E092A603F092A70360914A
:101DB00098037091990380919A0390919B032091CD
:101DC00084033091850340918603509187030E94DC
:101DD00072242FE832EC45EF5CE30E948A26181645
:101DE00024F481E0809383031BC060919803709179
:101DF000990380919A0390919B03209184033091E1
:101E0000850340918603509187030E9472242FE836
:101E100032EC45EF5CEB0E94DF2487FD10928303D8
:101E20008091980390919903A0919A03B0919B039C
:101E30008093840390938503A0938603B0938703D4
:101E400069857A858B859C850E94CA256B017C01FA
:101E500020910A0130910B0140910C0150910D012C
:101E60000E94E4242FE832EC45E15FE30E948A26D9
:101E70001816F4F462E081E693E00E941B150E94BC
:101E80000D210F89188D298D3A8D8F8C98A0A9A0CE
:101E9000BAA0081919092A093B0948015901860EF7
:101EA000971EA81EB91E8F8A988EA98EBA8E08C05A
:101EB0009E88911005C061E081E693E00E941B15A9
:101EC0000E940D216F8F78A389A39AA380E00E94BE
:101ED000E6070E940D2169877A878B879C87A895E2
:101EE00060E28AE393E00E94EF158823F9F08BA06B
:101EF0009CA0ADA0BEA006E9800E911CA11CB11C47
:101F00000E940D2186169706A806B906C8F781E635
:101F100093E00E94CB1481E693E00E94CB1468E525
:101F200072E080E090E00E943E2102C00E943D0BE2
:101F300060E88AE393E00E94EF1590E0FC0131979E
:101F4000EB30F10508F0DDC3EC5CFF4F0C94492742
:101F5000C090B803D090B903E090BA03F090BB03EF
:101F600060910E0170910F0180911001909111010B
:101F700020E030E040E751E40E94E4240E949925EB
:101F80006C157D058E059F0508F0B9C36091B803F7
:101F90007091B9038091BA039091BB0320910E0117
:101FA00030910F0140911001509111012FA738ABD2
:101FB00049AB5AAB0E94C8252FA538A949A95AA9EF
:101FC000ACC24090B0035090B1036090B2037090E7
:101FD000B3038090B4039090B5033090B603209083
:101FE000B70360910E0170910F01809110019091E3
:101FF000110120E030E040E751E40E94E4240E9417
:102000005B2559016A017B018C019201A301B40196
:10201000832D922D0E946F2809F008F470C3409020
:10202000B0035090B1036090B2037090B3038090FE
:10203000B4039090B5033090B6032090B70360913D
:102040000E0170910F01809110019091110120E01B
:1020500030E0A9010E948A2687FD0FC060910E0121
:1020600070910F01809110019091110120E030E0FA
:1020700040E05FE30E9473240EC060910E017091F6
:102080000F01809110019091110120E030E040E0BB
:102090005FE30E9472240E9492259B01AC01550FC0
:1020A000220B322FA9015B016C01E22EF22E022FCE
:1020B000122F9201A301B401832D922D0E94822739
:1020C000F22FE42F21E040E06F2F732F8E2F952FFA
:1020D0007BC020910A0130910B0140910C0150917D
:1020E0000D01C701B6010E94E4242FE832EC45E15E
:1020F0005FE30E94DF2487FF32C0609198037091F4
:10210000990380919A0390919B0320E030E040EA8C
:1021100050E40E948A2618160CF0F1C2C090B80351
:10212000D090B903E090BA03F090BB0360910E0128
:1021300070910F01809110019091110120E030E029
:1021400040E751E40E94E4240E9499256C157D0526
:102150008E059F0508F0D3C20E94480A33C02BA504
:102160003CA54DA55EA56FA178A589A59AA50E945D
:1021700073246B017C0120E030E0A9010E948A26D3
:1021800087FD25C02B8D3C8D4D8D5E8DC701B60121
:102190000E948F266B017C0120E030E0A9010E94A3
:1021A0008A2620E030E040E05FE387FD05C0C701FC
:1021B000B6010E94732404C0C701B6010E947224B4
:1021C0000E94922521E040E00E9432029AC224E15E
:1021D00030E04AE050E063E084E190E00E948D0549
:1021E000A89564EF71E080E090E00E943E212B8D85
:1021F0003C8D4D8D5E8DC701B6010E948F266B010F
:102200007C0120E030E0A9010E948A2620E030E035
:1022100040E05FE387FD05C0C701B6010E9473245B
:1022200004C0C701B6010E9472240E9492250E9438
:10223000CA2590580E949925C5CF6091AC03709132
:10224000AD038091AE039091AF0321E040E00E9486
:10225000320260E273E080E090E00E943E2124E6DA
:1022600030E045E050E063E882E390E00E948D05B5
:10227000A89524E630E045E050E063E082E390E09A
:102280000E948D0560E273E080E090E00E943E21B4
:102290006091A8037091A9038091AA039091AB0368
:1022A00091CF6091940370919503809196039091E2
:1022B000970342E00E94380324C260919803709112
:1022C000990380919A0390919B0320E030E0A9014B
:1022D0000E948A2618160CF012C260919803709121
:1022E000990380919A0390919B0341E0E3CF609121
:1022F000A0037091A1038091A2039091A30341E0F8
:102300000E94380360E273E080E090E00E943E218A
:1023100024E630E045E050E063E882E390E00E948C
:102320008D05A89524E630E045E050E063E082E3C7
:1023300090E00E948D0560E273E080E090E00E94F2
:102340003E2160919C0370919D0380919E0390912A
:102350009F03CBCF609198037091990380919A036A
:1023600090919B0320E030E040EA50E40E948A26EE
:1023700018160CF0C4C1C090B803D090B903E09017
:10238000BA03F090BB0360910E0170910F01809130
:1023900010019091110120E030E040E751E40E94EB
:1023A000E4240E9499256C157D058E059F0508F093
:1023B000A6C1C0909803D0909903E0909A03F09042
:1023C0009B036091B8037091B9038091BA03909117
:1023D000BB0320910E0130910F01409110015091EB
:1023E00011012FA738AB49AB5AAB0E94C8252FA5C6
:1023F00038A949A95AA90E94E4249B01AC018BC0C9
:102400001092E0031092E1031092E2031092E303B2
:102410001092B8031092B9031092BA031092BB0342
:102420001092C8031092C9031092CA031092CB03F2
:10243000109298031092990310929A0310929B03A2
:1024400010928403109285031092860310928703E2
:102450001092A0031092A1031092A2031092A30362
:102460001092C4031092C5031092C6031092C703C2
:1024700010929C0310929D0310929E0310929F0352
:102480008E849F84A888B98880929003909291034B
:10249000A0929203B092930340928C0350928D03CA
:1024A00060928E0370928F0389809A80AB80BC808B
:1024B0008092880390928903A0928A03B0928B0342
:1024C00080E00E94E6070E94F50481E00E94E60792
:1024D0000E940D2169877A878B879C8712C1209182
:1024E0000A0130910B0140910C0150910D01C7017F
:1024F000B6010E94E4242FE832EC45E15FE30E943C
:102500008A2618166CF420910A0130910B01409133
:102510000C0150910D01C701B6010E94E424E5CEE3
:102520009E88911008C062E081E693E00E941B152E
:1025300001E00E8BE6C061E081E693E00E941B158E
:102540001E8ADFC028EC30E04AE050E063E084E619
:1025500090E00E948D05A89528EC30E04AE050E01C
:1025600062EC84E690E00E948D0568E572E080E010
:1025700090E00E943E216091A4037091A503809198
:10258000A6039091A7030E94C82520E030E041E611
:1025900055E40E94E4242DEC3CEC4CEC5DE30E94FD
:1025A0008A2687FD36C08091A4039091A503A0914F
:1025B000A603B091A70386319D4FA105B105A0F4F4
:1025C0006091A4037091A5038091A6039091A70345
:1025D0000E94C82520E030E041E655E40E94E42452
:1025E00041E00E94380317C06091A4037091A503D5
:1025F0008091A6039091A70320E13EE040E050E0E7
:102600000E940827CA01B90121E040E00E9432027D
:1026100002C00E94360660E273E080E090E00E9413
:102620003E2124E630E045E050E063E882E390E0BC
:102630000E948D05A89524E630E045E050E063E077
:1026400082E390E00E948D0560E273E080E090E01C
:102650000E943E218091AC039091AD03A091AE0306
:10266000B091AF034091A8035091A9036091AA03D0
:102670007091AB035C016D011A012B019C01A60155
:1026800060E070E080E090E051016201E12CF12C0B
:1026900000E010E00E946628AAE00E94782809F075
:1026A0000CF423C14090B0035090B1036090B2038A
:1026B0007090B3038090B4039090B5033090B6034C
:1026C0002090B70360910E0170910F01809110016D
:1026D000909111019B01AC010E9473240E945B2523
:1026E00059016A017B018C019201A301B401832D80
:1026F000922D0E946F2811F008F042C0F6C00E948F
:102700003606A895C090E403D090E503E090E60378
:10271000F090E7030E940D2124E6C20ED11CE11CBB
:10272000F11CC616D706E806F90660F79DC81D8697
:10273000E8C889849A84AB84BC8489288A288B2839
:1027400009F4D6C00E940D2109851A852B853C8588
:10275000045D1E4F2F4F3F4F0617170728073907F5
:1027600008F0C6C081E00E94E6070E940D216A8B36
:102770007B8B8C8B9D8B19861A861B861C86C1CF02
:102780008091AC039091AD03A091AE03B091AF03E3
:102790004091A8035091A9036091AA037091AB03E3
:1027A000841B950BA60BB70B8C019D0140E050E0FC
:1027B000BA0189831A832B833C834D835E836F83A5
:1027C00078879090B0038090B1037090B2036090CE
:1027D000B3035090B4034090B5033090B6032090FB
:1027E000B70360910E0170910F01809110019091DB
:1027F000110120E030E0A9010E948A2687FD0FC068
:1028000060910E0170910F01809110019091110162
:1028100020E030E040E05FE30E9473240EC060914E
:102820000E0170910F01809110019091110120E033
:1028300030E040E05FE30E9472240E9492259B01F9
:10284000AC01550F220B322FA9015B016C01E22E66
:10285000F22E022F122F292D382D472D562D652DA2
:10286000742D832D922D0E94822759016A017B01CC
:102870008C0129813A814B815C8160E070E080E0CD
:1028800090E00E945127F22FE42F21E040E06F2FCB
:10289000732F8E2F952F0E94320260E273E080E04A
:1028A00090E00E943E2124E630E045E050E063E8FD
:1028B00082E390E00E948D05A89524E630E045E093
:1028C00050E063E082E390E00E948D0560E273E0F7
:1028D00080E090E00E943E216091BC037091BD03B6
:1028E0008091BE039091BF036DCC0E943606D5CF78
:1028F0008A889B88AC88BD8889288A288B2809F417
:1029000000CF0E940D210A891B892C893D8904551D
:10291000124F2F4F3F4F061717072807390708F0A8
:10292000F0CE82E00E94E6071A8A1B8A1C8A1D8A62
:10293000E8CE84E693E00E94511A81E693E00E947B
:10294000B11480E693E00E943F158AE393E00E9471
:10295000571586E393E00E94151882E393E00C94E8
:102960001F17FC0185E0808381E082831182089536
:10297000FC0160830895FC01618308958EEF90E06F
:10298000861B9109909389008093880090938B0017
:1029900080938A000895FC0190818EEF890F843026
:1029A00090F480918100887F8093810080918000E5
:1029B000816080938000809180008D7F8093800073
:1029C0008091810022C080918100887F8093810066
:1029D00080918000923C71F48160809380008091AE
:1029E000800082608093800080918100826080936B
:1029F00081000EC0826080938000809180008E7F75
:102A000080938000809181009770982B9093810033
:102A10008181882341F0828181FD219A828180FF1A
:102A200004C0229A02C0219822988181882311F043
:102A3000815081830895FC01628308952198229832
:102A40008FEF9FEF9093870080938600E0E8F0E09F
:102A5000F0938900E0938800F0938B00E0938A0064
:102A60008081806A8083808181608083E1E8F0E0FA
:102A70008081886080838081846080830895089548
:102A8000FC01862F608360E00C94DE2120E63AEEA4
:102A900040E050E061E0FC0180810E944A22611523
:102AA000710511F0CB01089581E090E00895FC01DB
:102AB00088E795E09283818380E590E09483838327
:102AC0008CED90E09683858388EB91E090878783F7
:102AD00088E090E09287818789E190E094878387FE
:102AE00081E090E09687858788EC90E0908B8787DF
:102AF00088EB9BE0928B818B0895CF92DF92EF92CF
:102B0000FF92CF93DF93FC01222319F081E08083B1
:102B100001C01082148A138A168A158A108E178AA9
:102B2000128E118E148E138E168E158E10A2178E85
:102B300012A211A213A214A215A2CB018059914096
:102B400089329A4008F044C0CA01805991408932C4
:102B50009A40F0F54617570748F4CB01841B950BB4
:102B6000AC014C3291E0590738F432C0461B570B88
:102B70004C3221E0520760F1EF0172836183BA01A8
:102B800080E090E00E94C8256B017C0124E83BEBCB
:102B90004BE35FE30E948F260E94992578876F831D
:102BA0002CED3AEB4BEB5EE3C701B6010E948F269A
:102BB0000E9499257E836D8329EA37E848E05EE329
:102BC000C701B6010E948F260E9499257C836B83E2
:102BD000DF91CF91FF90EF90DF90CF900895FC01AF
:102BE000603281F020F4603179F484A1089560347A
:102BF00029F0603849F493A113A202C094A114A251
:102C0000892F089583A1089580E00895FC018181B2
:102C100092810895FC01878190850895FC01148AB2
:102C2000138A168A158A108E178A128E118E148EA8
:102C3000138E168E158E10A2178E12A211A213A239
:102C400014A215A20895CF93DF93FC018785908984
:102C50006817790708F4F0C0818992898617970769
:102C600008F4EAC08181928125813681AC01421B42
:102C7000530B6417750750F4208121110FC0278969
:102C8000308D2F5F3F4F308F278B2EC0280F391F7D
:102C90002617370750F420812111F1CF218D328D75
:102CA0002F5F3F4F328F218F1FC023813481A901B5
:102CB000480F591F64177507B8F4AC01421B530B3A
:102CC0004617570788F4238D348D2F5F3F4F348F7D
:102CD000238F108E178A128E118E168E158E10A2CB
:102CE000178E15A212A211A227813085AC01421BBA
:102CF000530B6417750748F4808181110EC0858DD0
:102D0000968D0196968F858F12C0820F931F86171E
:102D1000970768F480818111F2CF878D90A1019689
:102D200090A3878F81A192A1019692A381A3278965
:102D3000308D858596858217930750F4438D548D89
:102D4000452B31F0838994890196948B838B0EC037
:102D5000418D528D8417950760F4838D948D892B56
:102D600041F0858996890196968B858B84A3148E74
:102D7000138E83899489892B21F085899689892BE3
:102D800031F4232B81F0818D928D892B61F0148A8F
:102D9000138A168A158A85E084A3108E178A128EEC
:102DA000118E148E138E238D348D8185928582171A
:102DB000930768F4838983A385899689009711F026
:102DC0008C5F83A3148A138A168A158A35C083857B
:102DD0009485258D368D8217930728F425A121111E
:102DE00002C089E009C0278D30A18217930760F4E3
:102DF00085A1811109C08AE083A3148A138A168AE7
:102E0000158A81E085A318C081A192A1853B910517
:102E100028F012A211A28BE083A30EC083899489AB
:102E2000059720F485899689059730F0EF01CF0149
:102E30000E940E168CE08CA3DF91CF910895FC01C7
:102E400011821082138212820895F999FECF72BD09
:102E500061BDF89A80B508950F931F93CF93DF93C8
:102E60001F92CDB7DEB78B0149830E942517498198
:102E7000841741F0F999FECF1FBA12BD01BD40BDC4
:102E8000FA9AF99A0F90DF91CF911F910F910895BF
:102E9000FC01738362830895FC017183608308954C
:102EA000CF93DF93EC01462F688179810E942C1724
:102EB00088819981019699838883DF91CF910895C4
:102EC000CF92DF92EF92FF921F93CF93DF931F92E7
:102ED000CDB7DEB77C01162F6B019C2D911B94178B
:102EE00048F4F60161916F01C70149830E945017B0
:102EF0004981F3CF0F90DF91CF911F91FF90EF9019
:102F0000DF90CF900895FC01608171819B012F5F5C
:102F10003F4F318320830C942517CF92DF92EF929D
:102F2000FF921F93CF93DF931F92CDB7DEB77C0143
:102F3000162F6B019C2D911B941748F4C7014983F0
:102F40000E948317F60181936F014981F3CF0F909F
:102F5000DF91CF911F91FF90EF90DF90CF90089578
:102F60000C945017CF93DF9300D0CDB7DEB76983B1
:102F70007A8342E0BE016F5F7F4F0E9460170F901F
:102F80000F90DF91CF9108950C948317CF93DF9327
:102F900000D0CDB7DEB742E0BE016F5F7F4F0E9429
:102FA0008D178A8190E0982F88272981820F911DA3
:102FB0000F900F90DF91CF910895CF93DF9300D0C2
:102FC00000D0CDB7DEB744E0BE016F5F7F4F0E94F7
:102FD0008D17FE01319620E030E040E050E0BA016C
:102FE000819190E0A0E0B0E0022E04C0880F991F0C
:102FF000AA1FBB1F0A94D2F7480F591F6A1F7B1FD5
:10300000285F3F4F2032310559F7CB01BA010F90AD
:103010000F900F900F90DF91CF910895DC01ED910B
:10302000FC910190F081E02D0994FC011082128244
:1030300011828FEF83830895CF93DF93EC01688330
:1030400088EE93E00E94FA1D688188EE93E00E946A
:10305000091E88EE93E00E948D1E811106C081E05A
:103060009B81992319F080E001C081E0DF91CF912D
:103070000895FC01728361830895CF92DF92EF92ED
:10308000FF920F931F93CF93DF938C01F62EC72EE1
:10309000E42EFC01608188EE93E00E94091EF80195
:1030A0006181728188EE93E00E940E18DF2CCF2D93
:1030B000DC2D8C2F8D198E1560F4699188EE93E0CC
:1030C0000E94A91DF80181819281019692838183DA
:1030D000F0CF88EE93E00E948D1E91E0811101C037
:1030E00090E0892FDF91CF911F910F91FF90EF908A
:1030F000DF90CF900895CF93DF9300D000D0CDB76D
:10310000DEB749835A836B837C8344E0BE016F5FE3
:103110007F4F0E943D180F900F900F900F90DF91FE
:10312000CF9108950C947B18AF92BF92DF92EF92EB
:10313000FF920F931F93CF93DF93CDB7DEB72897FE
:103140000FB6F894DEBF0FBECDBF5C01E02FD22ECC
:10315000E32EF42EB52FA62FF72F0983202F312F22
:103160004D2D5E2D6F2D7B2F8A2F9F2F08E00E9403
:1031700041282A832E2F312F4D2D5E2D6F2D7B2F31
:103180008A2F9F2F00E10E9441282B832E2F312F61
:103190004D2D5E2D6F2D7B2F8A2F9F2F08E10E94D2
:1031A00041282C832E2F312F4D2D5E2D6F2D7B2FFF
:1031B0008A2F9F2F00E20E9441282D832E2F312F2E
:1031C0004D2D5E2D6F2D7B2F8A2F9F2F08E20E94A1
:1031D00041282E832E2F312F4D2D5E2D6F2D7B2FCD
:1031E0008A2F9F2F00E30E9441282F832E2F312FFB
:1031F0004D2D5E2D6F2D7B2F8A2F9F2F08E30E9470
:103200004128288748E0BE016F5F7F4FC5010E94BB
:103210003D1828960FB6F894DEBF0FBECDBFDF91E4
:10322000CF911F910F91FF90EF90DF90BF90AF90E3
:1032300008959F92AF92BF92CF92DF92EF92FF924A
:103240000F931F93CF93DF938C01A62E972EB42E4E
:10325000FC01608188EE93E00E94091EF801618103
:10326000728188EE93E00E940E1888EE93E00E942F
:103270008D1ECB2DD0E0F801608170E0AE0188EEAC
:1032800093E00E948A1E0E940D216B017C01F4E6EE
:10329000CF0ED11CE11CF11C88EE93E00E941D1D95
:1032A0008C179D0739F00E940D21C616D706E80637
:1032B000F90690F7FA2CCA2DD92D8C2F8F198B1562
:1032C00060F488EE93E00E94251D8993F8018181C6
:1032D0009281019692838183F0CFDF91CF911F91EC
:1032E0000F91FF90EF90DF90CF90BF90AF909F90A5
:1032F0000895CF92DF92EF92FF92CF93DF9300D0A9
:1033000000D0CDB7DEB744E0BE016F5F7F4F0E94B3
:103310001919FE01319620E030E060E070E0CB0149
:103320004191C42ED12CE12CF12C022E04C0CC0CE6
:10333000DD1CEE1CFF1C0A94D2F76C0D7D1D8E1D4A
:103340009F1D285F3F4F2032310551F70F900F909E
:103350000F900F90DF91CF91FF90EF90DF90CF9083
:1033600008952F923F924F925F926F927F928F9229
:103370009F92AF92BF92CF92DF92EF92FF920F9304
:103380001F93CF93DF93CDB7DEB728970FB6F8948E
:10339000DEBF0FBECDBF48E0BE016F5F7F4F0E9412
:1033A0001919DE011196812C912C212C312C412CE4
:1033B000512C612CE0E0712CF0E02D9130E040E0E8
:1033C00050E060E070E080E090E0082D0E94262848
:1033D00059016A017B018C019101A201662D7E2FAA
:1033E000872D9F2F0E945D2819012A01662EE72F45
:1033F000782EF92F88E0880E911C80E488169104BD
:10340000E1F69101A201662D7E2F872D9F2F289630
:103410000FB6F894DEBF0FBECDBFDF91CF911F91E5
:103420000F91FF90EF90DF90CF90BF90AF909F9063
:103430008F907F906F905F904F903F902F90089566
:10344000CF93DF9300D000D0CDB7DEB744E0BE010C
:103450006F5F7F4F0E941919FE01319620E030E026
:1034600040E050E0BA01819190E0A0E0B0E0022E8F
:1034700004C0880F991FAA1FBB1F0A94D2F7480FD8
:10348000591F6A1F7B1F285F3F4F2032310559F7B4
:10349000CB01BA010F900F900F900F90DF91CF9159
:1034A0000895FC01118E108E0895FC01718F608FBC
:1034B0000895EF92FF920F931F93CF93DF938B01A9
:1034C0007901460F571FFA013397C081D0E0DC2FF6
:1034D000CC2731968081C80FD11DFB01418150E07E
:1034E0006E5F7F4FC9010E94C228F801618170E0C0
:1034F000C7010E94051D21E08C179D0709F020E0FF
:10350000822FDF91CF911F910F91FF90EF9008953F
:103510002F923F924F925F926F927F928F929F92E3
:10352000AF92BF92CF92DF92EF92FF920F931F93D1
:10353000CF93DF93CDB7DEB7C150D1400FB6F8942B
:10354000DEBF0FBECDBF5C013B010E940D211B0100
:103550002C0124E6220E311C411C511CCF5FDE4F92
:103560001882C150D140F12CE12CC12CDD24D39420
:1035700000E010E00E940D21621573058405950599
:1035800008F052C0E11052C088248394912C8C0E14
:103590009D1E800E911ED50158968D919C91599734
:1035A000DC01ED91FC910480F581E02D0995892BDA
:1035B00009F30F5F1F4FD50158968D919C91599734
:1035C000DC01ED91FC910680F781E02D0995F40175
:1035D00081934F010230110581F49981923091F469
:1035E0002A8130E06901F5E0CF0ED11CCF5FDE4FBC
:1035F0002883C150D140F32E05C0011521E01207E8
:1036000008F0B8CF0C151D0531F6833059F4E1E010
:10361000F0E0EC0FFD1FE00FF11F10826801EE24B7
:10362000E394A8CF6801B7CFEE2051F09301A60133
:10363000BE016F5F7F4FC5010E94591A811103C0FF
:1036400080E090E006C0CF5FDE4F8881C150D1405E
:103650009F2DCF5FDE4F0FB6F894DEBF0FBECDBFFC
:10366000DF91CF911F910F91FF90EF90DF90CF905E
:10367000BF90AF909F908F907F906F905F904F9092
:103680003F902F9008958F929F92AF92BF92CF92CA
:10369000DF92EF92FF920F931F93CF93DF93CDB7FB
:1036A000DEB7DA950FB6F894DEBF0FBECDBF6C0162
:1036B0005B018A01BA01C5010E94051D982E892E61
:1036C000013081E018073CF482E089830A8392E0AC
:1036D000E92EF12C07C083E089831A830B8383E0F2
:1036E000E82EF12CA801B50181E090E08C0F9D1F20
:1036F0008E0D9F1D0E94C2280E0D1F1DE1E0F0E0FF
:10370000EC0FFD1FE00FF11F8082FE01E00FF11FA3
:1037100092827801A3E0EA0EF11CFE01E00FF11F96
:1037200083E08383E1E0F0E0EC0FFD1FEE0DFF1D71
:103730001082F601808D918DDC01ED91FC9102806B
:10374000F381E02DA701BE016F5F7F4F0995C7018F
:10375000D3950FB6F894DEBF0FBECDBFDF91CF91EA
:103760001F910F91FF90EF90DF90CF90BF90AF909F
:103770009F908F900895EF92FF920F931F93CF9396
:10378000DF9300D000D0CDB7DEB7FB01208124301D
:1037900009F081C07C018B010F5F1F4F88E090E032
:1037A000A0E0B0E089839A83AB83BC839E012F5F46
:1037B0003F4F40E050E068EC72E4C8010E94F11C09
:1037C000F701608371838283938389819A81AB81BE
:1037D000BC810A96A11DB11D89839A83AB83BC83EA
:1037E000BE016F5F7F4FC8010E94AA1CF70164836E
:1037F0007583868397839E012F5F3F4F40E050E0A3
:1038000060E271E4C8010E94D91CF70160877187EA
:103810008287938789819A81AB81BC810896A11D9B
:10382000B11D89839A83AB83BC839E012F5F3F4F79
:1038300040E050E46CE176E4C8010E94F11CF7011D
:1038400064877587868797879E012F5F3F4F40E08B
:1038500050E46CE176E4C8010E94F11CF701608B32
:10386000718B828B938B89819A81AB81BC81049609
:10387000A11DB11D89839A83AB83BC83BE016F5F99
:103880007F4FC8010E94AA1CF701648B758B868B41
:10389000978B81E001C080E00F900F900F900F9008
:1038A000DF91CF911F910F91FF90EF9008950F93AB
:1038B0001F93CF93DF93CDB7DEB7DA950FB6F894A9
:1038C000DEBF0FBECDBF8C01611105C084E08983CE
:1038D00041E050E007C082E289836A8384E08B8301
:1038E00043E050E0BE016F5F7F4FC8010E94431B61
:1038F000BE016F5F7F4FC8010E94881AC8973CF0D5
:10390000BE016F5F7F4FC8010E94BB1B01C080E0FA
:10391000D3950FB6F894DEBF0FBECDBFDF91CF9128
:103920001F910F910895DB014D915D916D917C91F7
:103930001397FC01E40FF51F8181208190E04E5F19
:103940005F4F6F4F7F4F4D935D936D937C931397B4
:10395000922B0895CF92DF92EF92FF920F931F93D5
:10396000FB010081118122813381DC01A00FB11F95
:1039700013966C9113974C91C62ED12CE12CF12CFF
:10398000F42A11964C911197E42A12964C91C70192
:10399000B601742B0C5F1F4F2F4F3F4F00831183D5
:1039A000228333831F910F91FF90EF90DF90CF9090
:1039B0000895CF92DF92EF92FF926A017B01B901E5
:1039C0000E94931CBC01990F880B990B0E94CA2579
:1039D000A70196010E94E424FF90EF90DF90CF9022
:1039E0000895CF92DF92EF92FF926A017B01B901B5
:1039F0000E94AA1C0E94CA25A70196010E94E424E5
:103A0000FF90EF90DF90CF900895DC01680F791F51
:103A100080E090E0A617B70779F02D91E92FFF27F6
:103A2000E227EE0FFF1FEE5EFE4F20813181982FBF
:103A3000882782279327EECF089580911C0490E079
:103A400020911D04821B9109089590911D0480917D
:103A50001C04981750F4E92FF0E0E25EFB4F208140
:103A600030E09F5F90931D0402C02FEF3FEFC9012C
:103A70000895E0911D0480911C04E81730F4F0E0F3
:103A8000E25EFB4F808190E008958FEF9FEF0895F5
:103A90000895AC01E091F403F091F5033097E1F063
:103AA00090911D0480911C049817B0F090E0292F8C
:103AB00030E02617370754F4DA01A20FB31F8C91B8
:103AC000D901A25EBB4F8C939F5FF1CF10921D0472
:103AD00060931C04CB0109940895E091F603F091E2
:103AE000F703309729F01092FA031092F903099422
:103AF0000895CF92DF92EF92FF920F931F93CF938F
:103B0000DF937C01262F972F8A018091F803882369
:103B100091F0C62FD72F6E01C40ED51ECC15DD0532
:103B200071F06991D701ED91FC910190F081E02D48
:103B3000C7010995F3CF642F822F0E94541FC8013B
:103B4000DF91CF911F910F91FF90EF90DF90CF9079
:103B50000895CF93DF931F92CDB7DEB7698320918D
:103B6000F8032223D1F02091F903203240F021E024
:103B700030E0FC013383228380E090E015C0809127
:103B8000FA03E82FF0E0E550FC4F998190838F5FB6
:103B90008093FA038093F90305C061E0CE0101969A
:103BA0000E94541F81E090E00F90DF91CF91089523
:103BB000FC011382128288EE93E0A0E0B0E08483DF
:103BC0009583A683B78386E193E0918380830895EC
:103BD00010921D0410921C041092FA031092F90323
:103BE0000E94941E8DE69DE10E94811F89E49DE163
:103BF0000C947C1FCF93DF931F92CDB7DEB7698300
:103C00000E94E81D6981862F0F90DF91CF910C945F
:103C1000B21E81E08093F80360931B041092FA03B4
:103C20001092F90308950F93062F21E04091F903B4
:103C30006BEF73E080911B040E94FE1E1092FA034A
:103C40001092F9031092F8030F9108954F925F922A
:103C50006F927F92AF92BF92CF92EF92FF920F93AB
:103C60001F93CF93DF935C01F62ED42F28013901E7
:103C7000EE2021F10E94091ECE2DC43008F0C3E0D1
:103C8000C150C0F0D501ED91FC91B8E0CB9FC001CF
:103C90001124A301920104C05695479537952795A5
:103CA0008A95D2F7CA01B9010190F081E02DC501D2
:103CB0000995E6CF60E0C5010E94131E4D2FD13259
:103CC00008F040E22C2D6EE174E08F2D0E94B61EAC
:103CD00010921D0480931C04DF91CF911F910F91CE
:103CE000FF90EF90CF90BF90AF907F906F905F90DC
:103CF0004F900895CF92EF920F931F93C22EE12C15
:103D000000E010E098010E94261E1F910F91EF9095
:103D1000CF90089521E00C947A1E61E00C94131E5C
:103D200088EE93E00C94D81D1092AB0481E0809350
:103D3000A9041092A80461E082E10E941A2261E0C5
:103D400083E10E941A22E9EBF0E080818E7F80837C
:103D500080818D7F808388E48093B80085E48093A0
:103D6000BC000895880F8093BA000895413208F08E
:103D700043C09091AB049111FCCF91E09093AB04C0
:103D80002093A9042FEF20933E0410928304240F64
:103D9000209382049093AA049091AA04880F892BFF
:103DA0008093AA048091A804813061F41092A80441
:103DB0008091AA048093BB008091BC0083FDF8CF62
:103DC00085EC01C085EE8093BC008091AB0481300E
:103DD000E1F380918304841710F44091830424E874
:103DE00034E0FB01D9018A2F821B841718F48D91CE
:103DF0008193F9CF842F089580E008950F93413285
:103E000008F04AC09091AB049111FCCF32E030939E
:103E1000AB040093A9043FEF30933E041092830457
:103E200040938204FB0164E874E0DB013A2F361B07
:103E3000341718F431913D93F9CF1092AA043091C0
:103E4000AA04880F832B8093AA048091A804813050
:103E500061F41092A8048091AA048093BB00809121
:103E6000BC0083FDF8CF85EC01C085EE8093BC00DB
:103E7000222321F08091AB048230D1F380913E0463
:103E80008F3F79F080913E04803241F080913E0472
:103E9000803331F094E005C091E003C092E001C0AE
:103EA00093E0892F0F91089540916004262F30E010
:103EB000240F311D21323105DCF42091AB04243074
:103EC000C9F4FC0180E090E0861758F4309160045A
:103ED0002191DC01AE59BB4FA30FB11D2C9301966C
:103EE000F3CF80916004680F6093600480E00895D0
:103EF00081E0089582E008959093A5048093A4043E
:103F000008959093A7048093A604089585ED809367
:103F1000BC008091BC0084FDFCCF1092AB040895DE
:103F200085EC8093BC001092AB0408951F920F9211
:103F30000FB60F9211242F933F934F935F936F937C
:103F40007F938F939F93AF93BF93EF93FF93809152
:103F5000B900887F803609F49EC078F5883209F46C
:103F60005DC090F4803109F456C038F4882309F418
:103F7000F5C0883009F44FC0F5C0883109F44EC04F
:103F8000803209F45FC0EEC0803409F46AC058F48E
:103F9000803309F457C0883309F0E4C080933E04AD
:103FA0000E94901FDFC0803509F44FC0883509F4A6
:103FB0005DC0883409F0D6C0D3C0883909F4C4C0C4
:103FC000A8F4883709F467C038F4883609F463C068
:103FD000803709F460C0C6C0883809F4B5C080399C
:103FE00009F45FC0803809F0BDC05BC0803B09F4B4
:103FF00083C038F4803A09F466C0883A09F47CC07A
:10400000B1C0803C09F4A4C0883C09F4A1C0883B3D
:1040100009F487C0A7C08091AA0410C090918304BE
:1040200080918204981770F5E091830481E08E0FEF
:1040300080938304F0E0EC57FB4F80818093BB00BA
:1040400085EC83C080933E048BC0E091830481E0C3
:104050008E0F809383048091BB00F0E0EC57FB4F00
:10406000808390918304809182046BC0E0918304EB
:1040700081E08E0F809383048091BB00F0E0EC57C9
:10408000FB4F80838091A90481116AC081E08093F5
:10409000A80484EA5EC083E08093AB0410923F04DE
:1040A000CFCF80913F04803208F04EC0E0913F04B2
:1040B00081E08E0F80933F048091BB00F0E0E05CD4
:1040C000FB4F8083BDCF0E94901F80913F048032C0
:1040D00030F4E0913F04F0E0E05CFB4F108260912F
:1040E0003F0470E0E091A404F091A50480E494E022
:1040F000099510923F0436C084E08093AB0410927F
:10410000610410926004E091A604F091A70409955F
:1041100080916004811105C081E080936004109259
:104120006204E091610481E08E0F80936104F0E00D
:10413000EE59FB4F80818093BB0090916104809188
:104140006004981708F47CCF85E88093BC000AC00F
:1041500085EC8093BC001092AB0404C010923E0426
:104160000E94861FFF91EF91BF91AF919F918F9118
:104170007F916F915F914F913F912F910F900FBE63
:104180000F901F9018951F920F920FB60F92112447
:104190002F933F938F939F93AF93BF938091AD04E1
:1041A0009091AE04A091AF04B091B0043091AC04F2
:1041B00023E0230F2D3720F40196A11DB11D05C06A
:1041C00026E8230F0296A11DB11D2093AC04809315
:1041D000AD049093AE04A093AF04B093B00480916B
:1041E000B1049091B204A091B304B091B4040196CB
:1041F000A11DB11D8093B1049093B204A093B304A8
:10420000B093B404BF91AF919F918F913F912F9143
:104210000F900FBE0F901F9018952FB7F8946091D4
:10422000AD047091AE048091AF049091B0042FBFA3
:1042300008953FB7F8948091B1049091B204A09191
:10424000B304B091B40426B5A89B05C02F3F19F064
:104250000196A11DB11D3FBFBA2FA92F982F882706
:10426000820F911DA11DB11DBC01CD0142E0660F61
:10427000771F881F991F4A95D1F708958F929F92B3
:10428000AF92BF92CF92DF92EF92FF926B017C01CF
:104290000E9419214B015C01C114D104E104F10415
:1042A00001F10E9471240E941921DC01CB018819BF
:1042B0009909AA09BB09883E9340A105B10560F39D
:1042C00021E0C21AD108E108F10888EE880E83E0E7
:1042D000981EA11CB11CC114D104E104F10419F70A
:1042E000DBCFFF90EF90DF90CF90BF90AF909F908B
:1042F0008F900895789484B5826084BD84B5816080
:1043000084BD85B5826085BD85B5816085BDEEE6DD
:10431000F0E0808181608083E1E8F0E010828081BC
:1043200082608083808181608083E0E8F0E080812A
:1043300081608083E1EBF0E0808184608083E0EB4A
:10434000F0E0808181608083EAE7F0E08081846032
:10435000808380818260808380818160808380818E
:10436000806880831092C1000895843081F028F421
:10437000823099F08330A1F008958830A9F0893017
:10438000B9F08530D1F4809180008F7D03C0809199
:1043900080008F7780938000089584B58F7702C066
:1043A00084B58F7D84BD08958091B0008F7703C060
:1043B0008091B0008F7D8093B0000895CF93DF93FC
:1043C00090E0FC01E15EFC4F2491FC01EA5CFC4FB3
:1043D0008491882361F190E0880F991FFC01EF59C7
:1043E000FC4FC591D491FC01E95AFC4FA591B491C1
:1043F000611109C09FB7F894888120958223888332
:10440000EC912E230BC0623061F49FB7F894388191
:10441000822F809583238883EC912E2B2C939FBF32
:1044200006C08FB7F894E8812E2B28838FBFDF91C9
:10443000CF9108951F93CF93DF93282F30E0F90198
:10444000E85FFC4F8491F901E15EFC4FD491F901E2
:10445000EA5CFC4FC491CC23C9F0162F81110E9455
:10446000B521EC2FF0E0EE0FFF1FE95AFC4FA591AC
:10447000B4918FB7F894111105C09C91ED2FE09580
:10448000E92302C0EC91ED2BEC938FBFDF91CF912C
:104490001F9108950F931F9390E0FC01E15EFC4F84
:1044A0007491FC01EA5CFC4FE491662311F0672FE4
:1044B00001C060E0F0E0EE0FFF1FE35BFC4F859171
:1044C000949189019A013F70462F672F0E94E30162
:1044D000611571058105910549F0DC01CB0101965B
:1044E000A11DB11DBC01CD019F7003C060E070E053
:1044F000CB011F910F910895FC01918D228D892F81
:1045000090E0805C9F4F821B91098F7399270895DB
:10451000FC01918D828D981731F0828DE80FF11D8D
:10452000858D90E008958FEF9FEF0895FC01918DA8
:10453000828D981761F0828DDF01A80FB11D5D9605
:104540008C91928D9F5F9F73928F90E008958FEF73
:104550009FEF08958FEF93E2892B49F080E090E080
:10456000892B29F00E94FF2381110C9400000895EB
:10457000FC01848DDF01A80FB11DA35ABF4F2C9100
:10458000848D90E001968F739927848FA689B789CF
:104590002C93A089B1898C9180648C93938D848DA8
:1045A000981306C00288F389E02D80818F7D808377
:1045B0000895CF93DF93EC01888D8823C9F0EA89B1
:1045C000FB89808185FD05C0A889B9898C9186FD0C
:1045D0000FC00FB607FCF5CF808185FFF2CFA88909
:1045E000B9898C9185FFEDCFCE010E94B822E7CF2B
:1045F000DF91CF910895EF92FF920F931F93CF9386
:10460000DF93EC0181E0888F9B8D8C8D981305C022
:10461000E889F989808185FD24C0F62E0B8D10E094
:104620000F5F1F4F0F731127E02E8C8DE8120CC007
:104630000FB607FCFACFE889F989808185FFF5CFAD
:10464000CE010E94B822F1CF8B8DFE01E80FF11D43
:10465000E35AFF4FF0820B8FEA89FB8980818062E9
:1046600007C0EE89FF896083E889F98980818064C9
:10467000808381E090E0DF91CF911F910F91FF90B7
:10468000EF900895CF92DF92EF92FF921F93CF9316
:10469000DF93EC016A017B01122FE889F98982E03E
:1046A00080834115514E61057105B1F060E079E0FC
:1046B0008DE390E0A70196010E940827DA01C90165
:1046C0000197A109B109B695A79597958795AC0172
:1046D000411580E15807A8F0E889F989108260E85F
:1046E00074E88EE190E0A70196010E940827BA01C4
:1046F000A90141505109610971097695679557954E
:104700004795EC85FD855083EE85FF854083188EA7
:10471000EC89FD891083EA89FB898081806180832F
:10472000EA89FB89808188608083EA89FB898081AE
:1047300080688083EA89FB8980818F7D8083DF9117
:10474000CF911F91FF90EF90DF90CF9008951F922F
:104750000F920FB60F9211242F938F939F93EF9385
:10476000FF93E091C504F091C6048081E091CB04F1
:10477000F091CC0482FD12C090818091CE048F5FB5
:104780008F732091CF04821751F0E091CE04F0E0B6
:10479000EB54FB4F958F8093CE0401C08081FF9135
:1047A000EF919F918F912F910F900FBE0F901F90BF
:1047B00018951F920F920FB60F9211242F933F93CB
:1047C0004F935F936F937F938F939F93AF93BF9319
:1047D000EF93FF9385EB94E00E94B822FF91EF9155
:1047E000BF91AF919F918F917F916F915F914F9109
:1047F0003F912F910F900FBE0F901F90189585EB52
:1048000094E00E947C2221E0892B09F420E0822F91
:104810000895E5EBF4E01382128288EE93E0A0E0C5
:10482000B0E084839583A683B78386E293E0918387
:10483000808385EC90E09587848784EC90E097876F
:10484000868780EC90E0918B808B81EC90E0938B5D
:10485000828B82EC90E0958B848B86EC90E0978B3A
:10486000868B118E128E138E148E0895CF92DF9246
:10487000EF92FF920F931F93CF93DF936C017A0116
:104880008B01C0E0D0E0CE15DF0589F0D8016D9135
:104890008D01D601ED91FC910190F081E02DC601D2
:1048A0000995892B11F47E0102C02196ECCFC70136
:1048B000DF91CF911F910F91FF90EF90DF90CF90FC
:1048C000089508950E947A210E9461240E94C809D7
:1048D000CAEAD2E20E94160C2097E1F30E94AA22B3
:1048E000F9CF08955058BB27AA270E948A240C9418
:1048F00050260E94422638F00E94492620F039F4C2
:104900009F3F19F426F40C942F260EF4E095E7FB54
:104910000C942926E92F0E94612658F3BA176207E2
:1049200073078407950720F079F4A6F50C94832685
:104930000EF4E0950B2EBA2FA02D0B01B9019001BA
:104940000C01CA01A0011124FF27591B99F0593FFE
:1049500050F4503E68F11A16F040A22F232F342F46
:104960004427585FF3CF469537952795A795F04094
:104970005395C9F77EF41F16BA0B620B730B840BA9
:10498000BAF09150A1F0FF0FBB1F661F771F881F61
:10499000C2F70EC0BA0F621F731F841F48F48795B9
:1049A00077956795B795F7959E3F08F0B0CF9395AB
:1049B000880F08F09927EE0F9795879508950E9424
:1049C000052608F481E008950E94F8240C945026EE
:1049D0000E94492658F00E94422640F029F45F3F89
:1049E00029F00C94292651110C9484260C942F261E
:1049F0000E94612668F39923B1F3552391F3951B27
:104A0000550BBB27AA2762177307840738F09F5FEF
:104A10005F4F220F331F441FAA1FA9F335D00E2E5C
:104A20003AF0E0E832D091505040E695001CCAF7C9
:104A30002BD0FE2F29D0660F771F881FBB1F26178C
:104A400037074807AB07B0E809F0BB0B802DBF0163
:104A5000FF2793585F4F3AF09E3F510578F00C9432
:104A600029260C9484265F3FE4F3983ED4F3869580
:104A700077956795B795F7959F5FC9F7880F911D53
:104A80009695879597F90895E1E0660F771F881F3F
:104A9000BB1F621773078407BA0720F0621B730BF2
:104AA000840BBA0BEE1F88F7E0950895BEE304D09F
:104AB00008F490E80895BFE322273327A9010E9454
:104AC000692660F19F5748F1B91740F1BFE3B91B60
:104AD0009927B8503AF4660F771F881F991FB3952E
:104AE000D2F316C0B8504AF0232F342F452F562F3B
:104AF000672F782F8827B850BAF7B85F49F08695A6
:104B0000779567955795479537952795BA95B9F74E
:104B100016F40E94322688940895889460E070E02C
:104B2000CB0108950E9499256894B1110C948426B4
:104B300008950E94692688F09F5798F0B92F992709
:104B4000B751B0F0E1F0660F771F881F991F1AF078
:104B5000BA95C9F714C0B13091F00E948326B1E034
:104B600008950C948326672F782F8827B85F39F033
:104B7000B93FCCF3869577956795B395D9F73EF411
:104B800090958095709561957F4F8F4F9F4F0895B9
:104B9000E89409C097FB3EF49095809570956195D7
:104BA0007F4F8F4F9F4F9923A9F0F92F96E9BB278D
:104BB0009395F695879577956795B795F111F8CF09
:104BC000FAF4BB0F11F460FF1BC06F5F7F4F8F4F74
:104BD0009F4F16C0882311F096E911C0772321F06A
:104BE0009EE8872F762F05C0662371F096E8862F02
:104BF00070E060E02AF09A95660F771F881FDAF759
:104C0000880F9695879597F90895990F0008550F85
:104C1000AA0BE0E8FEEF16161706E807F907C0F042
:104C200012161306E407F50798F0621B730B840B4A
:104C3000950B39F40A2661F0232B242B252B21F424
:104C400008950A2609F4A140A6958FEF811D811DC4
:104C5000089597F99F6780E870E060E008959FEFFE
:104C600080EC08959095809570956095509540954D
:104C7000309521953F4F4F4F5F4F6F4F7F4F8F4F75
:104C80009F4F089500240A94161617061806090661
:104C9000089500240A9412161306140605060895B2
:104CA000092E0394000C11F4882352F0BB0F40F43A
:104CB000BF2B11F460FF04C06F5F7F4F8F4F9F4F7A
:104CC000089557FD9058440F551F59F05F3F71F0FC
:104CD0004795880F97FB991F61F09F3F79F0879563
:104CE0000895121613061406551FF2CF4695F1DFEC
:104CF00008C0161617061806991FF1CF869571057C
:104D0000610508940895E894BB2766277727CB01AF
:104D100097F908950E94052608F48FEF08950E94E0
:104D2000A2260C9450260E94422638F00E94492662
:104D300020F0952311F00C9429260C942F26112491
:104D40000C9484260E94612670F3959FC1F3950F01
:104D500050E0551F629FF001729FBB27F00DB11DFF
:104D6000639FAA27F00DB11DAA1F649F6627B00D8F
:104D7000A11D661F829F2227B00DA11D621F739F78
:104D8000B00DA11D621F839FA00D611D221F749F86
:104D90003327A00D611D231F849F600D211D822FCD
:104DA000762F6A2F11249F5750409AF0F1F08823F4
:104DB0004AF0EE0FFF1FBB1F661F771F881F915021
:104DC0005040A9F79E3F510580F00C9429260C9481
:104DD00084265F3FE4F3983ED4F3869577956795F4
:104DE000B795F795E7959F5FC1F7FE2B880F911D4B
:104DF0009695879597F90895991B79E004C0991FB6
:104E0000961708F0961B881F7A95C9F78095089524
:104E1000A1E21A2EAA1BBB1BFD010DC0AA1FBB1FBE
:104E2000EE1FFF1FA217B307E407F50720F0A21B30
:104E3000B30BE40BF50B661F771F881F991F1A949D
:104E400069F760957095809590959B01AC01BD01C7
:104E5000CF010895052E97FB1EF400940E94412770
:104E600057FD07D00E94082707FC03D04EF40C948E
:104E7000412750954095309521953F4F4F4F5F4FBB
:104E8000089590958095709561957F4F8F4F9F4FB6
:104E90000895EE0FFF1F0590F491E02D099468949A
:104EA00001C0E894F92FF12B12F00C948327A0E0B5
:104EB000B0E0EDE5F7E20C94F527092E059422F415
:104EC0000E94DF27112392F4F0E80F26FFEFE09411
:104ED000F09400951095B094C094D094A194BF0A1A
:104EE000CF0ADF0AEF0AFF0A0F0B1F0B0E948E2763
:104EF00007FC0E94DF27CDB7DEB7ECE00C94112849
:104F0000689401C0E8948F929F92CF93DF930E94A0
:104F10008E27DF91CF919F908F90089588249924B8
:104F2000F401E401B0E49F93AA279A158B049C0432
:104F3000ED05FE05CF05D007A10798F4AD2FDC2FB6
:104F4000CF2FFE2FE92D982C892E982F872F762F83
:104F5000652F542F432F322F2227B85031F7BF919E
:104F600027C01B2EBF91BB27220F331F441F551F85
:104F7000661F771F881F991F881C991CEE1FFF1F33
:104F8000CC1FDD1FAA1FBB1F8A149B04EC05FD0567
:104F9000CE05DF05A007B10748F08A189B08EC0989
:104FA000FD09CE09DF09A00BB10B21601A94E1F6CF
:104FB0002EF49401AF01BE01CD01000C089560955F
:104FC00070958095909530954095509521953F4FDF
:104FD0004F4F5F4F6F4F7F4F8F4F9F4F08952F92CF
:104FE0003F924F925F926F927F928F929F92AF9279
:104FF000BF92CF92DF92EF92FF920F931F93CF93C6
:10500000DF93CDB7DEB7CA1BDB0B0FB6F894DEBF5C
:105010000FBECDBF09942A88398848885F846E8482
:105020007D848C849B84AA84B984C884DF80EE80CC
:10503000FD800C811B81AA81B981CE0FD11D0FB6D5
:10504000F894DEBF0FBECDBFED0108950F93083079
:1050500090F0982F872F762F652F542F432F322FC4
:1050600022270850F4CF220F331F441F551F661FFD
:10507000771F881F991F0A95B2F70F91089597FB24
:1050800010F8169400080F93083098F00850232F5A
:10509000342F452F562F672F782F892F902DF4CF3F
:1050A0000594979587957795679557954795379583
:1050B00027950A95AAF70F9108952A0D3B1D4C1DBF
:1050C0005D1D6E1D7F1D801F911F08952A193B09CC
:1050D0004C095D096E097F09800B910B08952A1513
:1050E0003B054C055D056E057F058007910708951A
:1050F0000024A7FD00942A173005400550056005DF
:105100007005800590050895EF920F931F93CF933C
:10511000DF93E80147FD02C034E001C034E1E42F31
:10512000440FFF0BF7FF03C0F195E195F109E32E62
:10513000022F2E2FAE010E94D328CE01DF91CF91F6
:105140001F910F91EF900895FC0188279927E8940B
:1051500021912032E9F3293010F02E30C8F32B32A0
:1051600041F02D3239F4689404C00E94CB28820F9C
:10517000911D219120532A30C0F31EF49095819502
:105180009F4F0895FB01DC0102C001900D92415038
:105190005040D8F708957AE0979F902D879F802DF3
:1051A000910D112408954F925F926F927F929F927A
:1051B000AF92BF92CF92DF92EF92FF920F931F9325
:1051C000CF93DF93CDB7DEB729970FB6F894DEBF44
:1051D0000FBECDBF6A01122FB02E2BE3201720F097
:1051E000FF24F394F00E02C0BCE3FB2E0F2D27E04A
:1051F000AE014F5F5F4F0E94612AAC018981982FF9
:105200009970913031F0E1FC06C0E0FE06C090E2FA
:1052100005C09DE203C09BE201C090E0EE2DE0716D
:1052200083FF3CC0911102C083E001C084E081177C
:1052300018F4212F281B01C020E0E1110BC0F6015A
:10524000822F30E2882319F031938150FBCFC20EB8
:10525000D11C20E0992329F0D6019C93F6013196C8
:105260006F01C6010396E2FE0AC03EE4D6013C93FC
:1052700041E411964C93119712963C9306C03EE67A
:10528000F601308341E641833283FC01322F40E254
:10529000332309F442C041933150FACF82FF44C016
:1052A000911102C083E001C084E0811718F4212F1E
:1052B000281B01C020E0E1110BC0F601822F30E273
:1052C000882319F031938150FBCFC20ED11C20E00E
:1052D000992329F0D6019C93F60131966F01C601FE
:1052E0000396E2FE0BC039E4D6013C933EE41196EE
:1052F0003C93119736E412963C9307C039E6F601C9
:1053000030833EE6318336E63283FC01322F40E2C1
:10531000332319F041933150FBCFFC01E20FF11D13
:1053200010828EEF9FEFB7C0F1E0911101C0F0E065
:105330006F2F70E01416150624F49A012F5F3F4F6B
:1053400002C021E030E0260F371FBB2029F06B2D73
:1053500070E06F5F7F4F02C060E070E0260F371F84
:10536000612F70E0261737071CF4121B212F01C094
:1053700020E03E2D387159F4D601322F60E23323FC
:1053800019F06D933150FBCFC20ED11C20E0FF23EA
:1053900031F0D6019C93B6016F5F7F4F6B01E11135
:1053A0000BC0F601922F30E3992319F031939150FD
:1053B000FBCFC20ED11C20E09F2D940F3A81782F95
:1053C0007071A72E84FF03C0313309F49150191670
:1053D00024F4993018F098E001C091E0E42F852F73
:1053E00057FF02C0E0E080E06E2F782FE0E0F0E0B1
:1053F000AEE29A2E3A01691A71082A01461A570A32
:105400000B2D10E01195019511096F3F8FEF780773
:1054100029F4D6019C92C60101966C0146175707E4
:1054200084F0661677066CF47F01E40CF51CA1E0AD
:10543000B0E0AC0FBD1FEA0EFB1ED7011196BC9069
:1054400002C090E3B92E615071093196C6010196F0
:105450007C016017710724F0D601BC926C01D5CF96
:105460006417750741F4363320F4353321F4A11065
:1054700002C081E3B82EF601B082F701822F90E2DC
:10548000882319F091938150FBCFF701E20FF11DB2
:10549000108280E090E029960FB6F894DEBF0FBE30
:1054A000CDBFDF91CF911F910F91FF90EF90DF90D3
:1054B000CF90BF90AF909F907F906F905F904F90F4
:1054C0000895283008F027E03327DA01990F311DBD
:1054D00087FD916000966105710539F432602E5F99
:1054E0003D9330E32A95E1F708959F3F30F08038EF
:1054F0007105610509F03C5F3C5F3D93913008F018
:105500008068911DDF93CF931F930F93FF92EF92CB
:10551000192F987F9695E92F96959695E90FFF2775
:10552000E852FF4F99273327EE24FF24A701E70114
:1055300005900894079428F4360FE71EF81E491FBB
:10554000511D660F771F881F991F0694A1F70590BC
:10555000079428F4E70EF81E491F561FC11D770F48
:10556000881F991F661F0694A1F70590079428F4D9
:10557000F80E491F561FC71FD11D880F991F661FA0
:10558000771F0694A1F70590079420F4490F561F42
:10559000C71FD81F990F661F771F881F0694A9F78A
:1055A00084911095177041F0D695C79557954795FA
:1055B000F794E7941A95C1F7EEE7F0E06894159038
:1055C000159135916591959105907FE27395E1185C
:1055D000F10A430B560BC90BD009C0F7E10CF11EC1
:1055E000431F561FC91FD01D7EF4703311F48A95D6
:1055F000E6CFE894015030F0080F0AF400270217B4
:1056000008F4202F2395022F7A3328F079E37D9335
:105610002A95E9F710C07D932A9589F60694979507
:105620006795379517951794E118F10A430B560BB8
:10563000C90BD00998F023957E9173957A3308F0C1
:1056400070E37C932013B8F77E9170617D9330F006
:10565000839571E37D9370E32A95E1F71124EF9030
:10566000FF900F911F91CF91DF91992787FD909522
:065670000895F894FFCF3D
:105676000000803F01000000803F0000803F0000E6
:10568600803F00002110422063308440A550C66050
:10569600E770088129914AA16BB18CC1ADD1CEE1E9
:1056A600EFF13112100273325222B5529442F77260
:1056B600D662399318837BB35AA3BDD39CC3FFF339
:1056C600DEE36224433420040114E664C774A44470
:1056D60085546AA54BB528850995EEE5CFF5ACC589
:1056E6008DD55336722611163006D776F666955640
:1056F600B4465BB77AA719973887DFF7FEE79DD7D9
:10570600BCC7C448E5588668A778400861180228CF
:105716002338CCC9EDD98EE9AFF9488969990AA928
:105726002BB9F55AD44AB77A966A711A500A333A9F
:10573600122AFDDBDCCBBFFB9EEB799B588B3BBB78
:105746001AABA66C877CE44CC55C222C033C600C2F
:10575600411CAEED8FFDECCDCDDD2AAD0BBD688DC8
:10576600499D977EB66ED55EF44E133E322E511E7F
:10577600700E9FFFBEEFDDDFFCCF1BBF3AAF599F18
:10578600788F8891A981CAB1EBA10CD12DC14EF1B8
:105796006FE18010A100C230E3200450254046701E
:1057A6006760B9839893FBA3DAB33DC31CD37FE349
:1057B6005EF3B1029012F322D2323542145277626E
:1057C6005672EAB5CBA5A89589856EF54FE52CD519
:1057D6000DC5E234C324A0148104667447642454BE
:1057E6000544DBA7FAB79987B8975FE77EF71DC729
:1057F6003CD7D326F2369106B0165766767615460E
:1058060034564CD96DC90EF92FE9C899E9898AB978
:10581600ABA94458654806782768C018E10882385D
:10582600A3287DCB5CDB3FEB1EFBF98BD89BBBAB88
:105836009ABB754A545A376A167AF10AD01AB32AAD
:10584600923A2EFD0FED6CDD4DCDAABD8BADE89DD8
:10585600C98D267C076C645C454CA23C832CE01CFD
:10586600C10C1FEF3EFF5DCF7CDF9BAFBABFD98F68
:10587600F89F176E367E554E745E932EB23ED10E4D
:10588600F01E00000000A91D791D1D1D251D391DD6
:10589600481D00000000FB2236247C229622882226
:0258A600D92205
:00000001FF
