:100000000C94B8010C94E0010C94E0010C94E00114
:100010000C94E0010C94E0010C94DC050C94E001DC
:100020000C94E0010C94E0010C94E0010C94E001CC
:100030000C94E0010C94E0010C94E0010C94E001BC
:100040000C94131E0C94E0010C94E0010C94E0015C
:100050000C94E0010C94E0010C94E0010C94E0019C
:100060000C94E61C0C94E0018C0FC50F4D1001118F
:10007000351141115B1164116D11DC114F120040FB
:100080007A10F35A00A0724E18090010A5D4E800A7
:1000900000E87648170000E40B54020000CA9A3BBF
:1000A000000000E1F5050000809698000000404245
:1000B0000F000000A08601000000102700000000D3
:1000C000E803000000006400000000000A000000D7
:1000D00000000100000000002C76D888DC674F0883
:1000E00023DFC1DFAE59E1B1B796E5E3E453C63A89
:1000F000E651997696E8E6C28426EB898C9B62ED00
:10010000407C6FFCEFBC9C9F40F2BAA56FA5F490B9
:10011000055A2AF75C936B6CF9676DC11BFCE0E430
:100120000D47FEF520E6B500D0ED902E0300943586
:1001300077050080841E080000204E0A000000C8D9
:100140000C333333330F986E12831141EF8D21142A
:10015000893BE65516CFFEE6DB18D1844B381BF7FA
:100160007C1D901DA4BBE424203284725E22810099
:10017000C9F124ECA1E53D27DCA17EA120A1C2A00C
:1001800064A006A0A99F4B9FED9E8F9E319ED39D9C
:10019000759D179DBA9C5C9CFE9BA09B429BE49A1C
:1001A000869A289ACA996D990F99B1985398F5979C
:1001B00097973997DB967E962096C295649506951B
:1001C000A8944A94EC938F933193D392759217929B
:1001D000B9915B91FD90A0904290E48F868F288F1B
:1001E000CA8E6C8E0E8EB18D538DF58C978C398C9A
:1001F000DB8B7D8B1F8BC18A648A068AA8894A891A
:10020000EC888E883088D28775871787B9865B8699
:10021000FD859F854185E38486842884CA836C8319
:100220000E83B0825282F48197813981DB807D8098
:100230001F80C17F637F057FA87E4A7EEC7D8E7D17
:10024000FBA1A6A150A1FAA0A4A04FA0F99FA39F33
:100250004D9FF79EA29E4C9EF69DA09D4A9DF59CAB
:100260009F9C499CF39B9D9B489BF29A9C9A469A23
:10027000F0999B994599EF9899984398EE9798979C
:100280004297EC9696964196EB9595953F95E99415
:1002900094943E94E89392933D93E79291923B928B
:1002A000E59190913A91E4908E903890E38F8D8F04
:1002B000378FE18E8B8E368EE08D8A8D348DDE8C7D
:1002C000898C338CDD8B878B318BDC8A868A308AF4
:1002D000DA8984892F89D98883882D88D78782876E
:1002E0002C87D68680862A86D5857F852985D384E6
:1002F0007E842884D2837C832683D1827B8225825C
:10030000CF8179812481CE800000000900030200A2
:1003100000040508000000000000000000000001CB
:100320000204081020408001020408102001020489
:100330000810204080400404040404040404020261
:10034000020202020303030303030202030000008C
:100350000023002600290000000000250028002BB3
:100360000000000000240027002A0000B014E01B59
:1003700011241FBECFEFD8E0DEBFCDBF11E0A0E05B
:10038000B1E0EAE3FDE402C005900D92A232B107AC
:10039000D9F722E0A2E2B1E001C01D92A53AB2076E
:1003A000E1F711E0C8EBD1E004C02197FE010E9403
:1003B000B422C63BD107C9F70E94CD1F0C949B26DF
:1003C0000C940000CF92DF92EF92FF920F931F9355
:1003D000E82FF92F05C0015011092109310961F1F8
:1003E000908196239417B9F305C001501109210992
:1003F000310911F1908196239413F7CFC12CD12CA0
:10040000E12CF12C0AC08FEFC81AD80AE80AF80AC2
:100410000C151D052E053F0579F080818623841774
:1004200091F36C2D7D2D8E2D9F2D1F910F91FF909F
:10043000EF90DF90CF90089560E070E080E090E072
:100440001F910F91FF90EF90DF90CF900895F89457
:10045000A895E0E6F0E088E1808381E680837894E7
:1004600008954F925F926F927F92AF92BF92CF9218
:10047000DF92EF92FF920F931F93CF93DF93CDB74D
:10048000DEB766970FB6F894DEBF0FBECDBFB42EB1
:10049000A22E9E012F5F3F4F790126E1F7011192B5
:1004A0002A95E9F78E01095E1F4F67012AE0422E67
:1004B000512C612C712CA30192010E947322F8012E
:1004C000729362938F01B901CA01EE15FF0599F786
:1004D00063E881E591E00E94CF14B11057C000E0BD
:1004E00010E0F601819191916F01892B09F048C0CC
:1004F0000F5F1F4F0B301105A1F7AA2009F440C070
:1005000063E081E591E00E94D21463E881E591E027
:100510000E94CF1481E591E00E94E21463E081E53E
:1005200091E00E94CF1468E270E080E090E00E94C9
:100530008E1E81E591E00E94E21462EC81E591E07B
:100540000E94CF1460E570E080E090E00E948E1E73
:1005500081E591E00E94E21462E081E591E00E9471
:10056000CF1468E270E080E090E00E948E1E81E58A
:1005700091E00E94E21463E881E591E00E94CF14CB
:100580003801660C771CC12CD12C2EC00BE010E07A
:100590000B191109F5CF61E081E591E00E94D214B9
:1005A00062EC81E591E00E94CF1481E591E00E9428
:1005B000E21468EC70E080E090E00E948E1E63E838
:1005C00081E591E00E94CF1481E591E00E94E21460
:1005D00064EF71E080E090E00E948E1EA8950F5FAE
:1005E0001F4FF2E0CF0ED11C0B30110559F1F6016F
:1005F000E60DF71DEE0DFF1D4080518041145104A2
:1006000051F2B12C8B2D90E08415950508F761E02F
:1006100081E591E00E94D21481E591E00E94E2140C
:1006200068EC70E080E090E00E948E1E81E591E031
:100630000E94E21466E470E080E090E00E948E1E6A
:10064000B394E0CF66960FB6F894DEBF0FBECDBF71
:10065000DF91CF911F910F91FF90EF90DF90CF909E
:10066000BF90AF907F906F905F904F9008954F92A2
:100670005F926F927F92BF92CF92DF92EF92FF9242
:100680000F931F93CF93DF9300D000D000D0CDB74E
:10069000DEB76B017C01B42E20E030E0A9010E949E
:1006A000F52120E030E040E05FE387FD05C0C701B1
:1006B000B6010E94DE1F04C0C701B6010E94DD1F03
:1006C0000E94FD200E9435219B01AC01C701B601AB
:1006D0000E94DD1F2B013C0120E030E0A9010E94B7
:1006E000F52118165CF42FE832EC45E75DE3C30111
:1006F000B2010E944A2087FF74C00BC02FE832EC81
:1007000045E75DEBC301B2010E94F52118160CF01C
:1007100068C020E030E0A901C701B6010E94F521C0
:1007200020E030E040E05FE387FD05C0C701B6018F
:100730000E94DE1F04C0C701B6010E94DD1F0E9497
:10074000FD2020E040E00E94310263E081E591E07D
:100750000E94D21463E881E591E00E94CF1481E504
:1007600091E00E94E21463E081E591E00E94CF14E1
:1007700068E270E080E090E00E948E1E81E591E0EA
:100780000E94E21462EC81E591E00E94CF1460E5E2
:1007900070E080E090E00E948E1E81E591E00E9472
:1007A000E21462E081E591E00E94CF1468E270E01B
:1007B00080E090E00E948E1E81E591E00E94E214AC
:1007C00063E881E591E00E94CF1464EF71E080E07E
:1007D00090E00E948E1E20E04B2D60E070E0CB0187
:1007E00085C0C701B6010E9404212B013C010E9473
:1007F00033219B01AC01C701B6010E94DD1F8E01B0
:100800000F5F1F4F23E045E00E94EF2380E38A83C0
:10081000C8010E940F246C01990FEE08FF0882E0C6
:10082000B81207C0C701B6012AE030E040E050E04E
:1008300009C081E0B8120AC0C701B60124E630E061
:1008400040E050E00E94732269017A0120E040E01C
:10085000C301B2010E94310263E081E591E00E9490
:10086000D21463E881E591E00E94CF1481E591E024
:100870000E94E21463E081E591E00E94CF1468E2F7
:1008800070E080E090E00E948E1E81E591E00E9481
:10089000E21462EC81E591E00E94CF1460E570E023
:1008A00080E090E00E948E1E81E591E00E94E214BB
:1008B00062E081E591E00E94CF1468E270E080E0A0
:1008C00090E00E948E1E81E591E00E94E21463E8B0
:1008D00081E591E00E94CF1464EF71E080E090E048
:1008E0000E948E1E20E04B2DC701B6010E943102EE
:1008F00026960FB6F894DEBF0FBECDBFDF91CF9125
:100900001F910F91FF90EF90DF90CF90BF907F905D
:100910006F905F904F9008958330E9F028F4813014
:1009200049F0823071F00895853019F1D8F08C309B
:1009300001F1089561E081E591E00E94D21464E044
:1009400006C061E081E591E00E94D21463E881E590
:1009500091E00C94CF1461E081E591E00E94D21403
:1009600063E0F5CF61E081E591E00E94D21462EC92
:10097000EECF63E081E591E00E94D21463E881E567
:1009800091E00E94CF1481E591E00E94E21463E0BF
:1009900081E591E00E94CF1464E170E080E090E096
:1009A0000E948E1E81E591E00E94E21462EC81E5D6
:1009B00091E00E94CF1464E170E080E090E00E943A
:1009C0008E1E81E591E00E94E21462E081E591E0F3
:1009D0000E94CF1464E170E080E090E00E948E1EDF
:1009E00081E591E00C94E21481E591E00E94E2142B
:1009F00063E081E591E00E94D21462E081E591E03C
:100A00000E94CF1464E170E080E090E00E948E1EAE
:100A100081E591E00E94E21462EC81E591E00E94A0
:100A2000CF146CE370E080E090E00E948E1E81E5C0
:100A300091E00E94E21463E081E591E00E94CF140E
:100A400068EC70E080E090E00E948E1E81E591E00D
:100A50000E94E21463E881E591E00E94CF1460E512
:100A600070E080E090E00E948E1E81E591E00C94A1
:100A7000E214F894A89588E1809360000FB6F8948A
:100A8000A89580916000886180936000109260005A
:100A90000FBE789481E591E00E94E21461E081E567
:100AA00091E00E94D21465E081E591E00E94CF14AC
:100AB00081E591E00E94E21464E670E080E090E05D
:100AC0000E948E1E81E591E00E94E21460E273E0D4
:100AD00080E090E00E948E1EE1CF1F93CF93DF93C2
:100AE000EC01162F61E081E591E00E94D214612FA4
:100AF00081E591E00E94CF1481E591E00E94E2142B
:100B0000BE0180E090E00E948E1E81E591E0DF91C1
:100B1000CF911F910C94E2146F927F928F929F92CB
:100B2000AF92BF92CF92DF92EF92FF920F931F93FB
:100B3000CF93DF931F92CDB7DEB76C018A014901D5
:100B400081E591E069830E94E214698181E591E089
:100B50000E94CF14612C712CE12CF12CA12CB12C12
:100B600060167106C9F061E081E591E00E94D2143F
:100B700081E591E00E94E214C701B6010E948E1E39
:100B800081E591E00E94E214C501B4010E948E1E2D
:100B90008FEF681A780AE4CF0F90DF91CF911F9101
:100BA0000F91FF90EF90DF90CF90BF90AF909F900C
:100BB0008F907F906F9008951F920F920FB60F92B3
:100BC0001124F894A89588E1809360000FB6F894FA
:100BD000A895809160008861809360001092600009
:100BE0000FBE789463E081E591E00E94321581E5C3
:100BF00091E00E94E21428EC30E044E050E062EC26
:100C000088EC90E00E948C0564EF71E080E090E059
:100C10000E948E1EF0CFF894A89588E18093600022
:100C20000FB6F894A8958091600088618093600069
:100C3000109260000FBE789463E081E591E00E941D
:100C4000321581E591E00E94E21428EC30E042E0A8
:100C500050E063E888EC90E00E948C0564EF71E05E
:100C600080E090E00E948E1EF0CF60E273E080E0B2
:100C700090E00E948E1E24E630E045E050E063E004
:100C800082E390E00E948C05A89524E630E045E0E0
:100C900050E063E882E390E00E948C0560E273E03C
:100CA00080E090E00C948E1E2F923F924F925F92C4
:100CB0006F927F928F929F92AF92BF92CF92DF926C
:100CC000EF92FF920F931F93CF93DF93CDB7DEB7D1
:100CD00028970FB6F894DEBF0FBECDBF282F30E0A7
:100CE0003A83298330E5839FB001112486E291E0A5
:100CF0000E94501886E291E00E9490196093D00102
:100D00007093D1018093D2019093D30186E291E058
:100D10000E94C8192093C8013093C9014093CA01A9
:100D20005093CB016093CC017093CD018093CE01A1
:100D30009093CF0186E291E00E9490196093C401E4
:100D40007093C5018093C6019093C70186E291E03C
:100D50000E9490196093C0017093C1018093C201F9
:100D60009093C30186E291E00E9490196093BC01C8
:100D70007093BD018093BE019093BF0186E291E024
:100D80000E94371A6093B8017093B9018093BA0139
:100D90009093BB0186E291E00E94371A6093B40100
:100DA0007093B5018093B6019093B70186E291E00C
:100DB0000E9490196093B0017093B1018093B201C9
:100DC0009093B30186E291E00E9490196093AC0188
:100DD0007093AD018093AE019093AF018091D001EB
:100DE0009091D101A091D201B091D3018B839C83CA
:100DF000AD83BE8386E291E00E9490192B013C01F5
:100E00002090C8013090C9018090CA019090CB0118
:100E10000091CC011091CD019091CE019887A091C5
:100E2000CF01AF8386E291E00E94C81959016A019F
:100E30007B01FC019101A401B80188859F818F018C
:100E40000E94DA2351F411E08B819C81AD81BE8137
:100E500084159505A605B70509F010E0C090C401FA
:100E6000D090C501E090C601F090C70186E291E004
:100E70000E949019C616D706E806F90609F010E098
:100E8000C090C001D090C101E090C201F090C301B8
:100E900086E291E00E949019C616D706E806F90688
:100EA00009F010E0C090BC01D090BD01E090BE01FF
:100EB000F090BF0186E291E00E949019C616D70615
:100EC000E806F90609F010E0C090B801D090B90129
:100ED000E090BA01F090BB0186E291E00E94371ADF
:100EE0009B01AC01C701B6010E944A20811110E0AC
:100EF000C090B401D090B501E090B601F090B70178
:100F000086E291E00E94371A9B01AC01C701B6014D
:100F10000E944A20811110E0C090B001D090B10130
:100F2000E090B201F090B30186E291E00E94901946
:100F3000C616D706E806F90609F010E0C090AC0125
:100F4000D090AD01E090AE01F090AF0186E291E06B
:100F50000E949019C616D706E806F90611F4111179
:100F60001AC085E0F82E09811A810F5F1F4F28EC07
:100F700030E0A80163E08CE291E00E948C0568E516
:100F800072E080E090E00E948E1EA895FA94F11025
:100F9000EECF80E001C081E028960FB6F894DEBF66
:100FA0000FBECDBFDF91CF911F910F91FF90EF90BA
:100FB000DF90CF90BF90AF909F908F907F906F9079
:100FC0005F904F903F902F9008950F931F93CF9372
:100FD000882329F090E5899FB001112402C060E0C8
:100FE00070E086E291E00E945018C2E04091A801B2
:100FF0005091A9016091AA017091AB0186E291E044
:101000000E9492180091A0011091A1012091A201CB
:101010003091A3014091A4015091A5016091A601D6
:101020007091A70186E291E00E94AB1840919C016B
:1010300050919D0160919E0170919F0186E291E027
:101040000E949218409198015091990160919A01E3
:1010500070919B0186E291E00E9492184091940168
:1010600050919501609196017091970186E291E00F
:101070000E949218409190015091910160919201CB
:101080007091930186E291E00E94A91840918C0131
:1010900050918D0160918E0170918F0186E291E0F7
:1010A0000E94A9184091B0015091B1016091B20124
:1010B0007091B30186E291E00E9492184091AC01D8
:1010C0005091AD016091AE017091AF0186E291E067
:1010D0000E949218C13011F0C1E088CFCF911F91CA
:1010E0000F91089560E070E082E291E00E94631742
:1010F00082E291E00E94DB17882369F060E070E0F3
:1011000082E291E00E94631760E082E291E00E9437
:10111000C7170E94390582E291E00E94DD17909383
:1011200072018093710182E291E00E94DD17909339
:10113000700180936F0182E291E00E94DB1780933F
:101140006E0182E291E00E94F41760930E017093A9
:101150000F01809310019093110182E291E00E94AF
:10116000F41760930A0170930B0180930C01909324
:101170000D0182E291E00E94DB17682F70E080E0B1
:1011800090E00E94332160930601709307018093E1
:1011900008019093090182E291E00E94DD1790938B
:1011A00005018093040182E291E00E94DD17BC01F9
:1011B00080E090E00E943321609300017093010170
:1011C00080930201909303016091000170910101ED
:1011D000809102019091030120E030E04AE754E45D
:1011E0000E944F20609300017093010180930201DF
:1011F000909303010895CF93DF93DC0130E036171D
:10120000D1F03F5F232F2617A1F04D915C911197EC
:10121000FC01E20FF11DE20FF11DC081D181C41765
:10122000D50728F41196DC93CE93518340832F5F2A
:10123000EACF1296E4CFDF91CF9108950F931F93D9
:10124000CF93DF9300D000D000D0CDB7DEB760E001
:1012500070E082E291E00E94631782E291E00E94D6
:10126000DB17882309F488C08E010F5F1F4F86E0CB
:10127000F80111928A95E9F764E08CEA9DE00E94FA
:101280006D05A89580E591E00E945D159A8389839C
:1012900020E931E044E050E064E088EC90E00E9416
:1012A0008C05A89563E88CEA9DE00E946D05A895E1
:1012B00080E591E00E945D159C838B8320E931E0FD
:1012C00044E050E063E888EC90E00E948C05A8952B
:1012D00063E08CEA9DE00E946D05A89580E591E0B1
:1012E0000E945D159E838D8320E931E044E050E04B
:1012F00063E088EC90E00E948C05A89563E0C8014B
:101300000E94FB08F8019E01295F3F4F8191919156
:101310008059914089329A4010F00E943905E217B5
:10132000F307A1F76B817C8189819A81845D9E4F4F
:101330006817790790F32D813E81CB01845D9E4F24
:101340002817390750F382E291E00E94C9172B81D8
:101350003C8169817A818D819E81A901461B570B51
:10136000FC01E21BF30B4E175F0708F0BC0182E2A1
:1013700091E00E94C917A89526960FB6F894DEBF93
:101380000FBECDBFDF91CF911F910F91089568EEF1
:1013900073E080E090E00E948E1E0E94270281E5AB
:1013A00091E00E94351561E081E591E00E943215DF
:1013B0006FE781E591E00E94D51466E080E591E059
:1013C0000E94571560E586E291E00E94331860E0C4
:1013D00074E082E291E00E945F17A8950E941E09C6
:1013E0000E94720840916F015091700160917101EB
:1013F0007091720120916E018AE291E00E94941531
:10140000A895A8956AE070E080E090E00E948E1EAA
:1014100080E00E94540681110CC081E00E945406B5
:10142000811107C082E00E945406811102C00E940F
:1014300039058091AC019091AD01A091AE01B091C0
:10144000AF010196A11DB11D8093AC019093AD0138
:10145000A093AE01B093AF01A89508952F923F924B
:101460004F925F926F927F928F929F92AF92BF92B4
:10147000CF92DF92EF92FF920F931F93CF93DF9360
:10148000CDB7DEB72A970FB6F894DEBF0FBECDBF3B
:10149000609184017091850180918601909187010E
:1014A00020E030E44CE156E40E94FA210E94FD2045
:1014B0004B015C0188E7282E81E0382E00E412E021
:1014C00044E650E0C12CD12C76018CEB9FE7A0E0E4
:1014D000B0E060917301662311F0F10101C0F801E1
:1014E00045905490612C712C481859086A087B0863
:1014F00077FE08C07094609450944094411C511C35
:10150000611C711C84159505A605B7057CF0BA0110
:10151000052E000C880B990B49875A870E943521AC
:101520006B017C01D301C2015A85498541505109A3
:1015300022E0220E311C0E5F1F4F4115510549F666
:101540006091040170910501809188019091890159
:10155000A0918A01B0918B0189839A83AB83BC836C
:101560008090A8019090A901A090AA01B090AB0131
:1015700080910E0190910F01A0911001B091110185
:101580008D839E83AF83B88780E090E00E943321F3
:101590002B013C0120E030E048EC52E4C701B601E9
:1015A0000E944F209B01AC01C301B2010E94FA21AD
:1015B0006B017C01C501B4010E9433212D813E8164
:1015C0004F8158850E944F209B01AC0169817A812F
:1015D0008B819C810E944F209B01AC01C701B60109
:1015E0000E944F206B017C0120E030E0A9010E94A5
:1015F000F52120E030E040E05FE387FD05C0C70152
:10160000B6010E94DE1F04C0C701B6010E94DD1FA3
:101610000E94FD202A960FB6F894DEBF0FBECDBF04
:10162000DF91CF911F910F91FF90EF90DF90CF90BE
:10163000BF90AF909F908F907F906F905F904F90F2
:101640003F902F900895CF92DF92EF92FF920F93E9
:101650001F93CF93DF9360910001709101018091FE
:1016600002019091030120E030E0A9010E944A208C
:10167000882309F4B8C0609184017091850180913C
:1016800086019091870120910001309101014091E4
:101690000201509103010E944A2018168CF46091B7
:1016A000840170918501809186019091870120E0ED
:1016B00030ED44E855E40E94F52118160CF093C073
:1016C0008AE291E00E942516A895F12CD0E0C0E0B6
:1016D0008AE0E82EA895C0FD16C060918401709143
:1016E00085018091860190918701209100013091C0
:1016F000010140910201509103010E944A201816F5
:1017000014F063E001C062EC88E290E00E946D0595
:1017100068E270E080E090E00E948E1E8C2F6E2DBB
:101720000E946722911127C080E591E00E945D151B
:101730006C018AE291E00E941D168C018AE291E020
:101740000E942116081B190BC016D10608F4D1E01F
:1017500080E591E00E945D156C018AE291E00E94B3
:101760001D168C018AE291E00E942116800F911FC4
:101770008C159D0598F1DD2361F1FF2049F1109250
:10178000000110920101109202011092030120E564
:1017900030E045E050E064E080E590E00E948C0598
:1017A000A89520E530E045E050E063E880E590E072
:1017B0000E948C0560E273E080E090E0DF91CF91C1
:1017C0001F910F91FF90EF90DF90CF900C948E1EA1
:1017D000D1E0CF5FC03509F07DCF05C0D111CFCFAB
:1017E000FF24F394F6CFDF91CF911F910F91FF90DB
:1017F000EF90DF90CF900895CF93DF93CDB7DEB712
:10180000E1970FB6F894DEBF0FBECDBF0E945D1EFC
:101810006E8F7F8F88A399A31E8A1F8A188E198EB8
:101820001A8A1B8A1C8A1D8A19861A861B861C86A0
:101830001D860E945D1E6093D4017093D501809334
:10184000D6019093D7010D850F5F0D8781E591E05B
:101850000E94E21480E591E00E945D15BC018AE2DD
:1018600091E00E943A1660E48AE291E00E94061636
:101870000E948C04063440F460E28AE291E00E9407
:101880000616882309F401C760E28AE291E00E940B
:101890000616882309F4F7C60E945D1E6AA37BA37F
:1018A0008CA39DA381E591E00E94E21461E081E5B3
:1018B00091E00E94D21465E081E591E00E94CF148E
:1018C00081E591E00E94E21412E31D8760E084E567
:1018D00091E00E946C1A8823E9F180905C0190905D
:1018E0005D01A0905E01B0905F01C0906001D0905A
:1018F0006101E0906201F0906301409064015090BA
:1019000065016090660170906701209168013091D7
:10191000690140916A0150916B0129833A834B839D
:101920005C83409154015091550160915601709132
:1019300057014EA35FA368A779A762E070E080E03B
:1019400090E00E948E1E61E084E591E00E946C1A96
:10195000811102C00E940B061092A8011092A901E9
:101960001092AA011092AB011092A0011092A10155
:101970001092A2011092A3011092A4011092A5014D
:101980001092A6011092A70110929C0110929D0145
:1019900010929E0110929F0110929801109299014D
:1019A00010929A0110929B0110928401109285016D
:1019B000109286011092870110928801109289017D
:1019C00010928A0110928B01109290011092910155
:1019D000109292011092930110928C0110928D013D
:1019E00010928E0110928F0120915C0130915D0167
:1019F00040915E0150915F01C501B4010E94DE1F5C
:101A000020E030E040E05FE30E94FA216A8F7B8FA4
:101A10008C8F9D8F20916001309161014091620116
:101A200050916301C701B6010E94DE1F6E877F8758
:101A3000888B998B209164013091650140916601FA
:101A400050916701C301B2010E94DE1F2B013C01CE
:101A50008091680190916901A0916A01B0916B0138
:101A600089809A80AB80BC80880E991EAA1EBB1EFE
:101A7000C501B401A2E0CA2ED12CE12CF12CA701A2
:101A800096010E94952229833A834B835C8360915F
:101A900058017091590180915A0190915B01A70101
:101AA00096010E94952229873A874B875C87809010
:101AB000540190905501A0905601B09057018AA60C
:101AC0009BA6ACA6BDA68091D0019091D101A0911A
:101AD000D201B091D3014091780150917901609188
:101AE0007A0170917B01841B950BA60BB70B898043
:101AF0009A80AB80BC80880D991DAA1DBB1D809368
:101B0000A8019093A901A093AA01B093AB01F09111
:101B1000C801E091C901C090CA01D090CB01E0900A
:101B2000CC01F090CD010091CE011091CF01BB0C02
:101B30008808982C540129813A814B815C81682D59
:101B4000782D882D982DAF2EBE2E0E94C82320936D
:101B5000A0013093A1014093A2015093A30160938F
:101B6000A4017093A5018093A6019093A701C09052
:101B7000C401D090C501E090C601F090C70120E0FB
:101B800030E0A9016E857F85888999890E94F521B9
:101B900020E030E040E05FE387FD07C06E857F8591
:101BA000888999890E94DE1F06C06E857F85888995
:101BB00099890E94DD1F0E94FD20C60ED71EE81ED7
:101BC000F91EC0929C01D0929D01E0929E01F0927C
:101BD0009F01C090C001D090C101E090C201F0907F
:101BE000C30120E030E0A901C301B2010E94F52148
:101BF00020E030E040E05FE387FD05C0C301B201B3
:101C00000E94DE1F04C0C301B2010E94DD1F0E94BA
:101C1000FD20C60ED71EE81EF91EC0929801D09274
:101C20009901E0929A01F0929B0120910601309176
:101C3000070140910801509109016A8D7B8D8C8DBF
:101C40009D8D0E944F206093840170938501809345
:101C50008601909387016091B8017091B9018091DC
:101C6000BA019091BB01C0908001D0908101E090B9
:101C70008201F09083012E853F85488959890E9411
:101C8000DE1FA70196010E94DD1F609390017093F3
:101C9000910180939201909393016091B4017091AE
:101CA000B5018091B6019091B701C0907C01D090B0
:101CB0007D01E0907E01F0907F01A30192010E94DE
:101CC000DE1FA70196010E94DD1F60938C017093B7
:101CD0008D0180938E0190938F016091900170919E
:101CE0009101809192019091930120918C0130910A
:101CF0008D0140918E0150918F010E94DD1F6093F4
:101D000088017093890180938A0190938B01C09020
:101D1000BC01D090BD01E090BE01F090BF016E8982
:101D20007F89888D998D28EE33E040E050E00E9455
:101D30009522C20ED31EE41EF51EC0929401D092CD
:101D40009501E0929601F09297018091B0019091F7
:101D5000B101A091B201B091B30189849A84AB849E
:101D6000BC8488159905AA05BB0540F48092B00192
:101D70009092B101A092B201B092B301609188013A
:101D80007091890180918A0190918B012091740159
:101D90003091750140917601509177010E94DD1FCD
:101DA0002FE832EC45EF5CE30E94F521181624F48D
:101DB00081E0809373011BC060918801709189015B
:101DC00080918A0190918B0120917401309175016D
:101DD00040917601509177010E94DD1F2FE832EC8F
:101DE00045EF5CEB0E944A2087FD109273018091C1
:101DF000880190918901A0918A01B0918B01809313
:101E0000740190937501A0937601B0937701698571
:101E10007A858B859C850E9435216B017C01209100
:101E20000A0130910B0140910C0150910D010E946B
:101E30004F202FE832EC45E15FE30E94F5211816B0
:101E4000F4F463E081E591E00E9432150E945D1E8A
:101E50000E891F89288D398D8E8C9F8CA8A0B9A0E2
:101E6000081919092A093B0948015901860E971ECC
:101E7000A81EB91E8E8A9F8AA88EB98E05C061E001
:101E800081E591E00E9432150E945D1E6E8F7F8F6A
:101E900088A399A380E00E94E5070E945D1E6987E0
:101EA0007A878B879C87A89560E28AE291E00E94FE
:101EB00006168823F9F08AA09BA0ACA0BDA006E975
:101EC000800E911CA11CB11C0E945D1E86169706F7
:101ED000A806B906C8F781E591E00E94E21481E501
:101EE00091E00E94E21468E572E080E090E00E94D8
:101EF0008E1E02C00E94230B60E88AE291E00E94DD
:101F0000061690E0FC013197EB30F10508F0A5C30F
:101F1000EC5CFF4F0C94B422C090A801D090A901B2
:101F2000E090AA01F090AB0160910E0170910F0159
:101F3000809110019091110120E030E040E751E4E0
:101F40000E944F200E9404216C157D058E059F057F
:101F500008F081C36091A8017091A9018091AA0144
:101F60009091AB0120910E0130910F014091100131
:101F7000509111012EA73FA748AB59AB0E943321C6
:101F80002EA53FA548A959A99CC34090A0015090F7
:101F9000A1016090A2017090A3018090A401909093
:101FA000A5013090A6012090A70160910E017091CB
:101FB0000F01809110019091110120E030E040E785
:101FC00051E40E944F200E94C62059016A017B0102
:101FD0008C019201A301B401832D922D0E94DA237A
:101FE00009F008F438C34090A0015090A10160901E
:101FF000A2017090A3018090A4019090A50130905F
:10200000A6012090A70160910E0170910F018091AF
:1020100010019091110120E030E0A9010E94F5210A
:1020200087FD0FC060910E0170910F01809110012A
:102030009091110120E030E040E05FE30E94DE1F5C
:102040000EC060910E0170910F018091100190916E
:10205000110120E030E040E05FE30E94DD1F0E94BC
:10206000FD209B01AC01550F220B322FA9015B0112
:102070006C01E22EF22E022F122F9201A301B40165
:10208000832D922D0E94ED22F22FE42F21E040E0DB
:102090006F2F732F8E2F952F7BC020910A013091C7
:1020A0000B0140910C0150910D01C701B6010E9436
:1020B0004F202FE832EC45E15FE30E944A2087FF82
:1020C00032C0609188017091890180918A0190915C
:1020D0008B0120E030E040EA50E40E94F521181620
:1020E0000CF0B9C2C090A801D090A901E090AA015B
:1020F000F090AB0160910E0170910F018091100181
:102100009091110120E030E040E751E40E944F201F
:102110000E9404216C157D058E059F0508F09BC269
:102120000E942E0A33C02AA53BA54CA55DA56EA131
:102130007FA188A599A50E94DE1F6B017C0120E08C
:1021400030E0A9010E94F52187FD25C02A8D3B8D35
:102150004C8D5D8DC701B6010E94FA216B017C0197
:1021600020E030E0A9010E94F52120E030E040E0CD
:102170005FE387FD05C0C701B6010E94DE1F04C0F2
:10218000C701B6010E94DD1F0E94FD2021E040E052
:102190000E94310262C224E130E04AE050E063E094
:1021A00084E190E00E948C05A89564EF71E080E0E6
:1021B00090E00E948E1E2A8D3B8D4C8D5D8DC70157
:1021C000B6010E94FA216B017C0120E030E0A901F8
:1021D0000E94F52120E030E040E05FE387FD05C08C
:1021E000C701B6010E94DE1F04C0C701B6010E94EC
:1021F000DD1F0E94FD200E94352190580E9404217D
:10220000C5CF60919C0170919D0180919E0190913C
:102210009F0121E040E00E94310260E273E080E033
:1022200090E00E948E1E24E630E045E050E063E836
:1022300082E390E00E948C05A89524E630E045E01A
:1022400050E063E082E390E00E948C0560E273E07E
:1022500080E090E00E948E1E60919801709199013B
:1022600080919A0190919B0191CF6091840170912E
:102270008501809186019091870142E00E94370399
:10228000ECC1609188017091890180918A019091DF
:102290008B0120E030E0A9010E94F52118160CF016
:1022A000DAC1609188017091890180918A019091D1
:1022B0008B0141E0E3CF6091900170919101809199
:1022C000920190919301F5CF60918C0170918D01F5
:1022D00080918E0190918F01ECCF1092D0011092DD
:1022E000D1011092D2011092D3011092A801109244
:1022F000A9011092AA011092AB011092B80110929C
:10230000B9011092BA011092BB011092880110928B
:10231000890110928A0110928B011092740110921F
:10232000750110927601109277011092900110922F
:10233000910110929201109293011092B4011092A7
:10234000B5011092B6011092B70110928C01109253
:102350008D0110928E0110928F018E849F84A88827
:10236000B9888092800190928101A0928201B092FE
:10237000830140927C0150927D0160927E017092B7
:102380007F0189809A80AB80BC8080927801909296
:102390007901A0927A01B0927B0180E00E94E5076A
:1023A0000E94F40481E00E94E5070E945D1E698797
:1023B0007A878B879C8751C120910A0130910B014C
:1023C00040910C0150910D01C701B6010E944F20B0
:1023D0002FE832EC45E15FE30E94F52118164CF43A
:1023E00020910A0130910B0140910C0150910D0197
:1023F00066C1609188017091890180918A019091F4
:102400008B0120E030E040EA50E40E94F5211816EC
:102410000CF021C1C090A801D090A901E090AA01C0
:10242000F090AB0160910E0170910F01809110014D
:102430009091110120E030E040E751E40E944F20EC
:102440000E9404216C157D058E059F0508F003C1CF
:10245000C0908801D0908901E0908A01F0908B01B2
:102460006091A8017091A9018091AA019091AB019E
:1024700020910E0130910F014091100150911101F6
:102480002EA73FA748AB59AB0E9433212EA53FA5ED
:1024900048A959A90E944F209B01AC0110C128EC0A
:1024A00030E04AE050E063E084E690E00E948C0572
:1024B000A89528EC30E04AE050E062EC84E690E039
:1024C0000E948C0568E572E080E090E00E948E1E1C
:1024D000609194017091950180919601909197017E
:1024E0000E94332120E030E041E655E40E944F2075
:1024F0002DEC3CEC4CEC5DE30E94F52187FD36C0F1
:102500008091940190919501A0919601B0919701CD
:1025100086319D4FA105B105A0F4609194017091A1
:10252000950180919601909197010E94332120E0BE
:1025300030E041E655E40E944F2041E00E9437031D
:1025400017C06091940170919501809196019091CE
:10255000970120E13EE040E050E00E947322CA0172
:10256000B90121E040E00E94310202C00E9435061C
:1025700060E273E080E090E00E948E1E24E630E08E
:1025800045E050E063E882E390E00E948C05A89566
:1025900024E630E045E050E063E082E390E00E9412
:1025A0008C0560E273E080E090E00E948E1E8091D6
:1025B0009C0190919D01A0919E01B0919F0140913D
:1025C00098015091990160919A0170919B015C0171
:1025D0006D011A012B019C01A60160E070E080E012
:1025E00090E051016201E12CF12C00E010E00E942A
:1025F000D123AAE00E94E32309F00CF47FC14090AC
:10260000A0015090A1016090A2017090A301809060
:10261000A4019090A5013090A6012090A70160919F
:102620000E0170910F0180911001909111019B0199
:10263000AC010E94DE1F0E94C62059016A017B0185
:102640008C019201A301B401832D922D0E94DA2303
:1026500009F0D0F553C10E943506A895C090D40169
:10266000D090D501E090D601F090D7010E945D1E78
:1026700014E6C10ED11CE11CF11CC616D706E806F3
:10268000F90660F7D6C81D8621C989849A84AB846F
:10269000BC8489288A288B2809F433C10E945D1ED6
:1026A00009851A852B853C85045D1E4F2F4F3F4FB2
:1026B000061717072807390708F444C122C1C701C4
:1026C000B6010E944F20F5CD80919C0190919D0113
:1026D000A0919E01B0919F01409198015091990164
:1026E00060919A0170919B01841B950BA60BB70B0F
:1026F0008C019D0140E050E0BA0189831A832B834D
:102700003C834D835E836F8378879090A001809097
:10271000A1017090A2016090A3015090A40140908B
:10272000A5013090A6012090A70160910E01709143
:102730000F01809110019091110120E030E0A9017A
:102740000E94F52187FD0FC060910E0170910F016D
:10275000809110019091110120E030E040E05FE3B2
:102760000E94DE1F0EC060910E0170910F018091DA
:1027700010019091110120E030E040E05FE30E9401
:10278000DD1F0E94FD209B01AC01550F220B322F53
:10279000A9015B016C01E22EF22E022F122F292DCE
:1027A000382D472D562D652D742D832D922D0E9489
:1027B000ED2259016A017B018C0129813A814B810B
:1027C0005C8160E070E080E090E00E94BC22F22F2B
:1027D000E42F21E040E06F2F732F8E2F952F0E9462
:1027E000310260E273E080E090E00E948E1E24E6F9
:1027F00030E045E050E063E882E390E00E948C0521
:10280000A89524E630E045E050E063E082E390E004
:102810000E948C0560E273E080E090E00E948E1ED2
:102820006091B0017091B1018091B2019091B301BA
:1028300020910A0130910B0140910C0150910D0142
:102840002EA73FA748AB59AB0E9433212EA53FA529
:1028500048A959A90E944F202FE832EC45E15FE3D7
:102860000E94F521181604F56091B0017091B10134
:102870008091B2019091B30120910A0130910B0136
:1028800040910C0150910D012EA73FA748AB59ABC9
:102890000E9433212EA53FA548A959A90E944F2087
:1028A00041E00E94370302C00E94350660E273E0F7
:1028B00080E090E00E948E1E24E630E045E050E08B
:1028C00063E882E390E00E948C05A89524E630E05E
:1028D00045E050E063E082E390E00E948C0560E216
:1028E00073E080E090E00E948E1E6091AC017091D8
:1028F000AD018091AE019091AF0148CC0E943506A8
:1029000070CF8A889B88AC88BD8889288A288B28C4
:1029100009F4A3CE0E945D1E0A891B892C893D897A
:102920000455124F2F4F3F4F061717072807390737
:1029300008F093CE82E00E94E5071A8A1B8A1C8A5F
:102940001D8A8BCE81E00E94E5070E945D1E6A8B86
:102950007B8B8C8B9D8B19861A861B861C867DCE65
:1029600084E591E00E94681A81E591E00E94C81414
:1029700080E591E00E9456158AE291E00E946E1572
:1029800086E291E00E942C1882E291E00C943617C6
:10299000FC0185E0808381E0828311820895FC013F
:1029A00060830895FC01618308958EEF90E0861B9B
:1029B0009109909389008093880090938B00809375
:1029C0008A000895FC0190818EEF890F843090F485
:1029D00080918100887F8093810080918000816058
:1029E00080938000809180008D7F80938000809113
:1029F000810022C080918100887F80938100809136
:102A00008000923C71F4816080938000809180000E
:102A10008260809380008091810082608093810039
:102A20000EC0826080938000809180008E7F8093B2
:102A30008000809181009770982B90938100818114
:102A4000882341F0828181FD219A828180FF04C028
:102A5000229A02C0219822988181882311F0815006
:102A600081830895FC0162830895219822988FEF55
:102A70009FEF9093870080938600E0E8F0E0F0936A
:102A80008900E0938800F0938B00E0938A008081B6
:102A9000806A8083808181608083E1E8F0E08081CA
:102AA0008860808380818460808308950895FC011C
:102AB000862F608360E00C942E1F20E63AEE40E003
:102AC00050E061E0FC0180810E949A1F6115710550
:102AD00011F0CB01089581E090E00895FC0188E7B2
:102AE00095E09283818380E590E0948383838CEDED
:102AF00090E09683858388EB91E09087878388E0D8
:102B000090E09287818789E190E09487838781E0D4
:102B100090E09687858788EC90E0908B878788EB9C
:102B20009BE0928B818B0895CF92DF92EF92FF9280
:102B3000CF93DF93FC01222319F081E0808301C051
:102B40001082148A138A168A158A108E178A128E9A
:102B5000118E148E138E168E158E10A2178E12A241
:102B600011A213A214A215A2CB018059914089325F
:102B70009A4008F044C0CA018059914089329A4075
:102B8000F0F54617570748F4CB01841B950BAC01B1
:102B90004C3291E0590738F432C0461B570B4C3287
:102BA00021E0520760F1EF0172836183BA0180E096
:102BB00090E00E9433216B017C0124E83BEB4BE366
:102BC0005FE30E94FA210E94042178876F832CED35
:102BD0003AEB4BEB5EE3C701B6010E94FA210E947B
:102BE00004217E836D8329EA37E848E05EE3C7016C
:102BF000B6010E94FA210E9404217C836B83DF913D
:102C0000CF91FF90EF90DF90CF900895FC0160325C
:102C100081F020F4603179F484A10895603429F0C2
:102C2000603849F493A113A202C094A114A2892F81
:102C3000089583A1089580E00895FC018181928127
:102C40000895FC01878190850895FC01148A138AF8
:102C5000168A158A108E178A128E118E148E138E74
:102C6000168E158E10A2178E12A211A213A214A2F4
:102C700015A20895CF93DF93FC018785908968178B
:102C8000790708F4F0C0818992898617970708F4BC
:102C9000EAC08181928125813681AC01421B530BB0
:102CA0006417750750F4208121110FC02789308DDA
:102CB0002F5F3F4F308F278B2EC0280F391F2617CD
:102CC000370750F420812111F1CF218D328D2F5FF4
:102CD0003F4F328F218F1FC023813481A901480FBC
:102CE000591F64177507B8F4AC01421B530B461704
:102CF000570788F4238D348D2F5F3F4F348F238FF8
:102D0000108E178A128E118E168E158E10A2178EA7
:102D100015A212A211A227813085AC01421B530BD0
:102D20006417750748F4808181110EC0858D968DDA
:102D30000196968F858F12C0820F931F8617970773
:102D400068F480818111F2CF878D90A1019690A3C4
:102D5000878F81A192A1019692A381A32789308DAB
:102D6000858596858217930750F4438D548D452BA6
:102D700031F0838994890196948B838B0EC0418DA9
:102D8000528D8417950760F4838D948D892B41F0C3
:102D9000858996890196968B858B84A3148E138ED4
:102DA00083899489892B21F085899689892B31F42F
:102DB000232B81F0818D928D892B61F0148A138AE7
:102DC000168A158A85E084A3108E178A128E118EBA
:102DD000148E138E238D348D8185928582179307EF
:102DE00068F4838983A385899689009711F08C5FA5
:102DF00083A3148A138A168A158A35C0838594851D
:102E0000258D368D8217930728F425A1211102C044
:102E100089E009C0278D30A18217930760F485A14E
:102E2000811109C08AE083A3148A138A168A158A3D
:102E300081E085A318C081A192A18135910528F078
:102E400012A211A28BE083A30EC0838994890597F7
:102E500020F485899689059730F0EF01CF010E9413
:102E600025168CE08CA3DF91CF910895FC0111828F
:102E70001082138212820895F999FECF72BD61BD4E
:102E8000F89A80B508950F931F93CF93DF931F9205
:102E9000CDB7DEB78B0149830E943C174981841767
:102EA00041F0F999FECF1FBA12BD01BD40BDFA9A9B
:102EB000F99A0F90DF91CF911F910F910895FC0126
:102EC000738362830895FC01718360830895CF93B7
:102ED000DF93EC01462F688179810E944317888136
:102EE0009981019699838883DF91CF910895CF923C
:102EF000DF92EF92FF921F93CF93DF931F92CDB794
:102F0000DEB77C01162F6B019C2D911B941748F4A2
:102F1000F60161916F01C70149830E9467174981DA
:102F2000F3CF0F90DF91CF911F91FF90EF90DF9043
:102F3000CF900895FC01608171819B012F5F3F4F0D
:102F4000318320830C943C17CF92DF92EF92FF9253
:102F50001F93CF93DF931F92CDB7DEB77C01162F5F
:102F60006B019C2D911B941748F4C70149830E9463
:102F70009A17F60181936F014981F3CF0F90DF918A
:102F8000CF911F91FF90EF90DF90CF9008950C9418
:102F90006717CF93DF9300D0CDB7DEB769837A830D
:102FA00042E0BE016F5F7F4F0E9477170F900F9036
:102FB000DF91CF9108950C949A17CF93DF9300D0AF
:102FC000CDB7DEB742E0BE016F5F7F4F0E94A4170E
:102FD0008A8190E0982F88272981820F911D0F9078
:102FE0000F90DF91CF910895CF93DF9300D000D061
:102FF000CDB7DEB744E0BE016F5F7F4F0E94A417DC
:10300000FE01319620E030E040E050E0BA018191CD
:1030100090E0A0E0B0E0022E04C0880F991FAA1F24
:10302000BB1F0A94D2F7480F591F6A1F7B1F285FE6
:103030003F4F2032310559F7CB01BA010F900F9065
:103040000F900F90DF91CF910895DC01ED91FC91ED
:103050000190F081E02D0994FC011082128211820E
:103060008FEF83830895CF93DF93EC01688388ED1E
:1030700091E00E944A1B688188ED91E00E94591BF3
:1030800088ED91E00E94DD1B811106C081E09B81EB
:10309000992319F080E001C081E0DF91CF9108957C
:1030A000FC01728361830895CF92DF92EF92FF92C9
:1030B0000F931F93CF93DF938C01F62EC72EE42E30
:1030C000FC01608188ED91E00E94591BF80161814B
:1030D000728188ED91E00E942518DF2CCF2DDC2D28
:1030E0008C2F8D198E1560F4699188ED91E00E9406
:1030F000F91AF80181819281019692838183F0CF40
:1031000088ED91E00E94DD1B91E0811101C090E00B
:10311000892FDF91CF911F910F91FF90EF90DF905A
:10312000CF900895CF93DF9300D000D0CDB7DEB716
:1031300049835A836B837C8344E0BE016F5F7F4F7A
:103140000E9454180F900F900F900F90DF91CF9125
:1031500008950C949218AF92BF92DF92EF92FF9273
:103160000F931F93CF93DF93CDB7DEB728970FB69A
:10317000F894DEBF0FBECDBF5C01E02FD22EE32E50
:10318000F42EB52FA62FF72F0983202F312F4D2D89
:103190005E2D6F2D7B2F8A2F9F2F08E00E94AC237E
:1031A0002A832E2F312F4D2D5E2D6F2D7B2F8A2FB1
:1031B0009F2F00E10E94AC232B832E2F312F4D2D0A
:1031C0005E2D6F2D7B2F8A2F9F2F08E10E94AC234D
:1031D0002C832E2F312F4D2D5E2D6F2D7B2F8A2F7F
:1031E0009F2F00E20E94AC232D832E2F312F4D2DD7
:1031F0005E2D6F2D7B2F8A2F9F2F08E20E94AC231C
:103200002E832E2F312F4D2D5E2D6F2D7B2F8A2F4C
:103210009F2F00E30E94AC232F832E2F312F4D2DA3
:103220005E2D6F2D7B2F8A2F9F2F08E30E94AC23EA
:10323000288748E0BE016F5F7F4FC5010E94541888
:1032400028960FB6F894DEBF0FBECDBFDF91CF91A9
:103250001F910F91FF90EF90DF90BF90AF90089576
:103260009F92AF92BF92CF92DF92EF92FF920F9315
:103270001F93CF93DF938C01A62E972EB42EFC01C3
:10328000608188ED91E00E94591BF8016181728193
:1032900088ED91E00E94251888ED91E00E94DD1BE9
:1032A000CB2DD0E0F801608170E0AE0188ED91E0B7
:1032B0000E94DA1B0E945D1E6B017C01F4E6CF0EBA
:1032C000D11CE11CF11C88ED91E00E946D1A8C1755
:1032D0009D0739F00E945D1EC616D706E806F9065E
:1032E00090F7FA2CCA2DD92D8C2F8F198B1560F4DD
:1032F00088ED91E00E94751A8993F801818192818D
:10330000019692838183F0CFDF91CF911F910F912E
:10331000FF90EF90DF90CF90BF90AF909F90089577
:10332000CF92DF92EF92FF92CF93DF9300D000D045
:10333000CDB7DEB744E0BE016F5F7F4F0E9430190A
:10334000FE01319620E030E060E070E0CB01419179
:10335000C42ED12CE12CF12C022E04C0CC0CDD1C8F
:10336000EE1CFF1C0A94D2F76C0D7D1D8E1D9F1D57
:10337000285F3F4F2032310551F70F900F900F908B
:103380000F90DF91CF91FF90EF90DF90CF90089555
:103390002F923F924F925F926F927F928F929F9265
:1033A000AF92BF92CF92DF92EF92FF920F931F9353
:1033B000CF93DF93CDB7DEB728970FB6F894DEBF73
:1033C0000FBECDBF48E0BE016F5F7F4F0E94301936
:1033D000DE011196812C912C212C312C412C512C69
:1033E000612CE0E0712CF0E02D9130E040E050E005
:1033F00060E070E080E090E0082D0E949123590188
:103400006A017B018C019101A201662D7E2F872D1F
:103410009F2F0E94C82319012A01662EE72F782EBC
:10342000F92F88E0880E911C80E488169104E1F65B
:103430009101A201662D7E2F872D9F2F28960FB612
:10344000F894DEBF0FBECDBFDF91CF911F910F91DA
:10345000FF90EF90DF90CF90BF90AF909F908F90B4
:103460007F906F905F904F903F902F900895CF93F3
:10347000DF9300D000D0CDB7DEB744E0BE016F5F70
:103480007F4F0E943019FE01319620E030E040E08D
:1034900050E0BA01819190E0A0E0B0E0022E04C0BB
:1034A000880F991FAA1FBB1F0A94D2F7480F591FF4
:1034B0006A1F7B1F285F3F4F2032310559F7CB0130
:1034C000BA010F900F900F900F90DF91CF91089558
:1034D000FC01118E108E0895089580910C0290E0E9
:1034E00020910D02821B9109089590910D02809107
:1034F0000C02981750F4E92FF0E0E25FFD4F2081B5
:1035000030E09F5F90930D0202C02FEF3FEFC901A3
:103510000895E0910D0280910C02E81730F4F0E07C
:10352000E25FFD4F808190E008958FEF9FEF089557
:103530000895AC01E091E401F091E5013097E1F0EC
:1035400090910D0280910C029817B0F090E0292F15
:1035500030E02617370754F4DA01A20FB31F8C911D
:10356000D901A25FBD4F8C939F5FF1CF10920D02E6
:1035700060930C02CB0109940895E091E601F0916B
:10358000E701309729F01092EA011092E9010994BD
:103590000895CF92DF92EF92FF920F931F93CF93F4
:1035A000DF937C01262F972F8A018091E8018823E1
:1035B00091F0C62FD72F6E01C40ED51ECC15DD0598
:1035C00071F06991D701ED91FC910190F081E02DAE
:1035D000C7010995F3CF642F822F0E94A41CC80154
:1035E000DF91CF911F910F91FF90EF90DF90CF90DF
:1035F0000895CF93DF931F92CDB7DEB769832091F3
:10360000E8012223D1F02091E901203240F021E0AD
:1036100030E0FC013383228380E090E015C080918C
:10362000EA01E82FF0E0E551FE4F998190838F5F2A
:103630008093EA018093E90105C061E0CE01019623
:103640000E94A41C81E090E00F90DF91CF9108953B
:10365000FC011382128288EE93E0A0E0B0E0848344
:103660009583A683B78386E191E091838083089553
:1036700010920D0210920C021092EA011092E901D0
:103680000E94E41B8DEB9AE10E94D11C89E99AE12A
:103690000C94CC1CCF93DF931F92CDB7DEB7698318
:1036A0000E94381B6981862F0F90DF91CF910C9477
:1036B000021C81E08093E80160930B021092EA0102
:1036C0001092E90108950F93062F21E04091E9013E
:1036D0006BEE71E080910B020E944E1C1092EA0189
:1036E0001092E9011092E8010F9108954F925F92B4
:1036F0006F927F92AF92BF92CF92EF92FF920F9311
:103700001F93CF93DF935C01F62ED42F280139014C
:10371000EE2021F10E94591BCE2DC43008F0C3E0E9
:10372000C150C0F0D501ED91FC91B8E0CB9FC00134
:103730001124A301920104C056954795379527950A
:103740008A95D2F7CA01B9010190F081E02DC50137
:103750000995E6CF60E0C5010E94631B4D2FD13271
:1037600008F040E22C2D6EE072E08F2D0E94061CC6
:1037700010920D0280930C02DF91CF911F910F9157
:10378000FF90EF90CF90BF90AF907F906F905F9041
:103790004F900895CF92EF920F931F93C22EE12C7A
:1037A00000E010E098010E94761B1F910F91EF90AE
:1037B000CF90089521E00C94CA1B61E00C94631B28
:1037C00088ED91E00C94281B10929B0281E080937D
:1037D00099021092980261E082E10E946A1F61E002
:1037E00083E10E946A1FE9EBF0E080818E7F808395
:1037F00080818D7F808388E48093B80085E4809306
:10380000BC000895880F8093BA000895413208F0F3
:1038100043C090919B029111FCCF91E090939B0249
:10382000209399022FEF20932E0210927302240FFF
:103830002093720290939A0290919A02880F892B9A
:1038400080939A0280919802813061F410929802DC
:1038500080919A028093BB008091BC0083FDF8CFD9
:1038600085EC01C085EE8093BC0080919B02813085
:10387000E1F380917302841710F44091730224E7FE
:1038800032E0FB01D9018A2F821B841718F48D9135
:103890008193F9CF842F089580E008950F934132EA
:1038A00008F04AC090919B029111FCCF32E0309316
:1038B0009B02009399023FEF30932E021092730205
:1038C00040937202FB0164E772E0DB013A2F361B82
:1038D000341718F431913D93F9CF10929A02309138
:1038E0009A02880F832B80939A02809198028130EC
:1038F00061F41092980280919A028093BB008091AB
:10390000BC0083FDF8CF85EC01C085EE8093BC0040
:10391000222321F080919B028230D1F380912E02EC
:103920008F3F79F080912E02803241F080912E02FB
:10393000803331F094E005C091E003C092E001C013
:1039400093E0892F0F91089540915002262F30E087
:10395000240F311D21323105DCF420919B022430EB
:10396000C9F4FC0180E090E0861758F430915002D1
:103970002191DC01AE5ABD4FA30FB11D2C930196CE
:10398000F3CF80915002680F6093500280E0089559
:1039900081E0089582E008959093950280939402C7
:1039A00008959093970280939602089585ED8093F1
:1039B000BC008091BC0084FDFCCF10929B02089556
:1039C00085EC8093BC0010929B0208951F920F9289
:1039D0000FB60F9211242F933F934F935F936F93E2
:1039E0007F938F939F93AF93BF93EF93FF938091B8
:1039F000B900887F803609F49EC078F5883209F4D2
:103A00005DC090F4803109F456C038F4882309F47D
:103A1000F5C0883009F44FC0F5C0883109F44EC0B4
:103A2000803209F45FC0EEC0803409F46AC058F4F3
:103A3000803309F457C0883309F0E4C080932E0224
:103A40000E94E01CDFC0803509F44FC0883509F4BE
:103A50005DC0883409F0D6C0D3C0883909F4C4C029
:103A6000A8F4883709F467C038F4883609F463C0CD
:103A7000803709F460C0C6C0883809F4B5C0803901
:103A800009F45FC0803809F0BDC05BC0803B09F419
:103A900083C038F4803A09F466C0883A09F47CC0DF
:103AA000B1C0803C09F4A4C0883C09F4A1C0883BA3
:103AB00009F487C0A7C080919A0210C09091730248
:103AC00080917202981770F5E091730281E08E0F79
:103AD00080937302F0E0EC58FD4F80818093BB002F
:103AE00085EC83C080932E028BC0E091730281E04D
:103AF0008E0F809373028091BB00F0E0EC58FD4F75
:103B0000808390917302809172026BC0E091730286
:103B100081E08E0F809373028091BB00F0E0EC583F
:103B2000FD4F80838091990281116AC081E080936A
:103B3000980284EA5EC083E080939B0210922F0279
:103B4000CFCF80912F02803208F04EC0E0912F023B
:103B500081E08E0F80932F028091BB00F0E0E05D4A
:103B6000FD4F8083BDCF0E94E01C80912F028032E8
:103B700030F4E0912F02F0E0E05DFD4F10826091A3
:103B80002F0270E0E0919402F091950280E392E0C0
:103B9000099510922F0236C084E080939B02109208
:103BA000510210925002E0919602F091970209950D
:103BB00080915002811105C081E0809350021092E3
:103BC0005202E091510281E08E0F80935102F0E0A9
:103BD000EE5AFD4F80818093BB00909151028091FD
:103BE0005002981708F47CCF85E88093BC000AC087
:103BF00085EC8093BC0010929B0204C010922E02B0
:103C00000E94D61CFF91EF91BF91AF919F918F9130
:103C10007F916F915F914F913F912F910F900FBEC8
:103C20000F901F9018951F920F920FB60F921124AC
:103C30002F933F938F939F93AF93BF9380919D0258
:103C400090919E02A0919F02B091A00230919C029F
:103C500023E0230F2D3720F40196A11DB11D05C0CF
:103C600026E8230F0296A11DB11D20939C0280938C
:103C70009D0290939E02A0939F02B093A002809118
:103C8000A1029091A202A091A302B091A402019678
:103C9000A11DB11D8093A1029093A202A093A30243
:103CA000B093A402BF91AF919F918F913F912F91BB
:103CB0000F900FBE0F901F9018952FB7F89460913A
:103CC0009D0270919E0280919F029091A0022FBF51
:103CD00008953FB7F8948091A1029091A202A0911B
:103CE000A302B091A40226B5A89B05C02F3F19F0EE
:103CF0000196A11DB11D3FBFBA2FA92F982F88276C
:103D0000820F911DA11DB11DBC01CD0142E0660FC6
:103D1000771F881F991F4A95D1F708958F929F9218
:103D2000AF92BF92CF92DF92EF92FF926B017C0134
:103D30000E94691E4B015C01C114D104E104F1042D
:103D400001F10E94DC1F0E94691EDC01CB01881971
:103D50009909AA09BB09883E9340A105B10560F302
:103D600021E0C21AD108E108F10888EE880E83E04C
:103D7000981EA11CB11CC114D104E104F10419F76F
:103D8000DBCFFF90EF90DF90CF90BF90AF909F90F0
:103D90008F900895789484B5826084BD84B58160E5
:103DA00084BD85B5826085BD85B5816085BDEEE643
:103DB000F0E0808181608083E1E8F0E01082808122
:103DC00082608083808181608083E0E8F0E0808190
:103DD00081608083E1EBF0E0808184608083E0EBB0
:103DE000F0E0808181608083EAE7F0E08081846098
:103DF00080838081826080838081816080838081F4
:103E0000806880831092C1000895843081F028F486
:103E1000823099F08330A1F008958830A9F089307C
:103E2000B9F08530D1F4809180008F7D03C08091FE
:103E300080008F7780938000089584B58F7702C0CB
:103E400084B58F7D84BD08958091B0008F7703C0C5
:103E50008091B0008F7D8093B0000895CF93DF9361
:103E600090E0FC01E15EFC4F2491FC01EA5CFC4F18
:103E70008491882361F190E0880F991FFC01EF592C
:103E8000FC4FC591D491FC01E95AFC4FA591B49126
:103E9000611109C09FB7F894888120958223888397
:103EA000EC912E230BC0623061F49FB7F8943881F7
:103EB000822F809583238883EC912E2B2C939FBF98
:103EC00006C08FB7F894E8812E2B28838FBFDF912F
:103ED000CF9108951F93CF93DF93282F30E0F901FE
:103EE000E85FFC4F8491F901E15EFC4FD491F90148
:103EF000EA5CFC4FC491CC23C9F0162F81110E94BB
:103F0000051FEC2FF0E0EE0FFF1FE95AFC4FA591C3
:103F1000B4918FB7F894111105C09C91ED2FE095E5
:103F2000E92302C0EC91ED2BEC938FBFDF91CF9191
:103F30001F9108950F931F9390E0FC01E15EFC4FE9
:103F40007491FC01EA5CFC4FE491662311F0672F49
:103F500001C060E0F0E0EE0FFF1FE35BFC4F8591D6
:103F6000949189019A013F70462F672F0E94E201C8
:103F7000611571058105910549F0DC01CB010196C0
:103F8000A11DB11DBC01CD019F7003C060E070E0B8
:103F9000CB011F910F91089508950E94CA1E0E949F
:103FA000CC1F0E94C709C0E0D0E00E94FC0B209704
:103FB000E1F30E940000F9CF08955058BB27AA27CB
:103FC0000E94F51F0C94BB210E94AD2138F00E9485
:103FD000B42120F039F49F3F19F426F40C949A216F
:103FE0000EF4E095E7FB0C949421E92F0E94CC217C
:103FF00058F3BA17620773078407950720F079F41E
:10400000A6F50C94EE210EF4E0950B2EBA2FA02D00
:104010000B01B90190010C01CA01A0011124FF2775
:10402000591B99F0593F50F4503E68F11A16F04070
:10403000A22F232F342F4427585FF3CF469537956F
:104040002795A795F0405395C9F77EF41F16BA0B34
:10405000620B730B840BBAF09150A1F0FF0FBB1FE2
:10406000661F771F881FC2F70EC0BA0F621F731F2B
:10407000841F48F4879577956795B795F7959E3F88
:1040800008F0B0CF9395880F08F09927EE0F979519
:10409000879508950E94702108F481E008950E9498
:1040A00063200C94BB210E94B42158F00E94AD21E2
:1040B00040F029F45F3F29F00C94942151110C94A5
:1040C000EF210C949A210E94CC2168F39923B1F33B
:1040D000552391F3951B550BBB27AA27621773072E
:1040E000840738F09F5F5F4F220F331F441FAA1FC2
:1040F000A9F335D00E2E3AF0E0E832D0915050407E
:10410000E695001CCAF72BD0FE2F29D0660F771F2B
:10411000881FBB1F261737074807AB07B0E809F011
:10412000BB0B802DBF01FF2793585F4F3AF09E3F96
:10413000510578F00C9494210C94EF215F3FE4F347
:10414000983ED4F3869577956795B795F7959F5FD9
:10415000C9F7880F911D9695879597F90895E1E025
:10416000660F771F881FBB1F621773078407BA0784
:1041700020F0621B730B840BBA0BEE1F88F7E095DF
:104180000895BEE304D008F490E80895BFE3222721
:104190003327A9010E94D42160F19F5748F1B91734
:1041A00040F1BFE3B91B9927B8503AF4660F771F67
:1041B000881F991FB395D2F316C0B8504AF0232F29
:1041C000342F452F562F672F782F8827B850BAF7EE
:1041D000B85F49F0869577956795579547953795D8
:1041E0002795BA95B9F716F40E949D2188940895F1
:1041F000889460E070E0CB0108950E9404216894E7
:10420000B1110C94EF2108950E94D42188F09F579A
:1042100098F0B92F9927B751B0F0E1F0660F771FEA
:10422000881F991F1AF0BA95C9F714C0B13091F0E0
:104230000E94EE21B1E008950C94EE21672F782FB3
:104240008827B85F39F0B93FCCF3869577956795A5
:10425000B395D9F73EF490958095709561957F4F11
:104260008F4F9F4F0895E89409C097FB3EF49095B7
:104270008095709561957F4F8F4F9F4F9923A9F03F
:10428000F92F96E9BB279395F695879577956795CE
:10429000B795F111F8CFFAF4BB0F11F460FF1BC012
:1042A0006F5F7F4F8F4F9F4F16C0882311F096E9A5
:1042B00011C0772321F09EE8872F762F05C0662353
:1042C00071F096E8862F70E060E02AF09A95660F0C
:1042D000771F881FDAF7880F9695879597F90895C5
:1042E000990F0008550FAA0BE0E8FEEF1616170607
:1042F000E807F907C0F012161306E407F50798F06F
:10430000621B730B840B950B39F40A2661F0232B87
:10431000242B252B21F408950A2609F4A140A69503
:104320008FEF811D811D089597F99F6780E870E0E8
:1043300060E008959FEF80EC0895909580957095CA
:10434000609550954095309521953F4F4F4F5F4F69
:104350006F4F7F4F8F4F9F4F089500240A9416167A
:10436000170618060906089500240A941216130663
:10437000140605060895092E0394000C11F48823F1
:1043800052F0BB0F40F4BF2B11F460FF04C06F5F0D
:104390007F4F8F4F9F4F089557FD9058440F551FE3
:1043A00059F05F3F71F04795880F97FB991F61F0B7
:1043B0009F3F79F087950895121613061406551F2E
:1043C000F2CF4695F1DF08C0161617061806991F9A
:1043D000F1CF86957105610508940895E894BB278F
:1043E00066277727CB0197F908950E94702108F47A
:1043F0008FEF08950E940D220C94BB210E94AD21E5
:1044000038F00E94B42120F0952311F00C949421EF
:104410000C949A2111240C94EF210E94CC2170F36A
:10442000959FC1F3950F50E0551F629FF001729F59
:10443000BB27F00DB11D639FAA27F00DB11DAA1F68
:10444000649F6627B00DA11D661F829F2227B00DB5
:10445000A11D621F739FB00DA11D621F839FA00D40
:10446000611D221F749F3327A00D611D231F849F90
:10447000600D211D822F762F6A2F11249F575040E7
:104480009AF0F1F088234AF0EE0FFF1FBB1F661F62
:10449000771F881F91505040A9F79E3F510580F02B
:1044A0000C9494210C94EF215F3FE4F3983ED4F3F5
:1044B000869577956795B795F795E7959F5FC1F7CF
:1044C000FE2B880F911D9695879597F90895991B56
:1044D00079E004C0991F961708F0961B881F7A95FB
:1044E000C9F780950895A1E21A2EAA1BBB1BFD01F6
:1044F0000DC0AA1FBB1FEE1FFF1FA217B307E407C3
:10450000F50720F0A21BB30BE40BF50B661F771F1A
:10451000881F991F1A9469F76095709580959095FA
:104520009B01AC01BD01CF010895052E97FB1EF440
:1045300000940E94AC2257FD07D00E94732207FC12
:1045400003D04EF40C94AC225095409530952195B3
:104550003F4F4F4F5F4F08959095809570956195AF
:104560007F4F8F4F9F4F0895EE0FFF1F0590F491DF
:10457000E02D0994689401C0E894F92FF12B12F012
:104580000C94EE22A0E0B0E0E8ECF2E20C946023A0
:10459000092E059422F40E944A23112392F4F0E894
:1045A0000F26FFEFE094F09400951095B094C0941E
:1045B000D094A194BF0ACF0ADF0AEF0AFF0A0F0BBB
:1045C0001F0B0E94F92207FC0E944A23CDB7DEB7D9
:1045D000ECE00C947C23689401C0E8948F929F9245
:1045E000CF93DF930E94F922DF91CF919F908F901C
:1045F000089588249924F401E401B0E49F93AA2744
:104600009A158B049C04ED05FE05CF05D007A10784
:1046100098F4AD2FDC2FCF2FFE2FE92D982C892E6B
:10462000982F872F762F652F542F432F322F222735
:10463000B85031F7BF9127C01B2EBF91BB27220F67
:10464000331F441F551F661F771F881F991F881C23
:10465000991CEE1FFF1FCC1FDD1FAA1FBB1F8A1452
:104660009B04EC05FD05CE05DF05A007B10748F06A
:104670008A189B08EC09FD09CE09DF09A00BB10BD4
:1046800021601A94E1F62EF49401AF01BE01CD0130
:10469000000C0895609570958095909530954095A3
:1046A000509521953F4F4F4F5F4F6F4F7F4F8F4F2B
:1046B0009F4F08952F923F924F925F926F927F92F9
:1046C0008F929F92AF92BF92CF92DF92EF92FF9222
:1046D0000F931F93CF93DF93CDB7DEB7CA1BDB0BCE
:1046E0000FB6F894DEBF0FBECDBF09942A88398873
:1046F00048885F846E847D848C849B84AA84B9847A
:10470000C884DF80EE80FD800C811B81AA81B98185
:10471000CE0FD11D0FB6F894DEBF0FBECDBFED0199
:1047200008950F93083090F0982F872F762F652FDC
:10473000542F432F322F22270850F4CF220F331F3C
:10474000441F551F661F771F881F991F0A95B2F7D0
:104750000F91089597FB10F8169400080F930830F6
:1047600098F00850232F342F452F562F672F782F7E
:10477000892F902DF4CF0594979587957795679518
:1047800057954795379527950A95AAF70F9108955C
:104790002A0D3B1D4C1D5D1D6E1D7F1D801F911F31
:1047A00008952A193B094C095D096E097F09800BA0
:1047B000910B08952A153B054C055D056E057F0597
:1047C0008007910708950024A7FD00942A1730055B
:1047D0004005500560057005800590050895EF922D
:1047E0000F931F93CF93DF93E80147FD02C034E09E
:1047F00001C034E1E42F440FFF0BF7FF03C0F19534
:10480000E195F109E32E022F2E2FAE010E943524EF
:10481000CE01DF91CF911F910F91EF900895FC0190
:1048200088279927E89421912032E9F3293010F064
:104830002E30C8F32B3241F02D3239F4689404C085
:104840000E942D24820F911D219120532A30C0F304
:104850001EF4909581959F4F08957AE0979F902D33
:10486000879F802D910D112408954F925F926F9232
:104870007F929F92AF92BF92CF92DF92EF92FF9280
:104880000F931F93CF93DF93CDB7DEB729970FB662
:10489000F894DEBF0FBECDBF6A01122FB02E2BE3FE
:1048A000201720F0FF24F394F00E02C0BCE3FB2E8F
:1048B0000F2D27E0AE014F5F5F4F0E94C325AC0173
:1048C0008981982F9970913031F0E1FC06C0E0FEAB
:1048D00006C090E205C09DE203C09BE201C090E0EB
:1048E000EE2DE07183FF3CC0911102C083E001C056
:1048F00084E0811718F4212F281B01C020E0E1116A
:104900000BC0F601822F30E2882319F031938150D9
:10491000FBCFC20ED11C20E0992329F0D6019C9335
:10492000F60131966F01C6010396E2FE0AC03EE42D
:10493000D6013C9341E411964C93119712963C9307
:1049400006C03EE6F601308341E641833283FC0136
:10495000322F40E2332309F442C041933150FACF61
:1049600082FF44C0911102C083E001C084E081173E
:1049700018F4212F281B01C020E0E1110BC0F60123
:10498000822F30E2882319F031938150FBCFC20E81
:10499000D11C20E0992329F0D6019C93F601319691
:1049A0006F01C6010396E2FE0BC039E4D6013C93C9
:1049B0003EE411963C93119736E412963C9307C05F
:1049C00039E6F60130833EE6318336E63283FC0178
:1049D000322F40E2332319F041933150FBCFFC01D9
:1049E000E20FF11D10828EEF9FEFB7C0F1E0911141
:1049F00001C0F0E06F2F70E01416150624F49A0140
:104A00002F5F3F4F02C021E030E0260F371FBB2051
:104A100029F06B2D70E06F5F7F4F02C060E070E0A7
:104A2000260F371F612F70E0261737071CF4121B63
:104A3000212F01C020E03E2D387159F4D601322FCC
:104A400060E2332319F06D933150FBCFC20ED11CBD
:104A500020E0FF2331F0D6019C93B6016F5F7F4FBA
:104A60006B01E1110BC0F601922F30E3992319F08D
:104A700031939150FBCFC20ED11C20E09F2D940F9B
:104A80003A81782F7071A72E84FF03C0313309F467
:104A90009150191624F4993018F098E001C091E073
:104AA000E42F852F57FF02C0E0E080E06E2F782FC3
:104AB000E0E0F0E0AEE29A2E3A01691A71082A01AC
:104AC000461A570A0B2D10E01195019511096F3FF9
:104AD0008FEF780729F4D6019C92C60101966C01EC
:104AE0004617570784F0661677066CF47F01E40CCE
:104AF000F51CA1E0B0E0AC0FBD1FEA0EFB1ED70114
:104B00001196BC9002C090E3B92E615071093196A4
:104B1000C60101967C016017710724F0D601BC9292
:104B20006C01D5CF6417750741F4363320F4353363
:104B300021F4A11002C081E3B82EF601B082F70182
:104B4000822F90E2882319F091938150FBCFF701D7
:104B5000E20FF11D108280E090E029960FB6F894E4
:104B6000DEBF0FBECDBFDF91CF911F910F91FF90A0
:104B7000EF90DF90CF90BF90AF909F907F906F901D
:104B80005F904F900895283008F027E03327DA012E
:104B9000990F311D87FD916000966105710539F40B
:104BA00032602E5F3D9330E32A95E1F708959F3FF1
:104BB00030F080387105610509F03C5F3C5F3D9342
:104BC000913008F08068911DDF93CF931F930F936E
:104BD000FF92EF92192F987F9695E92F96959695CB
:104BE000E90FFF27E852FF4F99273327EE24FF24D0
:104BF000A701E70105900894079428F4360FE71EF3
:104C0000F81E491F511D660F771F881F991F0694B4
:104C1000A1F70590079428F4E70EF81E491F561FC8
:104C2000C11D770F881F991F661F0694A1F7059075
:104C3000079428F4F80E491F561FC71FD11D880F6F
:104C4000991F661F771F0694A1F70590079420F41B
:104C5000490F561FC71FD81F990F661F771F881F40
:104C60000694A9F784911095177041F0D695C795D1
:104C700057954795F794E7941A95C1F7EEE7F0E05A
:104C800068941590159135916591959105907FE205
:104C90007395E118F10A430B560BC90BD009C0F705
:104CA000E10CF11E431F561FC91FD01D7EF4703347
:104CB00011F48A95E6CFE894015030F0080F0AF419
:104CC0000027021708F4202F2395022F7A3328F0AB
:104CD00079E37D932A95E9F710C07D932A9589F6AB
:104CE000069497956795379517951794E118F10AEB
:104CF000430B560BC90BD00998F023957E91739501
:104D00007A3308F070E37C932013B8F77E917061DA
:104D10007D9330F0839571E37D9370E32A95E1F7FD
:104D20001124EF90FF900F911F91CF91DF91992760
:0A4D300087FD90950895F894FFCFD9
:104D3A000000803F01000000803F0000803F00002B
:104D4A00803F00000000F91AC91A6D1A751A891AEB
:024D5A00981AA5
:00000001FF
